:1040000058E700207D9C0000799C0000799C00000E
:10401000799C0000799C0000799C00000000000061
:10402000000000000000000000000000799C00007B
:10403000799C000000000000799C0000799C000041
:10404000799C0000799C0000799C0000799C00001C
:10405000799C0000799C0000799C0000799C00000C
:10406000799C0000799C0000799C0000799C0000FC
:10407000799C0000799C0000799C0000799C0000EC
:10408000799C0000799C0000799C0000799C0000DC
:10409000799C0000799C0000799C0000799C0000CC
:1040A000799C0000799C0000799C00004D82000002
:1040B000799C0000799C0000799C0000018C000034
:1040C000799C0000799C0000799C0000799C00009C
:1040D000799C0000799C0000799C0000799C00008C
:1040E000799C0000799C0000799C0000799C00007C
:1040F00000000000799C0000799C0000799C000081
:10410000799C0000799C0000ED8B0000799C0000F8
:10411000799C0000799C0000799C0000799C00004B
:10412000799C0000799C0000799C0000799C00003B
:10413000799C0000799C0000799C0000799C00002B
:10414000799C0000799C0000799C0000799C00001B
:10415000799C0000799C0000000000000000000035
:10416000000000000000000000000000000000004F
:10417000000000000000000000000000000000003F
:10418000C5B60000DDB60000E1B60000E5B60000EF
:1041900000000000799C0000799C0000799C0000E0
:1041A000799C0000799C0000799C0000799C0000BB
:1041B000799C0000799C0000799C0000799C0000AB
:1041C000799C0000799C0000799C0000799C00009B
:1041D000799C0000799C0000799C0000799C00008B
:1041E000799C0000799C0000799C0000799C00007B
:1041F000799C0000799C0000799C0000397B0000CC
:10420000617B00000000000000000000799C0000BD
:10421000799C0000799C0000799C0000799C00004A
:10422000799C0000799C0000799C0000799C00003A
:10423000799C0000799C0000799C0000799C00002A
:10424000799C0000799C0000799C0000799C00001A
:10425000799C0000799C0000799C0000799C00000A
:104260000000000010B5054C237833B9044B13B19E
:104270000448AFF300800123237010BDD02F00202D
:1042800000000000BC1801000C4B43B10C480D4964
:1042900010B5AFF300800C48036823B910BD0A487D
:1042A000036833B97047094B002BF7D0BDE81040C5
:1042B0001847064B002BF5D0184700BF0000000040
:1042C000BC180100D42F0020BC1801000000000021
:1042D00008B500F0AFF908BD08B500F029FB08BD2E
:1042E000294A2A490023F0B553601360C2F8073009
:1042F000274A284E53601360C2F80730264A53609D
:104300001360C2F80730254A01F10B0013605360B7
:10431000864601274B78447806EBC31307FA04F46A
:104320005C6011F8014F10F8015F06EBC41307FA47
:1043300005FCC3F814C02B44714593F8405045F078
:10434000020583F8405093F8405045F0040583F887
:10435000405052F8243043EA0C0342F82430D9D1BB
:104360000F4E104D0B48002301249A5D595D00EB60
:10437000C212013304FA01F1082B91605161F4D1AA
:10438000BDE8F04000F082BE03370020A303002008
:104390000E37002000800041F8360020F036002063
:1043A000F02F0020BA0300202DE9F04F85B003F074
:1043B0003BFD3D4BD3E902450021A94208BFA04285
:1043C000984663D3DFF8F890384C0025A9F1150B17
:1043D00065602560C4F8075003F1FF3A01270BF12F
:1043E0000B029AF80130324E99F80110019206EB57
:1043F000C31307FA01F199610A2003F01BFD2D494F
:10440000306A0B6803400293D6F8A0004B681AF894
:10441000011F0340039319F8013F06EBC11607FA89
:1044200003F3736107FA05F1019A49B2002313F807
:104430000B6004A800EB8606985C56F8086C07FA37
:1044400000F030421EBFE05C0843E05401330B2B08
:10445000EDD10135082DC4D1002217491346A05CC7
:104460004D7801F8010F0132854218BF01230B2A54
:10447000F5D17BB9114AE15C995401330B2BFAD188
:1044800000220023C8E9022300F00AFE012005B043
:10449000BDE8F08F03F0C8FC00230530C8F8080021
:1044A000C8F80C30F0E700BFF02F002003370020E1
:1044B00000800041F03600200D370020F836002043
:1044C000B9030020014B185C704700BFF83600208C
:1044D0002DE9F047B0B0354B0093BC22002101A874
:1044E00008F01CFE32238DF8043033238DF805309C
:1044F00034238DF8063035238DF8073036238DF8B8
:104500000830372331258DF809300D2438230A214E
:10451000274F8DF80A308DF803508DF80B408DF839
:104520000C1004AB012220264FF02E0E4FF0580C39
:10453000D019092A10F8018C85BFB2FBF1F001FBFC
:10454000102002F13000303095BF03F8030C03F85F
:10455000020C03F8026C03F8035C03F8016C1846C4
:104560004FF0000948FA09FA1AF0010F09F10109A0
:1045700014BF80F800C080F800E0B9F1080F00F126
:104580000100EFD101320C2A1C72597203F10D03A4
:10459000CED100238DF89C30064B1B78DB0702D56B
:1045A000684602F061FC30B0BDE8F087522043005D
:1045B000F836002025310020E42830D012D8E12838
:1045C00029D009D8652820D0E02822D0031F532BFA
:1045D0002BD8174B185C7047E2281ED0E328F5D182
:1045E0004E207047E72820D005D8E52819D0E628C6
:1045F000ECD151207047FA2809D045F201139842B6
:1046000011D0F928E2D14C20704753207047562032
:1046100070474D207047402070474F20704754200E
:1046200070474B207047522070470020704700BFF2
:10463000E60E01002DE9F04FB64BB748D3ED007AF6
:10464000DFF8E882B2EE0E7A77EE877AC5B0C3ED76
:10465000007A02F009FCF022B04908A808F0C4FC76
:104660004FF0580900221146CA46142303FB0213D7
:1046700044A800EB4303002533F8F00CFFF79CFF40
:104680000AFB00830746019309FB008B6C1A002C80
:1046900008AB03EB4503B8BF644200930026E4B2C5
:1046A000282373430098C05AFFF786FF874224D01F
:1046B000B31A002BB8BF5B42DBB25FFA85FC04EB98
:1046C000030E61455FFA8EFE0BD95FFA86FC6245E8
:1046D00007D29C4294BFAEEB040EAEEB030E5FFA22
:1046E0008EFE1BF800300BB19E4506D2019B03F8ED
:1046F00000E00AFB008000F807E00136062ECFD16B
:104700000135142DC2D113290BBF01320131D2B2B0
:10471000C9B208BF0021052AA7D9814B4FF07F42BB
:10472000DA6041216FF0404219801A6193F8B83A7B
:10473000022B02D0042B18BF1121794C00222346F2
:104740000126551102F01F00012D998306FA00F091
:104750006FD0022D6FD018620132572A03F11C036B
:10476000EFD100236F481A461A54C1180833502B52
:104770004A704A60F8D112252A46002103A808F0A1
:10478000CDFC14238DF80C301A238DF80D3008233E
:104790008DF80E3004238DF80F3016238DF810306D
:1047A00007238DF8113018238DF812300C238DF863
:1047B00013300D238DF815300E238DF816300F238E
:1047C0008DF817301E238DF818301F238DF81930FF
:1047D00020238DF814508DF81A30534D5049212361
:1047E0008DF81B3000264FF002084FF013094FF0F0
:1047F000060A01272B7881F8B5396B7881F8B6392C
:10480000AB7881F8B73903AB81F8B489A1F8A099E6
:10481000002203EB060B0AFB02F31BF80300FFF771
:10482000CBFE01384309032B0ED8DFE803F0063333
:104830003D47586290E798628EE7D1F8A43907FAAD
:1048400000F01843C1F8A4090132022AE3D101366D
:10485000062E01F11C0105F10905CBD15E211327BC
:10486000FF26012503AB0B4484F85C2A13F8520C95
:10487000A4F8487A84F85D6A84F85E6A84F85F6A0E
:10488000FFF79AFE01384309032B25D8DFE803F030
:10489000202C333AD1F8A83900F01F0007FA00F0B5
:1048A0001843C1F8A809CFE7D1F8AC3900F01F00D0
:1048B00007FA00F01843C1F8AC09C5E7D1F8B039E0
:1048C00000F01F0007FA00F01843C1F8B009BBE779
:1048D00005FA00F0C4F84C0A0131622904F11C0405
:1048E000C0D145B0BDE8F08F00F01F0005FA00F020
:1048F000C4F8500AF0E700F01F0005FA00F0C4F811
:10490000540AE9E700F01F0005FA00F0C4F8580A5D
:10491000E2E700BFF8550020701201003A0F0100D5
:10492000C4030020003000202A1001001C370020A2
:104930002DE9F04397B05822002168463E4D3F4E86
:1049400008F0ECFB0024A846635D5BB32F19786880
:1049500002F010FAD6F8BC3A7A78B0FBF3F096F889
:10496000B81A374B96F8B9CA4FF0580E033902FB04
:104970000E3E0123C9B2002799461EF80320821A71
:1049800092B2624509D2012997BF1DF803700DF854
:104990000390D2190DF8032001270133582BECD1D5
:1049A00008F804700834502CCED1244BDFF894E082
:1049B00093F8B85A93F8B97A0121112041241226AC
:1049C000042D08D8DFE805F006030F1515001DF8C3
:1049D000012062B19C830131582903F11C03EFD1FE
:1049E00017B0BDE8F0831DF80120002AF2D09883AB
:1049F000F1E71DF80120C2B102EBC202520092FBA6
:104A0000F7F292FBF6FC06FB1C2202EB4202724418
:104A100092F844C183F831C092F845C192F846211A
:104A200083F832C083F83320E1E7042DD2D083F835
:104A3000312083F83220F5E700300020C403002045
:104A40001C370020E60E0100F8B545F6E743984212
:104A500006460D4600F0498161D845F6DF4398428D
:104A600000F0F08035D8FA2823D8F92880F0CC82DD
:104A7000652800F0C98204D3A0F1E003062B40F2C0
:104A8000C3823146B34802F0EFF9AC78002C00F055
:104A9000BD82331F4E2B00F2B982AF4A002312F8B9
:104AA0003310DD00002900F0BD8201330A2BF6D15E
:104AB000ACE245F20113984200F0A68245F6DE43CF
:104AC0009842DED18B78002B40F0AA80002420464B
:104AD000F8BD45F6E34398428B7800F0D98012D8B0
:104AE00045F6E142904200F0C58040F2B680002BCE
:104AF000ECD09A4BD3ED007AB7EE007A77EE877A56
:104B0000C3ED007AE2E745F6E542904200F0E1802D
:104B100040F2D180002BD9D00120914BE1E045F645
:104B2000EF43984200F0B58146D845F6EB439842F2
:104B30008B7800F0378124D845F6E942904200F0A6
:104B4000F58040F2DD80002BC0D0864B1B681B78BF
:104B500013F0220FBAD013F0110FB7D0824B834A53
:104B60001C781D46002C00F0EA801378DE0702D581
:104B70007F4802F079F92B78B3FA83F35B092B7045
:104B8000A4E745F6ED42904200F0548140F23381B3
:104B9000002B9BD0754C23785D0740F16D81D807C1
:104BA00002D5744802F060F92378C3F3800282F0E2
:104BB000010262F3820312E145F6F443984212D8EF
:104BC00045F6F34398428C7880F0088245F6F0432E
:104BD000984240F08B81604D002C00F07D8102F006
:104BE000AFF8286572E745F6F64398423FF649AFBD
:104BF0008B78002B3FF46AAF5F4A45F6F543D2F855
:104C0000BC6A98420CBF4FF0FF3301230A2113FB0B
:104C10000166092ECCBFC2F8BC6AC2F8BC1A55E7BF
:104C2000564B1A78C2F1A5010929D4BFA5220A3230
:104C30001A70534A1278002A3FF448AF1A78514B41
:104C40001A7043E78B78002B3FF440AF4B4B1A7838
:104C5000092A94BF00220A3AEAE7002B3FF436AF54
:104C600049494A4B09781A7801398A420CBF002217
:104C70000132E5E7002B3FF429AF444B1C7824B9FF
:104C8000414A1278013A1A7021E7013C1C701DE775
:104C9000002B3FF41BAF314BD3ED007AB7EE007A17
:104CA00077EEC77AF5EEC07AF1EE10FA7FF528AF0D
:104CB00000221A600AE7002B3FF408AF344A137849
:104CC0000133DBB2032B01D81370FFE6002414700C
:104CD000FDE6002B3FF4FAAE214B1878B0FA80F0D5
:104CE0004009187003F0ACFDF0E68B78002B3FF420
:104CF000EDAE00241A4B20461C7003F0A1FDE6E641
:104D0000002B3FF4E3AE1E4B1A78002A0CBF0122A1
:104D100000221A707FF4DAAE184B1A78194B1A7009
:104D20001C4B00241C7001221B4BACE7002B3FF4F2
:104D3000CDAE1A4A1378B3FA83F35B09C4E70121B5
:104D400019701378DD077FF5C1AE154802F08CF8B5
:104D5000BDE600BFD113010000300020F85500204F
:104D6000D2590020840E0020D65A00202531002080
:104D70009312010071130100C4030020C3590020E5
:104D8000C8590020D3590020E40E0100C259002068
:104D9000D1590020E0590020C6590020D0590020E8
:104DA000B9120100002B3FF491AEA64B1B681B7893
:104DB00013F0220F3FF48AAE13F0110F3FF486AECA
:104DC000A14BA24A19781C4659B11378D80702D5CD
:104DD0009F4802F049F82378B3FA83F35B09237004
:104DE00074E6012119701378D9077FF56FAE9948E1
:104DF00002F03AF86AE6002B3FF468AE934C237851
:104E0000DA070AD5944802F02FF82378C3F300029A
:104E100082F0010262F30003E1E72378C3F30002AA
:104E200082F0010262F300032370DB077FF54EAED0
:104E30008A48DDE7002B3FF449AE844A137813F02B
:104E4000020F14460CD0DF0702D5854802F00CF89B
:104E50002378C3F3400282F0010262F34103BEE70C
:104E6000C3F3400181F0010161F34103DE071370D8
:104E70007FF52CAE7B48BBE72378C3F3800282F03A
:104E8000010262F38203D90723707FF51FAE7648D3
:104E9000AEE78B78002B3FF419AE6C4A137813F011
:104EA000080415460CD0DA0702D5704801F0DCFF83
:104EB0002B78C3F3C00282F0010262F3C3035EE603
:104EC000C3F3C00181F0010161F3C3031370DB0779
:104ED0007FF5FCAD664839E7286D01F04BFFB0F572
:104EE000FA7FFFF4F3AD00F0E7F8F0E5002C3FF4B3
:104EF000EDAD604A45F6F14392F8B81A98420CBFFE
:104F0000042301230B44DBB20521B3FBF1F000EBDA
:104F100080001B1ADEB2731E82F8B86A032B59D8C0
:104F2000DFE803F0023A444F022382F8B93A322311
:104F3000C2F8BC3A002311251946FF244D4A002728
:104F400002F6841E1046858380F8317080F8327036
:104F500080F833701C307045F5D10020FF250130FA
:104F6000B04203BF82F85D4A82F85E1A82F85F3A67
:104F700082F85D5A1CBF82F85E5A82F85F5A042894
:104F800002F11C02EBD100233B4A194602F8331010
:104F900001330A2BFAD199E5322382F8B91AC2F803
:104FA000BC3A41250023FF211C46C7E70A2382F8AB
:104FB000B93A3223C2F8BC3A1125FF2300210C462E
:104FC000BCE70A2382F8B93A3223C2F8BC3A412539
:104FD000FF21F4E7002341251946E5E7002C3FF4C3
:104FE00075AD244A92F8B94A98420CBF01234FF09C
:104FF000FF331C4414F0FF0402D082F8B94A65E57F
:10500000012382F8B93A62E5AC780CB901245EE577
:1050100031461A4801F028FF174A002312F83310CE
:10502000DD0059B9012102F833103046FFF7C4FA08
:105030001544687001F084FE686048E501330A2B6E
:10504000ECD1E3E7840E0020B25A00202531002085
:10505000DE120100FB120100171301002D130100E5
:10506000421301005A1301008B130100A413010025
:10507000BB130100C403002000300020D113010045
:105080000120704708B5FFF7DFFC08BD08B501F047
:10509000F9FC08B901F056FDBDE80840FFF718B962
:1050A000FFF71AB9704708B5FFF7FCFF08BD08B550
:1050B000FFF7F9FF08BD704708B500F0C7FFFFF71D
:1050C000FAFFFA20002101F06DFEBDE8084001F072
:1050D0006BBE000073B50388ADF80430A14B1B789C
:1050E00006467BBB8378019843B301F0C9FBC4B289
:1050F0002146019801F082FB0199204600F04CF90D
:1051000031460546FFF7BEFF044600286BD045F642
:1051100016439D4200F00F813AD845F601439D4267
:1051200064D015D8B5F5B84F58D08F4B01221A70FE
:105130005A703046FFF7A4FF044654E001F082FBAA
:105140000446D9E7019801F09BFB0199C0B2D5E76D
:1051500045F614439D42E8D8B378002BE9D001F01E
:1051600091FC08B901F0EEFC01F0A4FCA5F5B845EE
:105170007E4B033D1880112D44D8DFE805F04D51DA
:1051800055595D6165696D7175797D8185898D91EF
:1051900045F6D7439D4200F09C8011D845F6D64392
:1051A0009D42C2D1B478704D002C00F08180002463
:1051B0002C7001F0BDFD6880022000F001FD12E0BE
:1051C00045F6D8439D4200F0A08045F6DD439D4260
:1051D000ABD1B4783CB101F0B5FC03E0B47814B1C4
:1051E000FFF76AFF0024204602B070BDB478002C9F
:1051F000F9D05F4A5F48137843F00103137001F060
:1052000033FEEFE71A7842F001021A70187801F0C5
:1052100054FC00F01BFFE5E71A7842F00202F4E7C5
:105220001A7842F00402F0E71A7842F00802ECE73C
:105230001A7842F01002E8E71A7842F02002E4E718
:105240001A7842F04002E0E71A7842F08002DCE788
:105250001A7842F00C02D8E71A786FF30002D4E70C
:105260001A786FF34102D0E71A786FF38202CCE725
:105270001A786FF3C302C8E71A786FF30412C4E711
:105280001A786FF34512C0E71A786FF38612BCE7FD
:105290001A786FF3C712B8E71A7802F0FB02E8E752
:1052A0001A78C2F3C01181F0010161F3C712ACE7B3
:1052B0002B7853B9688801F049FDC72805D8262006
:1052C00000F098FB262000F03FFC022000F081FC5B
:1052D00089E7B3783BB1244D00246C7001F028FDC0
:1052E000A880202069E7204B5A7852B9988801F0AD
:1052F0002DFDC72805D8272000F07CFB272000F0D3
:1053000023FC202000F065FC6CE7B378002BE2D191
:10531000154B5C78002CF4D1988801F017FDC72854
:10532000EFD8202000F055FC282000F063FB282057
:1053300000F00AFC57E701F04BFBB1780A4A0E4B2C
:10534000E1B100F0AA00002814BF012100219171F1
:10535000186814BF3521292101F06CFC01F012FB03
:1053600040E700BF70300020543000201A37002082
:1053700025310020DD130100840E00209279186889
:10538000002A14BF3521292101F06EFCE6E700BF99
:105390000020704770470000C1F307220B2303FB76
:1053A0000020C00050FA81F0024B33F8100082B0A8
:1053B00002B0704760100100014B33F810007047D5
:1053C0006010010013B5ADF804100199FFF7E4FF78
:1053D00000F058F9B0F5A04F044630D2B0F5804F38
:1053E00080F0D680E72816D8E02879D2A72808D8F8
:1053F000A5286BD2012873D001D3042870D20024D1
:105400006EE0BE286FD9C028F9D3C03880B2FFF74C
:10541000D3FF044664E0B0F5005F09D2B0F5807FA9
:1054200080F0AA80F028EAD340F4A044A4B257E068
:10543000B0F5405F80F0A380C0F30B00E7E7B0F564
:10544000AA4F1ED2B0F5A84FC3B280F0C080B0F50D
:10545000A44F08D2B0F5A24FC0F09F804AF2F100ED
:1054600040EA03243CE0B0F5A64F80F0A6809808FF
:10547000012403F003039C4044EA401444F40C4428
:10548000D4E7B0F5B24F0CD2B0F5B04F80F0A480A5
:10549000B0F5AC4FB3D2040204F4F85444F4005411
:1054A0001EE0B0F5B44FC0F09C80A0F5C043B3F54A
:1054B000005FA4D2C0F3042000F050F9E4B200026F
:1054C00044F4005400F4F850044309E000F09480E0
:1054D00044F2820344F28302A62814BF14461C46F9
:1054E000204602B010BDA82800F08980A92800F04D
:1054F0008980AA2800F08980AB2800F08980AC2838
:1055000000F08980BB2800F08980BC2800F08980E9
:10551000AD2800F08980B02800F08980AE2800F026
:105520008980AF2800F08980B12800F08980B228F6
:1055300000F08980B32800F08980B42800F08980C9
:10554000B52800F08980B62800F08980B72800F0DF
:105550008980B82800F08980B92800F08980BD28AA
:1055600000F08980BE2800F08980BA2844F22A64BD
:1055700018BF4FF48844B3E7C0F30C04B0E710F44D
:10558000006FC4B214BF44F4484444F44044A7E755
:10559000C0F30B0444F42044A2E703F00302012407
:1055A0009440C0F3011044F40C4444EA0024C3F3D3
:1055B000810344EA43139CB292E79808012403F064
:1055C00003039C4044EA401444F40A442EE74AF2A0
:1055D000F40444EA032483E74AF2F00040EA042496
:1055E00024E700F00F0343F4204343F0E003C0F34B
:1055F000031443EA042473E744F2810470E744F29D
:10560000E2446DE744F2E9446AE744F2EA4467E7BA
:1056100044F2B54464E744F2B64461E744F2B3446B
:105620005EE744F2B4445BE744F2B74458E744F21F
:10563000CC4455E744F2CD4452E744F283544FE75B
:1056400044F28A544CE744F2925449E744F29454A9
:1056500046E744F2216443E744F2236440E744F21E
:1056600024643DE744F225643AE744F2266437E7D0
:1056700044F2276434E744F26F4431E744F2704463
:105680002EE7000082281AD00CD8312854D004D834
:1056900029284AD02A2856D0704735283ED03928A4
:1056A0000DD07047E32823D004D8E0280ED0E2289C
:1056B00013D07047E62822D0E72829D07047264B20
:1056C0001B7813F0030F18BFE0207047224B1B78A4
:1056D00013F0010F18BF392070471F4B1B78590773
:1056E0001BD513F0100F08BFE32018BF0020704730
:1056F000194B1B785A072DD413F0100FF5E7164BF2
:105700001B78190709D513F0100F08BFE720ECE745
:10571000114B1B781A07EFD5E62070470E4B1B780C
:1057200013F0200F18BF292070470B4B1B7813F084
:10573000200F18BF35207047074B1B7813F0400F20
:1057400018BF2A207047044B1B7813F0400F18BF76
:1057500031207047E22070471A370020164B1B7823
:10576000590707D500F01802082A12D100F0F700F7
:1057700040F004001A0707D500F01802182A11D1CA
:1057800000F0E70040F01400DB0648BF00F0E7003F
:10579000704700F01402042A04BF00F0FB0040F040
:1057A0000800E7E700F01402142A04BF00F0EB0041
:1057B00040F01800E8E700BF1A370020014B1860DE
:1057C000704700BF5C300020024B186808B10368C6
:1057D000184770475C300020F8B5124B1B68044630
:1057E000FBB1114D5B6898472B78580719D5D9073D
:1057F00002D50E4801F038FB0D4F04F108062B7856
:10580000DA0703D52178384601F02EFB0134B44283
:10581000F5D12B78DB0704D50648BDE8F84001F048
:1058200023BBF8BD5C30002025310020EE130100C1
:105830000014010034150100024B1B680BB19B687A
:10584000184770475C300020044B9988814204D08F
:1058500098801B680BB1DB68184770475C300020EC
:10586000044BD988814204D0D8801B680BB11B69D6
:10587000184770475C300020704708B5FFF7FCFF01
:1058800008BD0120704708B501F08AFAFEF728FD2F
:10589000BDE8084001F08CBB38B50E4C23780546B6
:1058A000580711D5D90702D50B4801F0DDFA237846
:1058B000DA0703D52946094801F0D6FA2378DB0731
:1058C00002D5074801F0D0FA2846BDE83840FFF776
:1058D000EEBB00BF253100200614010019140100A1
:1058E000341501002DE9F04385B0FEF75DFDFFF7AB
:1058F000C8FF324E08BBFF238DF808308DF8093001
:1059000000238DF80A3001F013FA40F00100ADF8E1
:105910000C0004AB13E9030000F054F801F012FE90
:10592000FFF752FFF37A834244D0FFF74DFFF07246
:1059300005B0BDE8F043FFF7AFBFDFF88480002477
:10594000E7B23846FEF7BEFD355DA842814603D179
:1059500001340B2CF4D1CEE798F80030980701D52C
:10596000FEF7B6FD89EA05050023EDB245FA03F11D
:10597000C907DAB21AD501259D4019EA050F14BFEF
:10598000012300238DF802308DF800208DF801707E
:1059900001F0CEF940F00100ADF804009DE80300ED
:1059A00000F010F8335D6B403355B7E70133082B37
:1059B000DCD1CDE705B0BDE8F08300BF6430002046
:1059C000253100201FB58DE80300002103919DE8DB
:1059D000030002AA0290ADF80C1092E8030000F058
:1059E000C5FD05B05DF804FB08B5008800F066FF52
:1059F00008BD000008B50146002800F0A280031F82
:105A0000DBB2A02B07D84F4B186801F013F9BDE8A3
:105A1000084000F0B7BF00F12003DBB2072B07D826
:105A200000F0070101208840C0B200F0D7FFEEE788
:105A300000F15B03DBB2022B0BD8A52807D0A62808
:105A40000CBF82208320BDE80840FFF7FDBE812007
:105A5000F9E700F15803DBB2162B6AD8A82832D038
:105A6000A92832D0AA2832D0AB2832D0AC2832D0E4
:105A7000BB2832D0BC2832D0AD2832D0B02832D0AA
:105A8000AE2832D0AF2832D0B12833D0B22834D0AB
:105A9000B32835D0B42836D0B52837D0B62838D07A
:105AA000B72839D0B8283AD0B9283BD0BD283CD047
:105AB000BE283CD0BA2840F22A2018BF0020BDE8FA
:105AC0000840FFF7CDBEE220F9E7E920F7E7EA203A
:105AD000F5E7B520F3E7B620F1E7B320EFE7B42010
:105AE000EDE7B720EBE7CC20E9E7CD20E7E740F290
:105AF0008310E4E74FF4C570E1E74FF4C970DEE7C7
:105B00004FF4CA70DBE740F22120D8E740F22320AF
:105B1000D5E74FF40970D2E740F22520CFE740F2F5
:105B20002620CCE740F22720C9E76F20C7E7702086
:105B3000C5E7EF2805D901F0B3FBBDE8084001F047
:105B4000A3BC08BD840E002008B50146A0B3031F06
:105B5000DBB2A02B07D8194B186801F085F8BDE817
:105B6000084000F00FBF00F12003DBB2072B07D87D
:105B700000F0070101208840C0B200F037FFEEE7D7
:105B800000F15B03DBB2022B04D80020BDE8084023
:105B9000FFF75ABE00F15803DBB2162B04D80020E1
:105BA000BDE80840FFF75CBEEF2805D901F0EAFB2D
:105BB000BDE8084001F068BC08BD00BF840E0020AD
:105BC00008B528B100F00AFFBDE8084000F0DABED1
:105BD00008BD08B528B100F009FFBDE8084000F095
:105BE000D1BE08BD2DE9F04790F806A0857807469C
:105BF0000C464FEA1A1A0DB100F016FF00F0B8FE7D
:105C0000804670B125B304F12003DBB2072B1FD906
:105C1000022000F099FE00F0ABFE80F001005FFA78
:105C200080F8C4F30339B9F10F0F42D8DFE819F057
:105C300013001300490049009600B70041004100DD
:105C4000EB00410042014201A90141004100C701AE
:105C50004FF00008E5E7C4F3072313F0F00F16BF79
:105C60002609C4F3032606F0F006E4B295B156B156
:105C700004F12003DBB2072B304600D93CB900F019
:105C8000ADFE00F07FFE2046FFF7B4FE11E000F00D
:105C9000BBFEF6E72046FFF757FF56B104F120039D
:105CA000DBB2072B304600D944B900F09FFE00F06C
:105CB00069FEB9F10B0F00F26C8154E000F0ACFE0C
:105CC000F5E7C4F3072303F0F003202B18BF2609E0
:105CD000E0B20CBFC4F3032606F0F00660B1012861
:105CE0002CD0ADB3BAF1000F2CD0BB79D907CBD5EE
:105CF0006FF30713BB7125E09DB1BAF1000F06D118
:105D000000F0BAFE3043C0B2FFF75AFFD1E7BAF154
:105D1000010FF5D100F0B0FE3043C0B200F0A0FE9C
:105D2000C7E7BAF1000F05D100F0A0FE3046FFF73B
:105D300050FFBEE7BAF1010FF6D1BAE725B1BAF1CB
:105D4000050FB6D83046DFE7BAF1040FB1D8EDE75A
:105D5000BAF1000FEAD0FFF7F7FEAAE7C4F38123F8
:105D60006BB1012B13D0012303FA09F919F4506F19
:105D700000F00F81FFF728FDFFF799F909E125B140
:105D8000C4F30900FFF760FDEDE72846FAE725B107
:105D9000C4F30900FFF764FDE5E72846FAE7E0B23F
:105DA000CDB1F5280DD0F62810D0F42804D1884ABA
:105DB000136843F00103136001F072FA01F064FB11
:105DC000D1E7834A136843F00203F4E7804A13687B
:105DD00043F00403EFE7F5280BD0F6280ED0F428A3
:105DE00004D17B4A136823F00103136001F0CAFA5F
:105DF000E4E7774A136823F00203F6E7744A13686E
:105E000023F00403F1E714F4407F26D1002DB1D133
:105E1000C4F342108000E206C3B204F00F0000FA9F
:105E200003F644BF0F209840C4F381244CBFC04305
:105E30002846022C07D00AD8012C40EA060009D0D7
:105E400000F07AFC8FE7304300F07EFC8BE700F037
:105E500073FC304600F068FC85E7F5B1C4F300231D
:105E6000002B87D0C4F342108000C3B204F00F00AF
:105E700000FA03F514F010001CBF0F209840C4F383
:105E8000812418BFC043022C0AD00DD8012C40EA4F
:105E900005000CD000F0A0FC65E7C4F34023DFE769
:105EA000284300F0A1FC5EE700F096FC284600F0D5
:105EB0008BFC58E7E6B2A6F1E003142B50D8DFE8DC
:105EC00003F00B0B0B0B0B0B0B0B0B0B0B0B0B0B45
:105ED0000B0B16232930390006F00F06C4F30420FB
:105EE00015B100F051FC2DE700F058FC1EE745B15C
:105EF000BAF1040F3FF6DDAEC4F3042000F05AFC03
:105F0000D7E6BAF1050FF5E735B1C4F3042000F088
:105F10003BFCCEE6002DF8D0C4F3042000F03EFC9C
:105F2000C7E625B1C4F3042000F029FCC1E600F067
:105F300023FCBEE64DB1C4F30424204600F024FC4B
:105F40000321204600F0F8FCB3E6012000F0FCFC41
:105F5000BAF1010F7FF6ADAE022000F0F5FCA8E625
:105F600025B1BAF1000FD0D030468DE6BAF1000F5E
:105F7000D2D0392E03D15020002100F013FF30463B
:105F8000E9E6C4F30322E1B23846FFF701FA00F074
:105F900059FBB8F1000F19D000F0C6FC10F0010059
:105FA00014D1B87000F0B8FC00F0EEFB384600F0F9
:105FB00011F800F0B1FCBDE8F04700F0EFBBC4F30E
:105FC0000322E1B23846FFF7E5F9E2E7BDE8F087E2
:105FD0005C55002037B583880288ADF8042004465C
:105FE000BBB1BDF804304FF6FF729A1A53425341C9
:105FF0007BB9FFF76FF860B12188A07800F06CFCE6
:10600000054600F0F9FB00F078FB29462046FFF733
:10601000E9FD03B030BD000008B500F005FD00F05B
:1060200019FD094B186800F039FE00F0ABFC01F0D7
:1060300005FB01F029FA0020FFF706FC0020BDE86F
:106040000840FFF70DBC00BF840E002008B500F02B
:10605000D5FCBDE80840FFF7DFBF07B5ADF8040089
:10606000019800F02BFCC0F303330E3303F00F0252
:106070000D2A0CD80123934013F4105FC1B219D13B
:1060800040F20330184004D113F010030BD100206C
:106090000DE0F02902D003D8DF29F8D8012006E06E
:1060A000F429F4D1FAE7DF29F8D9F129F6D003B0C1
:1060B0005DF804FBC0F3C020F9E782B002AB03E94E
:1060C000030002B0704782B002AB03E9030002B0E4
:1060D0007047000038B5094D2C7895F84230A3423E
:1060E00000D138BD05EBC4030134D3F80200D3F866
:1060F0000610FFF7E8FF04F00704EEE77230002017
:10610000024B586C996CFFF7DEBF00BF7230002065
:10611000F7B5274B93F84A20120909D193F8462086
:1061200032B119784FF6FF7593F842208A4201D1B7
:1061300003B0F0BDB3F84820002A35D093F844608E
:1061400093F845708DF804608DF80570BDF8040073
:10615000A84229D0C8001C1894F803E0BE4523D1FA
:10616000A778B74220D12679F6B9E488944236BFA1
:10617000AA1AA21A1219C72ACCBF002201229AB168
:1061800093F84A20012161F3071283F84A2003445F
:1061900008481A7A61F307121A72FFF71BFF03B05F
:1061A000BDE8F040FFF796BF013101F00701BBE702
:1061B00072300020B63000202DE9F043C54C8FB07E
:1061C0000646B4F8487000680890B4F84400327885
:1061D000737896F80280B6F80490ADF8040008A928
:1061E000002F00F0308185B24FF6FF70854200F03D
:1061F0002A8194F84650002D00F025814F458ABF32
:10620000C71BA9EB07074F44C72FCCBF00270127A7
:10621000002F00F0C68094F84A10B4F8445011F0F2
:10622000F00F4FF6FF7076D185421DD08DF82020FB
:106230008DF821302846BDF82050854214D14546BE
:10624000B8F1000F10D1012363F3071184F84A104D
:10625000FFF756FFA048FFF7BDFE94F84A30B37130
:1062600028460FB0BDE8F0834546B9F1000F47D08E
:106270008DF81C208DF81D30BDF81C004FF6FF7105
:1062800088423DD0002D3ED1217894F842E07145FE
:106290000FD18DF820208DF82130089800F00EFBEA
:1062A000C0F30332C3B2032A1DD8DFE802F0131390
:1062B000212104EBC10090F803C09C4506D190F861
:1062C00002C0944502D100790028C9D1013101F002
:1062D0000701DCE710F4706F01D0002BC0D0203331
:1062E000DBB2072BBCD93046FFF774FE3D46B7E75B
:1062F00010F4706FF3D0B27912F0F00FEFD1AFE776
:10630000B8F1000FACD094F84A3043F0010384F8A0
:106310004A300025A4E7854217D08DF820208DF85B
:1063200021302846BDF8205085420ED1B8F1000F2B
:106330000BD1B1713046FFF74DFE33686364664A96
:1063400073685360FFF7DCFED0E78DF820208DF8EE
:1063500021300898FFF781FEF8B1B8F1000F1CD08A
:1063600094F84A301F2B0DD9B4F84420ADF82820FA
:1063700000228DF82A20ADF82C908DF82E300AA836
:10638000FFF728FE3368544A636473685360FFF76D
:10639000BFFEFFF7B5FE012562E73046FFF71AFEA4
:1063A000F9E794F84A0010F0F00F13D18DF820208F
:1063B0008DF821308DF82280ADF82490464D03C928
:1063C000FFF77BFE2846FFF705FE67646F60FFF767
:1063D00097FE9EE7B4F844704FF6FF718F4215D0D8
:1063E0008DF820208DF821303946BDF820708F427D
:1063F0000CD1B8F1000F09D1B0713046FFF7EAFDBA
:10640000354BC4F84480C3F8048029E78DF8202078
:106410008DF821300898FFF720FE0028BDD0B8F194
:10642000000FBAD094F84A301F2BABD9B4F84420EF
:10643000ADF8302000228DF83220ADF834908DF880
:1064400036300CA89CE7B4F84400ADF81400002FD7
:1064500070D080B24FF6FF75A8426BD094F846001A
:10646000002867D14F4539D8A9EB0707C72FCCBF04
:1064700000250125002D4ED04546002D8DD0B4F8C5
:1064800044004FF6FF71884231D08DF820208DF8FE
:1064900021300146BDF82000884228D194F84A30C6
:1064A0000D4F13F0010F1DD11A091BD01A090F2A25
:1064B00018BF0132B3711CBF62F30713B3713046CA
:1064C000FFF788FD3368636473687B60FFF718FE2D
:1064D000C6E600BF72300020B6300020ED1B4D44F0
:1064E000C72DC4E73368636473687B60B8E68DF8D2
:1064F00020208DF821300898FFF7AFFD00287FF4A9
:1065000041AF94F84A30304643F0010384F84A30F2
:10651000FFF760FDA4E68DF821308DF82280ADF8FC
:1065200024908DF8202003C9FFF7C7FD0E4B65644A
:106530005D60CBE7B8F1000F3FF42FAF8DF820205E
:106540008DF821300898FFF788FD054600283FF4B4
:1065500024AF33680448636473684360FFF744FA08
:10656000FFF7D6FDB2E700BFB630002070B586B0A9
:106570008DE803006846FFF71FFE304C0646B8B1B1
:10658000BDF80430BDF80020ADF8082043B192B248
:106590004FF6FF739A4203D09DE80300FFF793FD87
:1065A000274D207894F84230834227D106B070BD41
:1065B0009DE8030004AB83E80300BDF80420BDF8A8
:1065C0001010ADF80C10002AEAD089B24FF6FF7215
:1065D0009142E5D094F842202178551C05F007053A
:1065E0008D4220D003CB04EBC20284F84250C2F8A3
:1065F0000200C2F80610FFF76DFDD1E705EBC00001
:10660000FFF7DAFD0028D1D0237804EBC303D3F8D9
:106610000200D3F80610FFF756FD2378013303F08C
:1066200007032370BDE7FFF711FD234684F842609E
:1066300003F8446B66645E60B8E700BF7230002008
:1066400074300020F8B50346002855D000250126F7
:106650001878732803F1010406D8042820D20128F1
:106660000AD002281FD0F8BD752836D02AD3A0F151
:1066700084036F2B34D9F8BD9C1C5B7803F1200296
:10668000D2B2072A0BD803F007039840C0B200F03B
:10669000D1F900F077F92F463FBB2346D8E71846DB
:1066A000FFF7A8F9F7E758789C1C00F12003DBB24C
:1066B000072B17D800F0070006FA00F0C0B200F070
:1066C000C1F9E6E75F789C1C002FE4D0012000218F
:1066D000013F00F067FBFFB2F6E79C1C5D78DAE74C
:1066E00000F07F00FFF730FAD5E701200021013FDD
:1066F00000F058FBFFB2CFE7F8BD70477047FFF7D7
:10670000FDBF08B5FFF7FBFF08BD000008B5FFF7A8
:10671000F8FF034B1860BDE80840FFF77DBC00BFE1
:10672000C0300020FFF7F2BF024B1B681843FFF791
:10673000EDBF00BFC0300020024B1B681840FFF7C0
:10674000E5BF00BFC0300020024B1B685840FFF778
:10675000DDBF00BFC030002008B5FFF7CFFF08BD88
:1067600008B5FFF7F9FF034B5860BDE80840FFF795
:1067700053BC00BFC03000200020FFF7F1BF012351
:1067800003FA00F0FFF7ECBF012303FA00F0024B1D
:106790005B681843FFF7E4BFC0300020012303FA11
:1067A00000F0034B5B6823EA0000FFF7D9BF00BF8E
:1067B000C0300020012303FA00F0024B5B68584010
:1067C000FFF7CEBFC0300020024B5B681843FFF7D5
:1067D000C7BF00BFC0300020024B5B681840FFF706
:1067E000BFBF00BFC0300020024B5B685840FFF7BE
:1067F000B7BF00BFC030002070470000C0F30723C0
:1068000000EBC30303F0FF0337B503F007020120D9
:106810009040DB080A4A03EB8303C0B21344002410
:106820005D7821FA04F242F300026A40024001342A
:106830006A40052C03F8012FF2D103B030BD00BF30
:10684000C7300020C0F3072313B500EBC30000F0EE
:10685000FF0000F007040949C00800EB8000002297
:10686000014410468B5CE34003F001039340013286
:106870001843052AC0B2F5D102B010BDC8300020BF
:1068800073B50D4BADF8040028CB1F241D4325FA2A
:1068900004F3DB0766B206D414F1FF34F7D2002606
:1068A000304602B070BD0199E0B2FEF78BFD80B2B8
:1068B0000128F1D0F4E700BFC030002007B5ADF8E3
:1068C00004000198FFF7DCFF0199C0B2FEF77AFDE2
:1068D00003B05DF804FB000013B50E4BADF80410D7
:1068E0001B7823B10198FFF7E9FF02B010BD60B13A
:1068F0000198FFF7C5FFC4B221460198FFF77EFF5C
:1069000001992046FEF75EFDEFE70198FFF79AFF39
:106910000446F5E770300020024B93F90100C0F304
:10692000C7007047FF300020024B587800F0070086
:10693000704700BFFF300020024B41EAC001597090
:10694000FFF722BFFF300020084A92F9013023EA06
:10695000000040B25070420706D1DBB2834203D040
:10696000C0F3C700FFF71ABF704700BFFF30002019
:10697000034B587810F0070018BF0120704700BF84
:10698000FF30002038B5104C104D2268A9781170E6
:106990002168E8780A7802430A70216828790A7821
:1069A00002430A7095F905204AB1236819780A4311
:1069B0001A70206800F0C8F808B100236B712068D5
:1069C000BDE83840FEF708BF840E0020FF300020ED
:1069D000014B9878704700BFFF300020024A93783F
:1069E00018439070704700BFFF300020024A937830
:1069F00023EA000090707047FF300020014B002216
:106A00009A707047FF300020024AD3781843D07044
:106A1000704700BFFF300020024AD37823EA00000D
:106A2000D0707047FF300020014B0022DA707047B1
:106A3000FF300020024A137918431071704700BFDD
:106A4000FF300020024A137923EA000010717047DA
:106A5000FF300020014B00221A717047FF300020E8
:106A6000014B5871704700BFFF300020014B0022DE
:106A70005A717047FF300020014B5879704700BFB2
:106A8000FF30002008B5002000F03CFA4FF6ED631F
:106A9000C31A5842584108BD022000F02DBA0146E1
:106AA000022000F039BA032000F026BA0146032084
:106AB00000F032BA042000F01FBA0146042000F0B2
:106AC0002BBA01460F2000F035BA0146132000F022
:106AD00031BA0020FFF7F9BF08B50020FFF7F1FF3A
:106AE000FFF7F7FF08BD000010B54FF6ED6100207D
:106AF00000F018FA0021022000F00EFA0021032015
:106B0000002400F009FA0E4B214604201C6000F01E
:106B100003FA2146052000F0FFF92146062000F087
:106B2000FBF9FF21072000F0F7F92146082000F0CB
:106B300001FA21460D2000F0EFF9FFF7CDFF10BD5F
:106B4000C0300020FFF7D0BF0C4B1B78821C5BB11C
:106B50000B4B93F90030002B06DA421C1F23134421
:106B600000209A4202D170470623F8E712F8011B71
:106B70000029F6D00130C0B2F3E700BF6C2300203B
:106B80001A37002030B54FF0FF33851C002215F86E
:106B9000014B8C420CD0B3F1FF3F02D1002C08BF57
:106BA00013460132D4B2062C62B2F0D15A1C00D185
:106BB00030BD1844817030BD10B5831C00220830F0
:106BC0001C788C4208BF1A7001338342F8D110BD83
:106BD000CA081F2A08D0104401F007030121994078
:106BE0004378194341707047034B1B78DB0702D58C
:106BF000024800F039B97047253100201E14010009
:106C0000CA081F2A09D0104401F0070301229A4044
:106C1000437823EA020343707047044B1B78DB0779
:106C200002D5034800F020B9704700BF253100208D
:106C30003C14010010B40A4C247803460A4644B1BF
:106C4000084C94F90040002C03DA5DF8044BFFF780
:106C5000BFBF114618465DF8044BFFF793BF00BF56
:106C60006C2300201A37002010B40A4C2478034605
:106C70000A4644B1084C94F90040002C03DA5DF850
:106C8000044BFFF7BDBF114618465DF8044BFFF7F4
:106C900093BF00BF6C2300201A370020084B1B78DD
:106CA0004BB1084B93F90030002B04DA1F2200216E
:106CB000013006F033BA0023C0F80230C3807047B9
:106CC0006C2300201A3700207047FFF7FDBFFFF745
:106CD000FBBF10B5FFF7FBFFFDF766FBFFF7F5FF06
:106CE0000024E0B2FDF7EEFB18B901340B2CF8D10B
:106CF00010BD012010BDFFF7E7BF08B5FFF7FBFF90
:106D000008BD08B5002001F09BFDFFF7F6FF08BDA8
:106D100008B5FFF7D9FF08BD08B5044B1B7813B1C0
:106D2000012001F08DFDFFF7F3FF08BDD2590020CF
:106D3000024BD3E9000180B2704700BFE05500204C
:106D4000014BD3E900017047E055002030B5084BF6
:106D5000D3E90045A4B2A04204D8D3E90045201AE3
:106D600080B230BDD3E90023013A101AF8E700BF22
:106D7000E055002030B5054BD3E90045D3E90023A9
:106D8000A04288BF02F1FF32101A30BDE05500204A
:106D9000024B00200021C3E900017047E0550020AC
:106DA000FFF7F6BF01F074B870B5294B88B001AA9F
:106DB00003F11806154618685968144603C40833C9
:106DC000B3422246F7D11B88238042F29F13A3F5DA
:106DD00006521F3AAA5C52B313F8011F9142F6D033
:106DE0001C4B1A786FF341021A701A469168880793
:106DF000FCD41A78C2F34002002AFAD1597862F31F
:106E000007115970597862F303015970997862F348
:106E1000030199701A7842F002021A700D4B1A465B
:106E200099688907FCD413789B07FCD5FEE70A4BC9
:106E30000A4A43F8102CBFF34F8F0949094BCA681F
:106E400002F4E0621343CB60BFF34F8F00BFFDE756
:106E50005A140100002000400000022000CA9A3BA2
:106E600000ED00E00400FA050FB41F4B2DE9F347D5
:106E700098461A78002AFCD10BAB0A9A1B4801935A
:106E80004FF4007106F0D2F9184E194FDFF86490F4
:106E900004462025002C04DC02B0BDE8F04704B015
:106EA000704798F8003003F0FF01002BF9D1EFF3A1
:106EB000108A72B6BFF35F8F1F2C04DC2022384685
:106EC00006F02CF925462A463146384606F08CF85D
:106ED000012389F8003003F0C7FCBFF35F8F8AF30A
:106EE0001088641B2E44D5E76D5A002026310020FF
:106EF000705A0020645A0020014B185C704700BF94
:106F000026330020034BC218185C527840EA022056
:106F1000704700BF26330020014B1954704700BF53
:106F200026330020024B19541844090A4170704757
:106F300026330020044B195418440B0A43700B0CE1
:106F4000090E8370C1707047263300202DE9F3418C
:106F500000250746EEB23046FDF7B4FA002480461D
:106F600048FA04F2D207E3B209D40134082CF7D16D
:106F700001350B2DEED1002002B0BDE8F0818DF877
:106F800004308DF8056001990020FEF705FA87426C
:106F9000EBD10120F0E710B504462C20FFF7D6FF17
:106FA00020B12046BDE81040FFF7D0BF10BD000063
:106FB00010B5FFF767FD08B9FFF7C4FD8348FFF779
:106FC00053FF6524013C14F0FF0440F0D280804858
:106FD000FFF74AFF2920FFF7DEFF002840F0F4808A
:106FE0002A20FFF7D8FF08B1FFF7ACFD0520FFF717
:106FF000D2FF08B1FFF7D8FEFFF74EFD754C2070A9
:107000000720FFF7C8FF68B11B20FFF7C4FF002867
:1070100000F0B6802378C3F3400282F0010262F3ED
:107020004103237020786C4CFFF739FDFFF742FDD8
:107030002080E020FFF7AFFF38B12378C3F30002D0
:1070400082F0010262F3000323703920FFF7A3FFEF
:1070500038B12378C3F3400282F0010262F34103A6
:107060002370E220FFF797FF38B12378C3F3800243
:1070700082F0010262F382032370E620FFF78BFFA8
:1070800038B12378C3F3C00282F0010262F3C30374
:107090002370E320FFF77FFF38B12378C3F300129A
:1070A00082F0010262F3041323703520FFF773FFAF
:1070B00038B12378C3F3401282F0010262F3451322
:1070C00023703120FFF767FF38B12378C3F38012B4
:1070D00082F0010262F3861323701120FFF75BFF39
:1070E00038B12378C3F3C01282F0010262F3C713F0
:1070F00023702078FFF7E1FC2720FFF74CFF0446C0
:107100001E20FFF748FF10B144F00204E4B21F2034
:10711000FFF741FF10B144F00404E4B22020FFF770
:107120003AFF10B144F00804E4B22120FFF733FF26
:1071300010B144F01004E4B22220FFF72CFF10B18C
:1071400044F02004E4B22320FFF725FF10B144F0FF
:107150004004E4B22420FFF71EFF80B364F07F04F4
:10716000E4B22046FFF7A2FC2046BDE81040FFF73E
:10717000D9BAFDF719F90A200021FFF713FE21E71C
:107180000E20FFF708FF38B12378C3F3800282F0A6
:10719000010262F3820344E71020FFF7FCFE23782C
:1071A00030B1C3F3C00282F0010262F3C30338E7D7
:1071B000C3F3000282F0010262F3000331E7002C06
:1071C000CFD1FFF770FCD0E710BD00BF74140100F1
:1071D00089140100253100201A370020184A13783D
:1071E000D8070AD5174B187800EB8000C0F38F0042
:1071F0007F2823D800BB01207047990706D5114B83
:10720000187800EB8000C0F34F00F1E75B0704D56E
:107210000C4B187800EB8000EAE753785BB1094922
:107220004A789342F4D2087800EB8000584390FBF0
:10723000F2F080B2DCE70520C0B270477F207047D3
:1072400046330020880E0020134A1378D80705D54E
:10725000124B98788008E0B901207047990703D550
:107260000E4B98784008F6E75B0705D50B4B9878EE
:107270007F28F0D97F20704753784BB10749CA78EF
:107280009342F3D2887810FB03F090FBF2F0EFE723
:107290000120C0B2704700BF46330020880E002096
:1072A000F02808B505D1FFF799FF4042344B18711B
:1072B00008BDF12802D1FFF791FFF7E7F22805D1C9
:1072C000FFF78CFF40422E4BD87008BDF32802D147
:1072D000FFF784FFF7E7F92804D1FFF7B5FF284B44
:1072E000587108BDFA2803D1FFF7AEFF4042F6E718
:1072F000FB2805D1FFF7A8FF4042214B987108BD3C
:10730000FC2802D1FFF7A0FFF7E7F42805D11C4ABB
:10731000937843F00103937008BDF52804D1184A0F
:10732000937843F00203F6E7F62804D1144A9378E1
:1073300043F00403EFE7F72804D1114A937843F0B0
:107340000803E8E7F82804D10D4A937843F01003C6
:10735000E1E7FD2805D10A4A137843F001031370D1
:1073600008BDFE2804D1064A137843F00203F6E76D
:10737000FF28F5D1024A137843F00403EFE700BF7A
:1073800046330020F0283F4B13D193F90420002A04
:1073900001DA00221A7193F903204AB993F9042003
:1073A00032B993F905201AB993F9062002B95A7037
:1073B0007047F12804D193F90420002AE9DCEAE7B8
:1073C000F22806D193F90320002AE4DA0022DA70C9
:1073D000E1E7F32804D193F90320002AF6DCDAE789
:1073E000F92806D193F90520002AD4DD00225A712C
:1073F000D1E7FA2804D193F90520002ACBDAF5E782
:10740000FB2806D193F90620002AC4DA00229A71DB
:10741000C1E7FC2804D193F90620002AF6DCBAE77C
:10742000F42804D19A7822F001029A70B3E7F52883
:1074300003D19A7822F00202F7E7F62803D19A786E
:1074400022F00402F1E7F72803D19A7822F008022B
:10745000EBE7F82803D19A7822F01002E5E7FD283F
:1074600004D11A7822F001021A7094E7FE2803D1A1
:107470001A7822F00202F7E7FF288CD11A7822F05E
:107480000402F1E74633002010B5224B224C1B7852
:1074900013F0080F37D02148FFF7E6FCA178204809
:1074A000FFF7E2FC1F48FFF7DFFC94F903101E48CA
:1074B000FFF7DAFC1D48FFF7D7FC94F904101A48CF
:1074C000FFF7D2FC1948FFF7CFFC94F905101648D6
:1074D000FFF7CAFC1548FFF7C7FC94F906101248DD
:1074E000FFF7C2FC1248FFF7BFFC61781148FFF7B5
:1074F000BBFC1148FFF7B8FC0E482178FFF7B4FC3D
:107500000E48FFF7B1FC0E48FEF796F9FFF710FCA6
:10751000208110BD25310020463300209014010049
:1075200019140100B3140100B514010087140100FF
:10753000B8140100BB140100BE140100C014010006
:107540004833002010B53B4C2089FFF7FFFB6278E1
:10755000394B92B11B7983426BDC94F903308BB9C0
:1075600094F90410002961D194F9051000295DD126
:1075700094F90610002959D110BD5B7903EB830300
:107580005B00E8E7FF2A01D001326270002B02DDC8
:10759000FFF724FEE07094F90330002B03DAFFF7C5
:1075A0001DFE4042E07094F90430002B02DDFFF72D
:1075B00015FE207194F90430002B03DAFFF70EFE5C
:1075C0004042207194F9032072B194F9041059B12A
:1075D000B5235A43121203FB01F308BF01221B1209
:1075E00008BF0123E270237194F90530002B02DDFE
:1075F000FFF72AFE607194F90530002B03DAFFF7DC
:1076000023FE4042607194F90630002B02DDFFF743
:107610001BFEA07194F90630002B03DAFFF714FE6D
:107620004042A071BDE81040FFF72EBFFF2AABD14A
:10763000B9E710BD46330020880E0020034B00221E
:10764000C3F802209A715A701A70704746330020AE
:107650000C490D4A4F230B60136A43F080031362F9
:107660000A4BD3F82021012060F30302C3F8202144
:10767000D3F8202142F04002C3F8202150230B60B0
:10768000704700BFEC55002000080040001C00407F
:107690004F4A512313604F4B01200221C3F884004D
:1076A000C3F884100421C3F8841093F8B01060F379
:1076B000030183F8B01093F8B01060F3071183F85A
:1076C000B01093F8B11060F3030183F8B11093F890
:1076D000C010014383F8C01093F8C110014383F830
:1076E000C11093F8C210014383F8C2103A4B1988B5
:1076F000014319805220196BC9074AD4364B5320D5
:10770000198811F0010146D1188861F30A20188008
:10771000997A022060F3030199722F4B5420196B60
:1077200089063AD4997A11F00F0038D1997A60F32A
:1077300006119972284955200B6B9B0641D4CB7AD0
:107740002D2060F30503CB72234B5620196BC1F338
:107750008011002937D1B3F8480061F30200A3F883
:107760004800B3F8480061F30610A3F84800B3F8E6
:10777000480061F30A20A3F84800198841F002018B
:107780001980154957200B6B9B071ED45823136093
:1077900070471060AFE71060B2E71060BFE7987AFB
:1077A00000F00F000128C1D0987A00F00F000228E5
:1077B000BCD0987A00F00F000328B7D0997A042043
:1077C000B5E71060B8E71060C0E71060DBE700BF06
:1077D000EC55002000800041001C00430C4B9A88AF
:1077E00060F304029A801A6B5007FCD41A7D42F0B1
:1077F00002021A75064A1346116B0905FCD493F868
:107800002E20D207FBD5B3F8400080B2704700BFEE
:10781000001C004310B54B4A4B49322313604B4BBD
:107820000B600B680B624A4B58696FF3410058615B
:1078300058690D2464F317505861586940F40040AA
:1078400058615869052464F3CE205861586940F4A2
:10785000C060586158696FF3C7105861586940F0AB
:1078600004005861586940F00200586133241869D7
:10787000C0073AD53748086593F830006FF34100E8
:1078800083F83000324B3424D86B80072FD4986BA8
:10789000022464F347109863986B072464F31A403A
:1078A0009863586B2F2464F30C005863284B3520E1
:1078B000DC6BC4F38004E4B993F8300064F3C710C0
:1078C00083F8300093F8300040F0020083F8300075
:1078D0001F483624C36B9B070DD41D483724036C07
:1078E000DB070AD51A4C38200AE01460BFE71460A1
:1078F000CAE71060DCE71460ECE71460EFE71060A3
:10790000236C9B07FBD5086DA36B646BC3F30A4321
:10791000C4F30C0440080133B0FBF3F304FB03335E
:107920004B600D4B186A072464F303001862392476
:107930005868400704D44B680B623A23136010BDAB
:107940001460F5E7EC55002070550020006CDC0257
:10795000001000400024F400001C00402D4B2222A7
:1079600070B51A602C4A23255468C4F38B04002C8C
:1079700045D100F10804072652F8245066F30305A8
:1079800042F82450244D24266A68C2F38B02002A50
:1079900037D18000214D00F1804000F5E0506A6849
:1079A000B2FBF1F1C9B2418429461B4D25266A6814
:1079B000C2F38B023ABB55F8246062F30C36164AC8
:1079C00045F8246026265568C5F38B05EDB952F8B5
:1079D000245045F4807542F824500F4D27266A68DC
:1079E000C2F38B029AB94A68408C80B2B2FBF0F2C3
:1079F00041F8242028221A6051F8240070BD1D602F
:107A0000B2E71E60C0E71E60D1E71E60DBE71E60C4
:107A1000E5E700BFEC550020001C00407055002039
:107A2000204B214929221A602A204A68C2F38B027E
:107A3000002A2DD1486A62F303001B4A48622B20BA
:107A40005168C1F38B0129BB516AC0F20101516237
:107A500015492C204A68C2F38B02EAB9486A62F3DE
:107A60000C30114A48622D205168C1F38B01A9B92D
:107A7000516A41F4807151620B492E204A68C2F369
:107A80008B026AB9094A116D51622F221A60704740
:107A90001860CAE71860D3E71860DBE71860E3E70F
:107AA0001860EBE7EC550020001C004070550020EA
:107AB0001D4B1E4A00210020C3E900013023136042
:107AC0001B4B19686FF3410119601969C1F340013B
:107AD0000029FAD1174B186861F341001860196941
:107AE000C1F340010029FAD1114B99821969C1F300
:107AF00000110029FAD10F4B59611969C906FCD44C
:107B0000196841F0020119600A490B699807FCD411
:107B1000074B196841F00201196019698907FCD403
:107B200031231360704700BFE0550020EC55002062
:107B30000014004200380040074B9A7AD20609D55B
:107B4000102206499A72D1E90023013243F1000361
:107B5000C1E90023704700BF00140042E055002037
:107B6000084B9A7AD1060BD510229A72064A012147
:107B700011701A686FF341021A601A699207FCD4F7
:107B8000704700BF00180042D855002038B59D4C02
:107B90009D49092302202360FFF7E0FEFFF740FF25
:107BA0009A4AD36943F02003D361994BD3F8F81074
:107BB000022060F30301C3F8F810D3F8F81041F085
:107BC0004001C3F8F810D16941F04001D161D3F808
:107BD000F82060F30302C3F8F820D3F8F82042F04D
:107BE0004002C3F8F8200D2323608A4B1A686FF314
:107BF00041021A600E211A69920700F1EA801A68A0
:107C000042F001021A60834A0F211369DB0700F179
:107C1000E280804B10211A68D50700F1DE80052232
:107C20001A717C4B11211A69500700F1D88040F27B
:107C3000E7329A83774B12211A69C2F38012002A25
:107C400040F0CF80197B012060F301011973D988BE
:107C500041F48051D98070494FF40040C860597A8E
:107C600041F01001597213232360142323606B4BDE
:107C7000196862F34101196015211A69920700F130
:107C8000B2801A6842F001021A60644A1621136930
:107C9000DD0700F1AA80614B17211A68D00700F1B7
:107CA000A68005221A715D4B18211A69C2F3800261
:107CB000002A40F09E80197B012060F301011973B6
:107CC000D98841F48051D98053494FF48030C8603D
:107CD000597A41F0100159724C49192323604B69BC
:107CE00043F480434B614A4BD3F8A400022565F36B
:107CF0000300C3F8A400D3F8A40040F04000C3F888
:107D0000A400486940F400404861D3F8A41065F32A
:107D10000301C3F8A410D3F8A41041F04001C3F844
:107D2000A4101A2323603E4B196862F341011960C5
:107D30001B211A6992075ED41A6842F001021A6088
:107D4000374A1C211369DB0757D4354B1D221D68A8
:107D500015F0010553D11968022262F383011960FD
:107D6000D98841F02001D980D98862F30201D980F5
:107D70001E23236025491F2323608B6943F0800362
:107D80008B61234BD3F8AC1062F30301C3F8AC1042
:107D9000D3F8AC2042F04002C3F8AC20214B0121C3
:107DA000C3F8D0111A6A61F38B221A621A6A65F35A
:107DB00009221A621A6A562161F306021A62202306
:107DC0002360FFF775FEFFF743FC2123236028465D
:107DD00038BD21600FE7216017E721601BE72160B4
:107DE00021E7216028E7216047E721604FE7216014
:107DF00053E7216059E721609BE72160A2E72260F9
:107E0000A5E700BFEC55002040420F0000080040ED
:107E1000001C00400014004200E100E00018004295
:107E20000038004000E00041014BD3E900017047F9
:107E3000E055002010B5144A144B002111701C6845
:107E400014F0020F144614D109281AD90A3880B246
:107E50000E4B98831A695206FCD41A6842F002024B
:107E60001A600A4A13699B07FCD42378002BFCD0C4
:107E700010BD1A6861F341021A601A699107FCD4B7
:107E8000E2E70020E4E700BFD855002000180042D8
:107E900030B5074BD3E90045001941F10001D3E9A2
:107EA000004500258D4208BF8442F8D330BD00BF95
:107EB000E0550020032813D8DFE800F002080D1376
:107EC0000A4A536943F4805353617047074A536920
:107ED00043F40053F8E7054A936943F40073936150
:107EE0007047024A936943F48063F8E70008004052
:107EF000F8B51E4F1E4E072356F820503B6004462F
:107F0000FFF7D8FF06441B4A337E203352F8230084
:107F10006FF3030042F8230052F8230040F04000C2
:107F200042F823002B6843F001032B603846EB69CD
:107F3000DA07FCD42B68DB07FCD40F4A136A5B0812
:107F4000B3FBF1F10139C9B22973136A297B0234F9
:107F5000013102EB84045B08B3FBF1F35365536D0D
:107F6000636008230360506DF8BD00BFEC5500202E
:107F7000C4140100001C004070550020F8B5204FCB
:107F8000204E052356F820503B600446FFF792FF31
:107F900006441D4A337E203352F823006FF303005A
:107FA00042F8230052F8230040F0400042F823003A
:107FB0002B6843F001032B603846EB69DA07FCD4E9
:107FC0002B68DB07FCD4114A136A5B08B3FBF1F1A1
:107FD000EB680139C9B261F30703EB60136AE96822
:107FE0000234C9B2013102EB84045B08B3FBF1F344
:107FF0009365936D636006230360906DF8BD00BFC9
:10800000EC550020C4140100001C004070550020F5
:10801000F8B5204F204E032356F820503B6004460D
:10802000FFF748FF06441D4A337E203352F82300F1
:108030006FF3030042F8230052F8230040F04000A1
:1080400042F823002B6843F001032B603846EB69AC
:10805000DA07FCD42B68DB07FCD4114A136A5B08EF
:10806000B3FBF1F1EB680A39C9B261F30703EB60C6
:10807000136AE9680234C9B20A3102EB84045B086E
:10808000B3FBF1F3D365D36D636004230360D06D5C
:10809000F8BD00BFEC550020C4140100001C0040D6
:1080A0007055002010B5074C0748012368220021B5
:1080B000236005F033F8FFF7ADFBFFF767FD022300
:1080C000236010BDEC5500207055002009282DE9D3
:1080D000F0475ED963285ED9B0F57A7F5DD342F26E
:1080E0000F7398425BD94C4B98425AD94B4B9842EC
:1080F00059D94B4B984258D94A4B984257D94A4A7A
:10810000904294BF08220922484F494BDFF8308142
:10811000DFF830E1DFF83091464D4FF00A0C14469D
:10812000012614F1FF3444D2B0FBF6F406FB140030
:10813000002C51D14FF000643C601D601C68002C85
:108140003AD14FF00064CEF800401D601C68002C4E
:1081500036D14FF000643C601D601C68002C33D1A8
:108160004FF00064CEF800401D601C68002C2FD139
:10817000314C1C601C68002C47D1013A52B2541C8F
:10818000CDD121B12D4A1A601A68002A40D1BDE82C
:10819000F0870022B8E70122B6E70222B4E7032203
:1081A000B2E70422B0E70522AEE70622ACE70722D9
:1081B000AAE70CFB06F6B4E71C68013C1C60BDE7AF
:1081C0001C68013C1C60C1E71C68013C1C60C4E7E2
:1081D0001C68013C1C60C8E74FF0006AC7F800A0AB
:1081E000C3F800801E6846B9CEF800A0C3F800901E
:1081F0001E6836B9013CF1D1BAE71E68013E1E6027
:10820000F0E71E68013E1E60F2E71C68013CB0E723
:108210001A68013AB7E700BF9F8601003F420F008E
:108220007F969800FFE0F505FFC99A3B1880004152
:10823000E855002090D0030060E31600808D5B00BD
:1082400040420F001480004120A1070008B5034CF4
:1082500020680121FFF73AFFFAE700BFEC55002044
:10826000214B00211960214B4FF00042C3F88420BC
:10827000C3F8982093F8DF2042F0020283F8DF2051
:1082800093F8DF2042F0040283F8DF2093F8DF2028
:1082900042F0010283F8DF2093F8BF2061F3071258
:1082A00083F8BF20124A536943F480635361114B32
:1082B0001A7842F001021A705A68D207FCD44FF4BF
:1082C00000429A611A611A6A022161F31E721A62EF
:1082D0001A780A431A70074A53689B07FCD4064B66
:1082E0004FF000621A607047EC550020008000419A
:1082F000000800400028004000E100E00C4B4FF077
:108300000062C3F88020BFF34F8FBFF36F8F094B1C
:108310001A786FF341021A705A68C2F34002002AB9
:10832000FAD1054B596962F38A215961704700BF40
:1083300000E100E0002800400008004010B5294C92
:108340002949592300202360FFF718FE274B93F893
:108350003420022161F3030283F8342093F834209F
:1083600061F3071283F8342093F8482042F00102A9
:1083700083F8482093F8492042F0010283F849200D
:108380001B4B1A68052161F384021A601A686FF3A7
:1083900019621A601A6842F080021A601A6842F084
:1083A00002021A605A202246D969890713D4598BD0
:1083B000012060F3051159830D495B20CB695B07F0
:1083C0000BD40B495C204B8BC3F30113012B06D15B
:1083D0005D23136010BD1060E6E71060EEE71060EB
:1083E000F1E700BFEC550020A086010000800041AD
:1083F00000300040084B5A6A60F30A025A62DA6998
:108400005107FCD41A7ED207FCD5034A538B5B0775
:10841000FCD40120704700BF00300040104B5A8B45
:10842000110607D41A7ED20704D45A8BC2F3011264
:10843000012A14D05A6842F440325A60084A13465E
:10844000D1694807FCD45A8B1106FCD41A7ED20796
:10845000FCD4034A538BC3F30113012BFAD17047A9
:108460000030004038B50D461446B2B1FFF7C2FFE8
:108470000B4A013C6B1E15FA84F1104613F8014FAC
:108480009462047EE507FCD5448B6407FCD48B42E0
:10849000F4D1FFF7C3FF012038BD104638BD00BF3F
:1084A0000030004010B52F4C2F495E23012023607F
:1084B000FFF7AEFD2D4B93F83820022161F3030244
:1084C00083F8382093F8382061F3071283F83820B6
:1084D00093F8502042F0010283F8502093F8512085
:1084E00042F0010283F85120214B1A68052161F303
:1084F00084021A601A68012161F319621A601A680D
:1085000042F080021A605A6842F480725A60194A36
:108510004FF4802151609A7D42F080029A751A686A
:1085200042F002021A605F202246D969890713D4FB
:10853000598B012060F3051159830D496020CB69E7
:108540005B070BD40A4961204B8BC3F30113012B4A
:1085500006D16223136010BD1060E6E71060EEE7FD
:108560001060F1E7EC550020A0D908000080004120
:108570000034004000E100E0084B5A6A60F30A0250
:108580005A62DA695107FCD41A7ED207FCD5034A35
:10859000538B5B07FCD40120704700BF00340040C0
:1085A000104B5A8B110607D41A7ED20704D45A8B6B
:1085B000C2F30112012A14D05A6842F440325A60C0
:1085C000084A1346D1694807FCD45A8B1106FCD4DB
:1085D0001A7ED207FCD4034A538BC3F30113012B39
:1085E000FAD170470034004038B50D461446B2B198
:1085F000FFF7C2FF0B4A013C6B1E15FA84F11046CF
:1086000013F8014F9462047EE507FCD5448B6407A0
:10861000FCD48B42F4D1FFF7C3FF012038BD1046D4
:1086200038BD00BF0034004013B5084B084C1B8810
:10863000ADF8043040F2E11358430222002301A9AF
:10864000205CFFF7D1FF02B010BD00BFE2140100B3
:108650000056002013B5FD238DF8043040F2E113DD
:108660005843054C8DF805100023022201A9205C17
:10867000FFF7BAFF02B010BD0056002013B50A4341
:108680008DF80520084A094C12788DF8062040F232
:10869000E11250430023032201A9205C8DF804302D
:1086A000FFF7A2FF02B010BDC759002000560020FE
:1086B00013B50F238DF8043040F2E1135843064CF4
:1086C0008DF805108DF806200023032201A9205CF7
:1086D000FFF78AFF02B010BD0056002010B51F4CF6
:1086E0001F4A65232360802313701E4A13701E4A9D
:1086F00000201370FFF798FF03210020FFF7AAFF67
:10870000002101220846FFF7B9FF0120FFF78CFF87
:1087100003210120FFF79EFF012210460021FFF7F1
:10872000ADFF0020FFF780FF03210020FFF792FF3D
:10873000052211460020FFF7BBFF0120FFF774FF61
:1087400003210120FFF786FF052211460120FFF7D4
:10875000AFFF66232360012010BD00BFEC55002051
:10876000C7590020E8590020C35900202F4967232A
:108770000B602F4B1A886FF341021A801A889207F8
:10878000FCD41A8842F001021A80294B1A8812F090
:108790000100FBD1274A5A63274A9A631A8892B28A
:1087A00042F470621A801A6C60F341021A64204A23
:1087B0001346106C8007FCD4106C40F0010010646C
:1087C0001A6C12F00102FBD1186C62F31D70186470
:1087D000186C62F31B6018641A6C022060F3155267
:1087E0001A641A6C072060F30E221A641A6C42F0A5
:1087F00040021A64114A4FF00040106093F84D2077
:1088000042F0020283F84D2093F84D2042F001021D
:1088100083F84D201A8842F002021A80044A138815
:108820009B07FCD568230B60704700BFEC55002008
:1088300000A00041E0360020D036002000E100E03A
:1088400010B5084C6923421E2360074B504250412B
:108850001A7860F304121A7001F05CF96A2323603D
:1088600010BD00BFEC550020105A002010B50C4C74
:10887000632300202360FFF7E3FF01200021FFF7BF
:1088800007FB084B1A786FF345121A7001F042F992
:1088900001200021FFF7FCFA64232360012010BDB2
:1088A000EC550020105A0020104B1A886FF34F32FD
:1088B0001A801A886FF30C321A801A886FF3CB2251
:1088C0001A801A8842F480621A801A886FF309228B
:1088D0001A801A886FF3C4021A801A886FF3420252
:1088E0001A801A8842F001021A807047E036002090
:1088F00008B5FFF7D9FF054B8AB25A800844044AED
:1089000058609A600022DA6008BD00BFE03600209F
:1089100028340040094A136C43F002031364084BE7
:1089200040F2E1125B885043064A1B04125C43F498
:1089300000531343044A5362704700BF00A0004134
:10894000E0360020005600200034004010B50446F8
:108950000648FE2303700221C5234370FFF7C8FFBA
:108960002046BDE81040FFF7D5BF00BF50330020C0
:1089700010B504460548FD23417002210370FFF73E
:10898000B7FF2046BDE81040FFF7C4BF50330020BA
:1089900010B50446064801230370064B02211B78DC
:1089A0004370FFF7A5FF2046BDE81040FFF7B2BFB8
:1089B00050330020C759002038B50B490B4B0446F3
:1089C000C12540F2E11000FB04112A46184604F0CC
:1089D0000BFB002229460270FFF78AFF2046BDE804
:1089E0003840FFF797BF00BF4C560020503300209F
:1089F0000E4A38B540F2E11303FB00230C4A04464B
:108A0000114603F1180053F8045B42F8045B8342FB
:108A1000F9D11B78137000230B7005481921FFF75B
:108A200067FF2046BDE83840FFF774BF01560020BD
:108A30005033002010B5084C6422002104F1FF00DF
:108A400004F06CFB054A002384F8633184F8643138
:108A5000137084F8653110BD50330020F0550020AC
:108A6000044B93F8630193F86431C31A5842584198
:108A7000704700BF50330020064B93F8640193F811
:108A800063316422C01A90FBF2F302FB1300C0B200
:108A9000704700BF5033002008B5FFF7EDFFC0F16D
:108AA0006300C0B208BD0000074A92F86431D118D3
:108AB000013381F8FF00642093FBF0F100FB1133D8
:108AC00082F86431704700BF50330020054991F8A7
:108AD00063316420013393FBF0F200FB123381F821
:108AE000633170475033002008B50146FFF7D4FFCB
:108AF00088420D4A11D292F865310133DBB2632B03
:108B000082F865310DD9094B4FF000621A60FFF70A
:108B10002DFEFFF78FFF012008BD002382F865318D
:108B2000F9E7002008BD00BF503300201880004145
:108B300038B5FFF795FF2B4B10B10020187038BDEA
:108B40001A780120A2B9284C187094F86331234494
:108B500093F8FF30652B0CD1FFF7B8FF94F8633121
:108B60001C4494F8FF00FFF7F1FEFFF7AFFF012070
:108B700038BD662B11D1FFF7A9FF94F86331234468
:108B800093F8FF50FFF7A2FF94F863311C44284686
:108B900094F8FF10FFF7ECFEE7E7672B09D1FFF72A
:108BA00095FF94F863311C4494F8FF00FFF704FF2D
:108BB000DBE7682B09D1FFF789FF94F863311C4488
:108BC00094F8FF00FFF7E4FECFE7692BCDD1FFF764
:108BD0007DFF94F863311C4494F8FF00FFF708FF11
:108BE000C3E700BFF055002050330020034B1A7E2E
:108BF000D2091CBF80221A76704700BF00340040A3
:108C000008B50C4B93F84E2091070BD5022283F840
:108C10004E20FFF7C5FC084B00221A70BDE8084043
:108C2000FFF786BF93F84E20D20744BF012283F896
:108C30004E2008BD00A00041F055002038B53A4B49
:108C40003A4A1978A9B13A4B1B781370394B3A4C10
:108C5000188840F6970398420DD80020FFF7F0FDE2
:108C600014232370354B00221A70354B01221A70E1
:108C700038BD344BE8E72078012802D9013820704C
:108C800038BD07D1FFF7DCFD2F4801F05FFB002363
:108C9000237038BD2A4B1878284B98B12B48008890
:108CA000B0F51B6F26D340F6EC15A84203D91D780A
:108CB000107885420AD31878127890421AD8002387
:108CC000637038BD187812789042F7D21A78C2F1E2
:108CD000A501012902DCA5221A70F0E70232FBE7A8
:108CE000023AD2B21A7001294FF0000363701AD110
:108CF0000F4BBCE71A78012AF2D800251D70144BDF
:108D00001B78012B0FD163780133DBB2C82B637062
:108D100009D9032002F0B8F80E4B0F481D70BDE8CA
:108D2000384001F013BB38BDC8590020C559002098
:108D3000D359002068550020B8340020C7590020BE
:108D4000B25A0020C3590020E41401006A550020E3
:108D5000D55A0020D65A00200C1501002DE9F84FF5
:108D6000304C002140F2C232204604F0D7F9A02353
:108D70002370BE2384F8E1312B4B2C49D3F8A8E3B0
:108D8000204640F2E11C4FF008084FF00109714500
:108D900001D3BDE8F88F0A7CCD7C91F811B08C7CB2
:108DA0000F7D013A0CFB02F202F14C0A013D8244B4
:108DB0000BEB05135344013C8B600BEB0413534442
:108DC000013F4B600BF1FF330BEB071B0AEB0B066C
:108DD000CE60D3F1000A93FBF8F602F1010206EB34
:108DE0004505024405F101050AF0070A03F00703EF
:108DF00058BFCAF1000309FA03F312F805A05BB2E9
:108E000043EA0A0A06EB440402F805A0013406EB23
:108E10004706155D1D43155501362C31945D2343DE
:108E20009355B4E700560020881F0020900E0020C4
:108E300070B52F4A2F4B9FED307ADFED307AD2F8A4
:108E4000A8632F4983ED027A0022C3ED037AC3EDB4
:108E5000047A83ED057A10461446B0EE676A15462B
:108E6000F0EE475AB1421CD30DB1C3ED025A0CB11A
:108E700083ED036A08B183ED057A0AB1C3ED047A84
:108E800093ED027AD3ED037A77EEC77A93ED057A04
:108E9000C3ED067AD3ED047A77EEC77AC3ED077A8D
:108EA00070BDD1ED066AF4EEE56AF1EE10FAF4EE6B
:108EB000C66A44BFF0EE665A0125F1EE10FAC8BF4B
:108EC000B0EE666AD1ED076AF4EEC76AC8BF012446
:108ED000F1EE10FAF4EEE76A44BFB0EE667A0120D4
:108EE000F1EE10FAC4BFF0EE667A01222C31B9E738
:108EF000881F0020F0590020F9021550F90215D002
:108F0000900E002010B5184B184C194ADFED196A65
:108F10000021D4F8A803834200D310BD93ED067A54
:108F2000D2ED027A92ED066A586837EE677A2C33F2
:108F3000C7EE067A13ED047A92ED076A67EEA67A19
:108F400043ED037AD2ED057A37EE677AC7EE067AFB
:108F500067EEA67A43ED027A017053F8240C017093
:108F600053F8200C0170D4E7900E0020881F0020D9
:108F7000F05900200000C84208B5FFF759FFBDE8CE
:108F80000840FFF7BFBF0000F0B5DFED756ADFF8FE
:108F9000D8E1744F183010F8044C012C00D1F0BD0A
:108FA0009EF8004050F8086C4CB9750709D416F0CB
:108FB000020F6AD0D7ED007A70EE277A05E0B40789
:108FC00058D5D7ED007A70EE677AF4EEE67AF1EED6
:108FD00010FA52DD77EEE67A10ED066AF4EEC67A04
:108FE000F1EE10FA44D410ED057AF4EEC77AF1EE02
:108FF00010FA3DDC77EEC67A10F8105C10F80F4CD2
:1090000037EE466A16F0010F87EE867A07EE905A21
:109010003ED0641BB8EEE76A07EE904AF8EEE77AB6
:10902000A7EE276A81ED006A10F80E5C10F80D4C6F
:1090300007EE905A641BB8EEE76A07EE904AF8EE26
:10904000E77AA7EE276A82ED006A10F80C5C10F848
:109050000B4C07EE905A641BB8EEE76A07EE904A95
:10906000F8EEE77AA7EE276AF0EE467AC3ED007ACB
:10907000183090E716F0040F9BE7F5EEC07AF1EE9A
:1090800010FAA9D577EEA67AA6E7F0EE407AA3E724
:10909000641BF8EEE75A07EE904AF8EEE77A16F00E
:1090A000080F91ED006AE7EE275A2CD036EE656A7C
:1090B00081ED006A10F80E5C10F80D4C07EE905A26
:1090C000641BB8EEE76A07EE904AF8EEE77AA7EE7F
:1090D000276AD2ED007A77EEC67AC2ED007A10F8F0
:1090E0000C5C10F80B4C07EE905A641BB8EEE76A64
:1090F00007EE904AF8EEE77AA7EE276AD3ED007AFA
:1091000077EEC67AB2E736EE256A81ED006A10F88E
:109110000E5C10F80D4C07EE905A641BB8EEE76A2F
:1091200007EE904AF8EEE77AA7EE276AD2ED007ACA
:1091300077EE867AC2ED007A10F80C5C10F80B4CD2
:1091400007EE905A641BB8EEE76A07EE904AF8EE15
:10915000E77AA7EE276AD3ED007A77EE867A85E77D
:109160000000C842E4590020D0590020000000004F
:109170002DE9F04F2DED028BB14AB24B1278B24D72
:1091800053F822B02A6885B09A4692B1DFF804837A
:1091900000272A68D8F8A8138A42FBB204D298F8AC
:1091A000AC13994200F2968005B0BDEC028BBDE88D
:1091B000F08FA64B2B60A64BA64CD3E90067013677
:1091C00047F10007C3E90067A34B1B78B7EE008A9D
:1091D00084ED008A2BB3A14AA14B92F800E0A14A8A
:1091E000187811780EFB0010C0B2FF2810705CD107
:1091F000187003F053F990A3D3E900238046894601
:1092000003F0B2F942464B4603F0AEF903F0DEFB41
:1092100007EE100AB4EEC87AF1EE10FA4ADD84EDDA
:10922000008A914B9FED917A93ED008AC7EE087A00
:109230000024234630463946FCEEE77A17EE902AA2
:1092400003F022FD1946104603F0D8FC06EE900A02
:10925000B2EE047AC6EE877A42F210719FED847AFC
:1092600067EE887A67EE877AFCEEE77A17EE903A37
:10927000B3FBF1F201FB123307EE903AF8EEE77A16
:109280007C4B7D4AC7EE876A9470C3ED006A7B4BC6
:10929000196851602346581C4E08C0B216D1002CE4
:1092A0003FF474AF9370516070E70028A1D10122A0
:1092B0001A709EE7B5EEC07ADFED717AF1EE10FA22
:1092C00058BFF0EE477AC4ED007AAAE7034631466C
:1092D0000124E0E700236B4901930293039305EE19
:1092E000103A694B0978D2ED087AD2ED094A1B7819
:1092F000002908BFF0EE674A012B79D192F8283097
:10930000FF2B7BD19DED027ADFED607AB4EEE77A38
:10931000F1EE10FA40F32181CDED027A9DED037A52
:10932000B4EEE77AF1EE10FA40F31F81CDED037A47
:10933000494B1B78A3B1474BDDED017A93ED007AE1
:1093400067EE877ACDED017ADDED027A67EE877AF6
:10935000CDED027ADDED037A67EE877ACDED037A03
:10936000DDED017A2B68FCEEE77A5A6817EE903A49
:109370001370DDED027A2B68FCEEE77A9A6817EE3F
:10938000903A1370DDED037A2B68FCEEE77ADA6829
:1093900017EE903A137000F0CBF920B300F0C8F943
:1093A0002B6893F82820182A40F0E78010F0020F6D
:1093B00019D05B6893F90020002AB4BF0022FF2275
:1093C0001A702B689B6893F90020002AB4BF002212
:1093D000FF221A702B68DB6893F90020002AB4BFC3
:1093E0000022FF221A702B682C332B600137D0E645
:1093F000022B1CD192F82830FF2B83D1244C637EA2
:10940000002B49D0B0EE640A03AB02AA01A958466A
:10941000FFF7BAFDDDED017A9FED1C7AF4EEC77A15
:10942000F1EE10FA40F391808DED017A6AE7032B9B
:1094300067E700BFAFF30080691D554D1075EF3E23
:10944000C259002000000020CC590020900E0020BE
:10945000F0590020FC550020C8590020E95900208F
:10946000C6590020E0590020F855002000007A4439
:109470000000C842E4590020B8340020C430002065
:1094800000000000C4590020D159002000007F4393
:10949000C4030020881F00201678013E724202F0AB
:1094A0001F0206F01F0358BF5342012202FA03F9BC
:1094B000202396FBF3F6B6001C3414F8033C002B73
:1094C000A8D134F81C3C990705D52F4A14F8081C7C
:1094D00092789142F0D1D90705D5A21952F8182CEB
:1094E00039EA0202E8D1DA060DD49A0624D514F836
:1094F000040C5AF82000B0EE640A03AB02AA01A9DA
:10950000FFF742FDD8E714F8073C07EE903A14F84D
:10951000063CF8EE677ACDED017A07EE903A14F842
:10952000053CF8EE677ACDED027A07EE903AF8EE58
:10953000677ACDED037ABFE75806BDD5B0EE640A71
:1095400003AB02AA01A95846DAE7F5EEC07AF1EEBC
:1095500010FA48BF8DED015AD4E6B5EEC07AF1EEAF
:1095600010FA48BF8DED025AD8E6B5EEC07AF1EE9A
:1095700010FA48BF8DED035ADAE6362A7FF433AF8E
:1095800010F0040F14E700BFB8340020704700004B
:1095900038B51A4D6B232B60FFF7E0FBFFF7ECFCAF
:1095A000174900220023C1E900231649C1E900231D
:1095B000154A01231370154A00241470144A1470BC
:1095C000144A4FF081411160134A1470134A147009
:1095D000134A1470134A1470134A1370134A137009
:1095E000134B5C701C70134B1C60FFF7CFFFFFF731
:1095F000BFFD6C232B60204638BD00BFEC5500201A
:10960000F0590020D8590020D2590020C25900201A
:10961000D1590020F8550020D0590020C45900200D
:10962000C8590020E0590020E9590020C6590020FF
:10963000B8340020CC5900202DE9F041364B374D8D
:109640001B78374E002B5DD0364FFEF7EDFBD7E988
:1096500000230021994208BF904253D32A68D6F8CC
:10966000A8339A4253D1FEF7DFFB00240A3087E883
:1096700011002D4A2D4F10783978884290461FD01E
:109680000720FFF731FAA0B16520FFF70DFA204659
:10969000FFF70AFA6620FFF707FA2046FFF704FAF9
:1096A0000320FFF701FA6820FFF7FEF92046FFF7D5
:1096B000FBF90134E4B2022CE2D198F800303B709F
:1096C00000240720FFF710FAA0B16520FFF7ECF99E
:1096D0002046FFF7E9F96620FFF7E6F92046FFF795
:1096E000E3F90120FFF7E0F96720FFF7DDF92046F5
:1096F000FFF7DAF90134E4B2022CE2D1FFF718FAED
:1097000000232B602A68D6F8A8339A4201D0FFF7CD
:109710002FFDBDE8F08100BFD2590020CC590020B8
:10972000881F0020D8590020C7590020E859002080
:10973000044B93F90030002BB4BF034B034B187854
:10974000704700BF1A3700206C5A0020B05A002022
:1097500010B5EFF3108472B6BFF35F8F074B02684A
:109760001A6002791A71064B01221A7001F042F850
:10977000BFF35F8F84F3108810BD00BF385A0020FC
:10978000345A002010B5EFF3108472B6BFF35F8F28
:10979000084B03221A7008B1803880B2A3F8010088
:1097A000054B01221A7000F0EBFFBFF35F8F84F3CB
:1097B000108810BD685A0020325A002010B5EFF30F
:1097C000108472B6BFF35F8F074B04221A70A3F8A0
:1097D0000100064B01221A7000F0D2FFBFF35F8F29
:1097E00084F3108810BD00BF685A0020325A002050
:1097F00070B54FF082435C7BE4B2042C0AD1174B66
:10980000174D00221A602B78042B26D0FDF779FA29
:109810002C7070BD082C06D1104B114D00221A601F
:109820002B78082BF1E7022C14D10D4E3378022B44
:1098300013D00A4D2B6823B9FEF7F6FAFA302860E8
:1098400070BDFEF7F1FA2B68984206D9FDF764FA6D
:10985000347070BD014B00221A6070BDC03400200E
:1098600054230020034B1B78022B01D1FFF7E4BEE9
:10987000704700BF54230020F8B51F4CFEF7D4FA00
:10988000D4E9022300218B4208BF82422BD2FEF78B
:10989000CBFA0530A06000230C20E360FDF79EFFAB
:1098A000164C174B05461880208802F0F7FD0EA3D2
:1098B000D3E9002302F058FE064628460F4602F080
:1098C000EDFD0BA3D3E9002302F04EFE0B4602464A
:1098D0003946304602F096FC03F058F82080BDE887
:1098E000F840FFF7ABB9F8BDCDCCCCCCCCCCEC3F3D
:1098F0009A9999999999B93FC03400206A550020E6
:109900006855002010B50A4CFEF78EFAD4E90423FE
:1099100000218B4208BF824209D2FEF785FA00235C
:109920000A3020616361BDE8104001F0FDBA10BD4E
:10993000C034002008B5FFF75BFFFFF793FFFFF788
:109940009BFFBDE80840FFF7DDBF000038B51D4BA9
:109950001B78DB09044633D11B4D2B789BB9EFF301
:10996000108572B6BFF35F8F184A2368136063686F
:109970005360174B01221A7000F086FEBFF35F8F11
:1099800085F3108838BDFFF7D5FFE6E7FFF7D2FF74
:109990002B78002BFAD1EFF3108572B6BFF35F8FEF
:1099A0000C4B204604F1200250F8041B43F8041B22
:1099B0009042F9D1084B01221A7000F0A1FEDDE7B8
:1099C000064DE5E71A370020315A0020285A0020BA
:1099D000305A0020445A0020245A0020335A0020D4
:1099E000464B4FF0006270B51A604FF08042C3F8EA
:1099F0008020434CFEF734FCFEF754FBFDF748FE95
:109A000000F0CAF8FEF74EFDFAF76AFC00F0B0FF6E
:109A10007A23236000F05EFA7B2323607C2323609B
:109A200000F096FC7D23236001F0E0F90028FBD0D4
:109A3000344B4FF000621A604FF08042C3F8802030
:109A4000FFF7A6FDFEF712FF0128FBD1FEF746FE49
:109A50000128FBD1FEF78AFEFEF7ECFF0024072069
:109A6000FFF742F8A0B16520FFF71EF82046FFF788
:109A70001BF86620FFF718F82046FFF715F80020BE
:109A8000FFF712F86920FFF70FF82046FFF70CF8F0
:109A90000134E4B2022CE2D1FBF7EFFEFBF7F3FE58
:109AA00019481A4EFBF78AFE0C20FDF797FE184B5B
:109AB0001880FEF723FC00240025FFF73BFF3378D6
:109AC000042B01D0082B0AD1FDF703F90028F4D0AC
:109AD00002F020FB32200021FDF764F9EDE7FBF7EF
