:10400000F0E70020C5A10000C1A10000C1A100008F
:10401000C1A10000C1A10000C1A10000000000007A
:10402000000000000000000000000000C1A100002E
:10403000C1A1000000000000C1A10000C1A100005A
:10404000C1A10000C1A10000C1A10000C1A10000E8
:10405000C1A10000C1A10000C1A10000C1A10000D8
:10406000C1A10000C1A10000C1A10000C1A10000C8
:10407000C1A10000C1A10000C1A10000C1A10000B8
:10408000C1A10000C1A10000C1A10000C1A10000A8
:10409000C1A10000C1A10000C1A10000C1A1000098
:1040A000C1A10000C1A10000C1A10000C58700009E
:1040B000C1A10000C1A10000C1A1000079910000D0
:1040C000C1A10000C1A10000C1A10000C1A1000068
:1040D000C1A10000C1A10000C1A10000C1A1000058
:1040E000C1A10000C1A10000C1A10000C1A1000048
:1040F00000000000C1A10000C1A10000C1A100009A
:10410000C1A10000C1A1000065910000C1A1000093
:10411000C1A10000C1A10000C1A10000C1A1000017
:10412000C1A10000C1A10000C1A10000C1A1000007
:10413000C1A10000C1A10000C1A10000C1A10000F7
:10414000C1A10000C1A10000C1A10000C1A10000E7
:10415000C1A10000C1A1000000000000000000009B
:10416000000000000000000000000000000000004F
:10417000000000000000000000000000000000003F
:104180002DBB000045BB000049BB00004DBB00003B
:1041900000000000C1A10000C1A10000C1A10000F9
:1041A000C1A10000C1A10000C1A10000C1A1000087
:1041B000C1A10000C1A10000C1A10000C1A1000077
:1041C000C1A10000C1A10000C1A10000C1A1000067
:1041D000C1A10000C1A10000C1A10000C1A1000057
:1041E000C1A10000C1A10000C1A10000C1A1000047
:1041F000C1A10000C1A10000C1A10000B180000068
:10420000D98000000000000000000000C1A10000F3
:10421000C1A10000C1A10000C1A10000C1A1000016
:10422000C1A10000C1A10000C1A10000C1A1000006
:10423000C1A10000C1A10000C1A10000C1A10000F6
:10424000C1A10000C1A10000C1A10000C1A10000E6
:10425000C1A10000C1A10000C1A10000C1A10000D6
:104260000000000010B5054C237833B9044B13B19E
:104270000448AFF300800123237010BD00300020FC
:1042800000000000AC1D01000C4B43B10C480D496F
:1042900010B5AFF300800C48036823B910BD0A487D
:1042A000036833B97047094B002BF7D0BDE81040C5
:1042B0001847064B002BF5D0184700BF0000000040
:1042C000AC1D010004300020AC1D01000000000006
:1042D00008B500F0C7F908BD08B501F0E3F808BD5E
:1042E000294A2A490023F0B553601360C2F8073009
:1042F000274A284E53601360C2F80730264A53609D
:104300001360C2F80730254A01F10B0013605360B7
:10431000864601274B78447806EBC31307FA04F46A
:104320005C6011F8014F10F8015F06EBC41307FA47
:1043300005FCC3F814C02B44714593F8405045F078
:10434000020583F8405093F8405045F0040583F887
:10435000405052F8243043EA0C0342F82430D9D1BB
:104360000F4E104D0B48002301249A5D595D00EB60
:10437000C212013304FA01F1082B91605161F4D1AA
:10438000BDE8F04001F0CCBBE3360020A3030020E1
:10439000EE36002000800041D8360020D0360020C4
:1043A00020300020BA0300202DE9F04F85B003F043
:1043B000F7FF3D4BD3E902450021A94208BFA042C7
:1043C000984663D3DFF8F890384C0025A9F1150B17
:1043D00065602560C4F8075003F1FF3A01270BF12F
:1043E0000B029AF80130324E99F80110019206EB57
:1043F000C31307FA01F199610A2003F0D7FF2D4991
:10440000306A0B6803400293D6F8A0004B681AF894
:10441000011F0340039319F8013F06EBC11607FA89
:1044200003F3736107FA05F1019A49B2002313F807
:104430000B6004A800EB8606985C56F8086C07FA37
:1044400000F030421EBFE05C0843E05401330B2B08
:10445000EDD10135082DC4D1002217491346A05CC7
:104460004D7801F8010F0132854218BF01230B2A54
:10447000F5D17BB9114AE15C995401330B2BFAD188
:1044800000220023C8E9022301F054FB012005B0FB
:10449000BDE8F08F03F084FF00230530C8F8080062
:1044A000C8F80C30F0E700BF20300020E3360020D1
:1044B00000800041D0360020ED360020D8360020A4
:1044C000B9030020014B185C704700BFD8360020AC
:1044D0002DE9F047B0B0354B0093BC22002101A874
:1044E00009F01EFA32238DF8043033238DF805309D
:1044F00034238DF8063035238DF8073036238DF8B8
:104500000830372331258DF809300D2438230A214E
:10451000274F8DF80A308DF803508DF80B408DF839
:104520000C1004AB012220264FF02E0E4FF0580C39
:10453000D019092A10F8018C85BFB2FBF1F001FBFC
:10454000102002F13000303095BF03F8030C03F85F
:10455000020C03F8026C03F8035C03F8016C1846C4
:104560004FF0000948FA09FA1AF0010F09F10109A0
:1045700014BF80F800C080F800E0B9F1080F00F126
:104580000100EFD101320C2A1C72597203F10D03A4
:10459000CED100238DF89C30064B1B78DB0702D56B
:1045A000684603F057F930B0BDE8F0875220430069
:1045B000D836002055310020FF2802D8044B185C63
:1045C000704745F2011398420CBF522000207047FB
:1045D000FC36002001394B09032B32D8DFE803F009
:1045E000020D1925174B1C2202FB0030012303FA90
:1045F00001F143680B4343607047124B1C2202FBDE
:10460000003001F01F030121994083681943816044
:1046100070470C4B1C2202FB003001F01F030121EC
:104620009940C3681943C1607047064B1C2202FBC6
:10463000003001F01F01012303FA01F1036919435E
:1046400001617047C4030020054A1C2303FB0023BB
:1046500000225A609A60DA601A61FFF7BBBF00BFA0
:10466000C40300202DE9F04FADF5B85D87B0B0224E
:10467000002102A809F054F90123ADF80830022303
:10468000ADF80A300323ADF80C300423ADF80E303A
:104690000523ADF810300623ADF812300723ADF82E
:1046A00014300823ADF816301123ADF8183012235A
:1046B000ADF81A301323ADF81C301423ADF81E30BA
:1046C0001523ADF820301623ADF822301723ADF8AE
:1046D00024301823ADF826302223ADF828302323C8
:1046E000ADF82A302423ADF82C302523ADF82E3038
:1046F0002623ADF830302723ADF832302823ADF82B
:1047000034302923ADF836303323ADF83830342334
:10471000ADF83A303523ADF83C303623ADF83E30B5
:104720003723ADF840303823ADF842303923ADF8A7
:1047300044303A23ADF846304023ADF848304123A9
:10474000ADF84A304223ADF84C304323ADF84E303B
:104750004423ADF850304523ADF852304623ADF830
:1047600054304723ADF856304D23ADF858304E2322
:10477000ADF85A304F23ADF85C305023ADF85E30C1
:104780005123ADF860305223ADF862305323ADF8B9
:1047900064305423ADF866300923ADF868300A233D
:1047A000ADF86A300B23ADF86C300C23ADF86E30E9
:1047B0000D23ADF870300E23ADF872300F23ADF835
:1047C00074301023ADF876301923ADF878301A2301
:1047D000ADF87A301B23ADF87C301C23ADF87E3069
:1047E0001D23ADF880301E23ADF882301F23ADF8B5
:1047F00084302023ADF886302A23ADF888302B236F
:10480000ADF88A302C23ADF88C302D23ADF88E30E6
:104810002E23ADF890302F23ADF892303023ADF831
:1048200094303123ADF896303B23ADF898303C23DB
:10483000ADF89A303D23ADF89C303E23ADF89E3064
:104840003F23ADF8A0304C23ADF8A2303223ADF8B1
:10485000A4302123ADF8A6304823ADF8A830492371
:10486000ADF8AA304A23ADF8AC304B23ADF8AE30EA
:104870005523ADF8B0305623ADF8B230D94DDA4EED
:104880005723ADF8B430002302A90022EC18C81851
:1048900034F81210FF299CBF30F81270775401329F
:1048A000082AF5D11033B02BEED1D04BDFF8B493FA
:1048B000D3ED007ADFF8B0A3DFF8B0B3CC4FCD4E24
:1048C000CD4DDFF8AC83B2EE0E7A77EE877A9EACF0
:1048D000C3ED007AC94B93F8142B12F0010FC84AAC
:1048E00014BF03F6183303F64E33136000214FF460
:1048F000A552204609F014F8C4F8C890C4F8B4933F
:10490000DFF87093C4F8E09304F20C49C4F89CA05B
:10491000BC4BC4F888A3DFF860A3C9F800A0C4F8B2
:10492000FC3104F58269B84BC4F82832B74BC9F89A
:10493000003004F58769DFF844A3C9F800A004F249
:104940003C49B34AC9F8003004F26449B148B2495D
:10495000DFF82CE3DFF82CC3DFF82CA3C4F870B029
:10496000F7EE087AB6EE087AC4ED117AC4F8F4E0EE
:10497000C4F82071C4F84C61C4F87851C4F8A4811B
:10498000C4F8D0C1C4F85402C4F88022C4F8AC12F0
:10499000C4F8DC3284EDC17AC4F80833C4EDCC7AB3
:1049A000C4F83433C4F85CB3C4F86033C4F88C334F
:1049B000C4F8B833C4F8E433C9F800A004F58D692D
:1049C000DFF8C8A2C9F8003004F59269DFED937AE8
:1049D000C9F800A004F29449DFF8B4A2C9F8003085
:1049E0000DF23479B0EE097AC9F800800DF5E76868
:1049F000DFF8A092C8F800300DF5EC68DFED886AAA
:104A0000C8F800C00DF2647CDFF88C82CCF800306E
:104A10000DF28C7CDFF884B2CCF800800DF5F26CDE
:104A2000DFF87C82CCF800300DF5F76CCCF8000094
:104A30000DF2BC7CCCF800300DF2E47CCCF8002008
:104A40000DF5FD6CCCF800300DF5016CCCF80010C4
:104A50000DF6140CCCF800300DF63C03DFF844C220
:104A6000C3F800C00DF5046C6E4BCCF800300DF6A9
:104A7000680CCCF800800DF66C0CDFF82C82CCF8BA
:104A800000300DF6940CCCF800800DF6980CDFF891
:104A90001C82CCF800300DF50C6CCCF800800DF6C3
:104AA000C40CDFF80C82CCF800300DF6EC0CCCF81E
:104AB00000800DF50F6CDFF8FC81CCF800300DF6AE
:104AC000181CCCF800800DF61C1CDFF8EC81CCF82B
:104AD00000300DF6441CCCF800E00DF6481EDFF85F
:104AE000DCC1CEF800300DF5176ECEF800700DF673
:104AF0007417DFF8CCE13B600DF69C173E600DF5B6
:104B00001A66494F33600DF6C81635600DF6CC15A0
:104B1000464E2B600DF6F4152E600DF6F815444E3A
:104B20002B600DF522652E600DF62425414E2B607D
:104B30000DF64C252E600DF525653F4E2B600DF6CC
:104B400078252E600DF67C253C4E2B600DF6A425B5
:104B500028600DF6A8252B600DF52D652A600DF651
:104B6000D4252B600DF6FC2529600DF530652B60F2
:104B70000DF62833324D1D600DF62C35314B2B6070
:104B80000DF654352E600DF658352F4E2B600DF571
:104B900038652E600DF684352C4E2B600DF6AC3545
:104BA0002E600DF53B652A4E2B600DF6D8352E6034
:104BB0000DF6DC35274E2B600DF604452E600DF604
:104BC0000845254E2B600DF543652E600DF63445E6
:104BD000224E2B600DF65C452E600DF54665204E8D
:104BE0002B606FE09E150100FC360020D856002097
:104BF0000000B4400000CC400000E440C4030020AA
:104C00004056002000001C4100002841000090BFD9
:104C10000000464100003A4100005241D7A38840BD
:104C2000A470FD3F0000F0BF713D32410000FC4028
:104C300000000A4100001641F4FD24416210A83F23
:104C40003BDF8F3E000028C031080440CFF73340DF
:104C5000CFF76340E7FB8940E7FBA140E7FBB940A2
:104C6000E7FBD140000070400000404000001040D1
:104C700000000441000090400000A8400000C04037
:104C800000009C40000010410000D8400000F040AF
:104C9000AE47AD4085EBD140000022418FC2553F69
:104CA0000000903F1283403E0000F03F000028408B
:104CB00000005840000084405C8FF6409A990D41F6
:104CC00085EB1F410DF688452E600DF68C45C24ED2
:104CD0002B600DF6B4452E600DF6B845BF4E2B6027
:104CE0000DF54E652E600DF6E445BD4E2B600DF6BC
:104CF0000C552E600DF55165BA4E2B600DF63855EA
:104D00002E600DF63C55B84E2B600DF66453B74D32
:104D10001D600DF66855B64B2B600DF559652E607C
:104D20000DF69455B34E2B600DF6BC552E600DF567
:104D30005C65B14E2B600DF6E8552E600DF6EC5516
:104D4000AE4E2B600DF614652E600DF61865AC4E58
:104D50002B600DF564652E600DF64465A94E2B6041
:104D60000DF66C652E600DF56765A74E2B600DF690
:104D700098652E600DF69C65A44E2B600DF6C465FB
:104D80002E600DF6C865A24E2B600DF56F652E6086
:104D90000DF6F4659F4E2B600DF61C752E600DF51B
:104DA00072659D4E2B600DF648752E600DF64C75A4
:104DB0009A4E2B600DF674752A600DF678752B608F
:104DC0000DF57A63964D1D600DF6A475954B2B601D
:104DD0000DF6CC752E600DF57D65934E2B600DF6AE
:104DE000F8752E600DF6FC75904E2B600DF5815513
:104DF00004352E600DF5815508352B600DF5825573
:104E000010358B4E2E600DF5825514352B600DF547
:104E100083551C35874E2E600DF58455864E2B60CC
:104E20000DF5855508352E600DF585550C352B6033
:104E30000DF586551435814E2E600DF586551835C5
:104E40002B600DF588557E4E28600DF58850043096
:104E500003600DF589500C3002600DF58952103257
:104E600013600DF58A52183211600DF58A521C320A
:104E700013600DF58C530433724A1A600DF58C5390
:104E80000833714919600DF58D5310330DF58D52AE
:104E900014321E606D4B13600DF58E521C3217607C
:104EA0000DF58F520DF59F5013600DF5905208329D
:104EB000C2F800E00DF590520C3213600DF59152DE
:104EC0001432C2F800C00DF59152183213600DF57E
:104ED00093521030C2F800800DF5935204321360E3
:104EE0000DF594520C32C2F800900DF59452103228
:104EF00013600DF595521832C2F800A00DF59552C9
:104F00001C3213600DF597520432C2ED007A0DF594
:104F10009752083213600DF59852103282ED007AE4
:104F20000DF59852143213600DF599521C32C2EDF2
:104F3000006A0DF59A52464D13600DF59B520832EA
:104F4000C2F800B00DF59B520C3213600DF59C5366
:104F50001433404A1A600DF59C5318330DF59E52D8
:104F600019600DF59E513C4B136004313B4A0A60B9
:104F70000DF59F510C310B60394901600DF5A050C2
:104F8000183003600DF5A0531C33364818600DF53A
:104F9000A25304331D600DF5A2530833324D1D603A
:104FA0000DF5A3531033C3F800B00DF5A35B0BF15F
:104FB000140B2E4BCBF800300DF5A45B0BF11C0B42
:104FC000CBED006A0DF5A55BCBF800300DF5A65BC7
:104FD0000BF1080B4CE000BFE7FBE940F4FD00419A
:104FE000F4FD0C41FA7E20416210D83FC520F03E0E
:104FF000000058C031081C4031084C4031087C404A
:10500000190496401904AE401904C6401904DE4044
:105010001904F6400C02074106811D41CFF7833F7A
:105020001283C03D000084C03108FC3FF4FD98406D
:105030000C02F340FA7E084106811741FA7E2641B0
:105040005C8F444191ED56418FC28DC0B81E91C016
:105050002DB29DBE1B2F9DBE85EBD1BE14AE4FC0A1
:105060000AD703C0000060BF52B89E3EE17AD43E2A
:105070008BED007A0DF5A65B0BF10C0BCBF8003035
:105080000DF5A75B0BF1140BCBED007A0DF5A75BCB
:105090000BF1180BCBF800300DF5A95BCBF800A095
:1050A0000DF5A95A0AF1040ACAF800300DF5AA5AFA
:1050B0000AF10C0ACAF800900DF5AA5909F1100975
:1050C000C9F800300DF5AB5909F11809C9F800808D
:1050D0000DF5AB5808F11C08C8F800300DF5AD58B7
:1050E00008F10408C8F800C00DF5AD5C0CF1080C1F
:1050F000CCF800300DF5AE5C0CF1100CCCF800E0F3
:105100000DF5AE5E0EF1140ECEF800300DF5AF5E6B
:105110000EF11C0ECEF800700DF5B057DFF87C9341
:105120003B600DF5B15708373E600DF5B1560C36B2
:1051300033600DF5B2561436D44B33600DF5B253CF
:1051400018331D600DF5B455D14B2B600DF5B455DA
:10515000043528600DF5B5500C3003600DF5B550E1
:10516000103001600DF5B65118310B600DF5B653D6
:105170001C33DFF82CA31A60274601264FF00008E5
:10518000F5B24FF02C0B572D40F04A810136582EC6
:1051900007F12C07F4D1BF4D95F80C2B022A00F033
:1051A0007381042A0CBF4127112701241C2606FB0A
:1051B00004F32146A0B2EF520134FFF745FA582C10
:1051C000F5D1B54A2EAC1268E2600C27901D4FF065
:1051D000030C182127874FF0120ED7190223002540
:1051E0004FF014094FF01A082183E0620121E063B7
:1051F000E7640820A4F858E0E7654FF0040E02F1D8
:105200001207C4F860C0C4F870C04FF00E0A4FF027
:105210000D0C6360A4F8089063616362A4F82880B1
:10522000636323646364A4F848002365636563666D
:10523000E7666367A4F878C025602561E2612162B2
:105240002163A4F868E0E767A4F898A002F11E0AB9
:10525000C4F8ACA0C4F8BCA04FF02B0A4FF0050B6B
:10526000A4F8C8A0A4F8D86002F1240A392602F1F3
:105270001807C4F8A0B0C4F8B0B0C4F8CCA04FF080
:105280000F0BC4F8DCA0A4F8E8604FF00B0A02F1A1
:105290002A064FF0160CC4F88C70C4F89C70A4F861
:1052A000B8B007274FF0060BC4F8EC60A4F8F8A0DC
:1052B000C4F8FC604FF01F0A1E26C4F88430C4F8FE
:1052C0009430C4F8A430A4F8A870C4F8B430C4F87A
:1052D000C430C4F8D430C4F8E070C4F8E430C4F882
:1052E000F070C4F8F430C4F880E0A4F888C0C4F8C2
:1052F00090E0C4F8C0B0C4F8D0B0C4F80001A4F87D
:105300000861A4F818A102F133064FF0200AC4F88E
:105310000431C4F80C61C4F81001C4F81431C4F8A5
:105320001C61C4F82001C4F82431A4F828A1C4F8F1
:105330002C61C4F83001C4F83431C4F83C61C4F8BD
:105340004431A4F868810A23A4F878014FF0210AB7
:1053500013200926DFF83C81A4F85891A4F838A15D
:10536000C4F84061A4F84851C4F84C21C4F8503145
:10537000C4F85411C4F85C21C4F86031C4F8641155
:10538000C4F86C21C4F87031C4F87411C4F87C21DD
:10539000C4F880314FF01C09C4F88411A4F8B87126
:1053A000A4F88801C4F88C21C4F89031C4F8941191
:1053B000A4F898C1C4F89C21C4F8A031C4F8A41181
:1053C000A4F8A8E1C4F8AC21C4F8B031C4F8B41111
:1053D000C4F8BC21074666595836611909FB06FE18
:1053E00008EB0E03CA6828F80E7008894968197519
:1053F00011785975517899759278DA75FFF7DCF85C
:1054000010350146B0B2FFF7E5F8B5F5E07FE2D11F
:10541000012388F8093B0DF5B85D07B0BDE8F08FB2
:105420000BFB0543D3ED067A97ED067AD3ED076AB9
:1054300037EE677AD7ED077A77EEE67A013567EED1
:10544000A77AE7EE077A17EE900A07F097FB41EC90
:10545000100B07F005F942464B4651EC100B07F0D4
:105460000BFD07F0AFFE07EE900AFCEEE77A58233B
:1054700003FB06A1CDED017A03FB05A39DF80420F3
:105480004A559A55EDB27EE641278EE679E95641B6
:105490005C8F5841C4030020405600200000E83FC4
:1054A000FE3700202DE9F04397B0582200216846CE
:1054B0003E4D3F4E08F034FA0024A846635D5BB3CE
:1054C0002F19786802F04CF9D6F8103B7A78B0FBC7
:1054D000F3F096F80C1B374B96F80DCB4FF0580EA7
:1054E000033902FB0E3E0123C9B2002799461EF87C
:1054F0000320821A92B2624509D2012997BF1DF892
:1055000003700DF80390D2190DF803200127013321
:10551000582BECD108F804700834502CCED1244B11
:10552000254A93F80C5B93F80DEB166801211120C6
:1055300041241227042D08D8DFE805F006030F15D3
:1055400015001DF8012062B19C830131582903F137
:105550001C03EFD117B0BDE8F0831DF80120002A2D
:10556000F2D09883F1E71DF80120C2B102EBC2022C
:10557000520092FBFEF292FBF7FC07FB1C2202EBAF
:10558000420206EB020CB25C83F831209CF8012049
:1055900083F832209CF8022083F83320E1E7042DC1
:1055A000D2D083F8312083F83220F5E73030002064
:1055B000C4030020FE3700204056002070B58B78D1
:1055C00006460D461BB101469B4802F043F9A6F57D
:1055D000B9435E3B1A2B00F26B82DFE813F01B002D
:1055E00031003B004C005A006700790086009200B1
:1055F0009800A200B800C200EC000D0159017C0126
:105600009F01C201D301D301210221023A023A02D1
:105610001D005202AB7813B90024204670BD874BA1
:105620001A78C2F1A5010929D4BFA5220A321A703D
:10563000834A1278002AEFD01A78824B1A70EBE76F
:10564000AB78002BE8D07D4B1A78092A94BF002252
:105650000A3AECE7AB78002BDED07B497B4A09782D
:10566000137801398B424FF0000401D11470D4E754
:1056700001331370D1E7AB78002BCDD0734B1C787E
:1056800024B9714A1278013A1A70C6E7013C1C70BD
:10569000C2E7AB78002BBFD06D4BD3ED007AB7EEED
:1056A000007A77EE877AC3ED007AB5E7AB78002B06
:1056B000B2D0674BD3ED007AB7EE007A77EEC77AB7
:1056C000F5EEC07AF1EE10FAEDD500221A60A3E7EC
:1056D000AB78002BA0D05F4A13780133DBB2032BE9
:1056E00001D8137098E70024C0E7AB78002B93D063
:1056F000594B1878B0FA80F04009187003F05CFB41
:105700008AE7AB78002B87D00120534BF5E7AB78C5
:10571000002B81D00024504B20461C7003F04CFB22
:105720007BE7AB78002B3FF477AF454B1C78002C20
:105730000CBF012200221A707FF46EAF3F4B1A7823
:10574000404B1A70454B01221C70454B9CE7AB78CF
:10575000002B3FF461AF434A1378B3FA83F35B093C
:10576000BFE7AB78002B3FF457AF3F4B1B681B786C
:1057700013F0220F3FF450AF13F0110F3FF44CAF72
:105780003A4B3B4A1C781D465CB11378DC0702D5C6
:10579000384802F05FF82B78B3FA83F35B092B707B
:1057A0003AE7012119701378D8077FF535AF3248F1
:1057B00002F050F831E7AB78002B3FF42DAF2A4BC5
:1057C0001B681B7813F0220F3FF426AF13F0110F64
:1057D0003FF422AF294B264A1C781D4624B113788A
:1057E000D907D8D52648D4E7012119701378DA07EC
:1057F0007FF512AF2348DBE7AB78002B3FF40CAF0B
:105800001B4D2B7813F001040AD01F4802F022F838
:105810002B78C3F3000282F0010262F30003BEE7BB
:10582000C3F3000282F0010262F300032B70DB0776
:105830007FF5F2AE1548BBE7AE170100A35A002072
:10584000A85A0020B35A00209C150100A25A00203B
:10585000D8560020B15A0020B25A0020C05A002069
:10586000A65A0020B05A0020480F0020AA5B002052
:1058700055310020BA170100E0170100865B0020B7
:1058800005180100221801003E18010054180100FB
:10589000AB78002B3FF4C0AE944A137813F00204A7
:1058A00015460CD0DE0702D5914801F0D3FF2B78C6
:1058B000C3F3400282F0010262F341036FE7C3F3D6
:1058C000400181F0010161F34103DD0713707FF5B1
:1058D000A3AE88486CE7AB78002B3FF49DAE834ABB
:1058E000137813F0040415460CD0D80702D582486B
:1058F00001F0B0FF2B78C3F3800282F0010262F363
:1059000082034CE7C3F3800181F0010161F382035C
:10591000D90713707FF580AE784849E7AB78002B44
:105920003FF47AAE714A137813F0080415460CD090
:10593000DA0702D5724801F08DFF2B78C3F3C0025D
:1059400082F0010262F3C30329E7C3F3C00181F0CF
:10595000010161F3C3031370DB077FF55DAE694896
:1059600026E7AC78684D1CB101F0E0FE286553E6EF
:10597000286D01F0F5FEB0F5FA7FFFF44DAE00F0B2
:10598000E5F84AE6AB78002B3FF446AE5F4A45F6B1
:10599000F14392F80C4B9E420CBF04230123234495
:1059A000DBB20521B3FBF1F000EB80001B1ADBB288
:1059B00082F80C3B013B032B30D8DFE803F00218E0
:1059C0001F27022382F80D3B3223C2F8103B1E2012
:1059D000FEF7F2FD01466120FEF736FE00234A4A3B
:1059E000194602F8331001330A2BFAD114E6322398
:1059F00082F80D1BC2F8103B1F20E9E70A2382F84A
:105A00000D3B3223C2F8103B2020E1E70A2382F845
:105A10000D3B3223C2F8103B2120D9E70020D7E705
:105A2000AB78002B3FF4F8AD384A45F6F344A64274
:105A30000CBF01234FF0FF3392F80D4B1C4414F0C0
:105A4000FF0402D082F80D4BE6E5012382F80D3BFE
:105A5000E3E5AB78002B3FF4DFAD2C4A45F6F54388
:105A60009E420CBF4FF0FF330123D2F8106B0A2186
:105A700013FB0163092BCCBFC2F8103BC2F8101B0B
:105A8000CAE5AB78002B3FF4C7AD204B204A93F812
:105A9000144B0134E4B283F8144B14F0010403D026
:105AA00003F618331360B7E503F64E331360B4E51D
:105AB000AC78C4B13046FEF77FFD00283FF4ADADB1
:105AC000114A002312F83310DD0041B915440121B9
:105AD00002F83310687001F029FE68609DE501331B
:105AE0000A2BEFD199E5012497E500BF553100203D
:105AF000691801008118010098180100B21801000E
:105B0000CB180100E218010030300020C40300204F
:105B1000405600200120704708B5FFF74FFD08BD33
:105B200008B501F0A5FC08B901F002FDBDE8084088
:105B3000FEF7CEBBFEF7D0BB704708B5FFF7FCFF02
:105B400008BD08B5FFF7F9FF08BD704708B500F0BC
:105B500073FFFFF7FAFFFA20002101F019FEBDE8FC
:105B6000084001F017BE000073B50388ADF804309B
:105B7000A14B1B7806467BBB8378019843B301F0A9
:105B800075FBC4B22146019801F02EFB0199204615
:105B900000F04CF931460546FFF7BEFF04460028E9
:105BA0006BD045F616439D4200F00F813AD845F67A
:105BB00001439D4264D015D8B5F5B84F58D08F4BEE
:105BC00001221A705A703046FFF7A4FF044654E0D1
:105BD00001F02EFB0446D9E7019801F047FB01993B
:105BE000C0B2D5E745F614439D42E8D8B378002B00
:105BF000E9D001F03DFC08B901F09AFC01F050FC3D
:105C0000A5F5B8457E4B033D1880112D44D8DFE83B
:105C100005F04D5155595D6165696D7175797D81ED
:105C200085898D9145F6D7439D4200F09C8011D81F
:105C300045F6D6439D42C2D1B478704D002C00F099
:105C4000818000242C7001F069FD6880022000F042
:105C5000E9FC12E045F6D8439D4200F0A08045F6ED
:105C6000DD439D42ABD1B4783CB101F061FC03E06F
:105C7000B47814B1FFF76AFF0024204602B070BD6B
:105C8000B478002CF9D05F4A5F48137843F00103E1
:105C9000137001F0DFFDEFE71A7842F001021A708D
:105CA000187801F000FC00F0C7FEE5E71A7842F032
:105CB0000202F4E71A7842F00402F0E71A7842F0A0
:105CC0000802ECE71A7842F01002E8E71A7842F08E
:105CD0002002E4E71A7842F04002E0E71A7842F046
:105CE0008002DCE71A7842F00C02D8E71A786FF3EA
:105CF0000002D4E71A786FF34102D0E71A786FF305
:105D00008202CCE71A786FF3C302C8E71A786FF300
:105D10000412C4E71A786FF34512C0E71A786FF3DC
:105D20008612BCE71A786FF3C712B8E71A7802F048
:105D3000FB02E8E71A78C2F3C01181F0010161F3B8
:105D4000C712ACE72B7853B9688801F0F5FCC72877
:105D500005D8262000F08EFB262000F02FFC022024
:105D600000F069FC89E7B3783BB1244D00246C70E6
:105D700001F0D4FCA880202069E7204B5A7852B962
:105D8000988801F0D9FCC72805D8272000F072FBBD
:105D9000272000F013FC202000F04DFC6CE7B378C6
:105DA000002BE2D1154B5C78002CF4D1988801F0DF
:105DB000C3FCC728EFD8202000F03DFC282000F0CD
:105DC00059FB282000F0FAFB57E701F0F7FAB17809
:105DD0000A4A0E4BE1B100F0AA00002814BF0121CD
:105DE00000219171186814BF3521292101F018FC98
:105DF00001F0BEFA40E700BFA03000208430002050
:105E0000FC37002055310020F8180100480F002011
:105E100092791868002A14BF3521292101F01AFC53
:105E2000E6E700BF0020704770470000C1F307227B
:105E30000B2303FB0020C00050FA81F0024B33F823
:105E4000100082B002B070479E150100014B33F87C
:105E500010007047AE17010013B5ADF8041001999A
:105E6000FFF7E4FF00F058F9B0F5A04F044630D238
:105E7000B0F5804F80F0D680E72816D8E02879D298
:105E8000A72808D8A5286BD2012873D001D30428ED
:105E900070D200246EE0BE286FD9C028F9D3C03874
:105EA00080B2FFF7D3FF044664E0B0F5005F09D28B
:105EB000B0F5807F80F0AA80F028EAD340F4A044B7
:105EC000A4B257E0B0F5405F80F0A380C0F30B00B0
:105ED000E7E7B0F5AA4F1ED2B0F5A84FC3B280F0E5
:105EE000C080B0F5A44F08D2B0F5A24FC0F09F809B
:105EF0004AF2F10040EA03243CE0B0F5A64F80F0FE
:105F0000A6809808012403F003039C4044EA40144F
:105F100044F40C44D4E7B0F5B24F0CD2B0F5B04F16
:105F200080F0A480B0F5AC4FB3D2040204F4F8546E
:105F300044F400541EE0B0F5B44FC0F09C80A0F5CE
:105F4000C043B3F5005FA4D2C0F3042000F050F9C1
:105F5000E4B2000244F4005400F4F850044309E0B1
:105F600000F0948044F2820344F28302A62814BF16
:105F700014461C46204602B010BDA82800F08980B7
:105F8000A92800F08980AA2800F08980AB2800F0B9
:105F90008980AC2800F08980BB2800F08980BC286B
:105FA00000F08980AD2800F08980B02800F0898059
:105FB000AE2800F08980AF2800F08980B12800F079
:105FC0008980B22800F08980B32800F08980B42845
:105FD00000F08980B52800F08980B62800F089801B
:105FE000B72800F08980B82800F08980B92800F02F
:105FF0008980BD2800F08980BE2800F08980BA28F9
:1060000044F22A6418BF4FF48844B3E7C0F30C0489
:10601000B0E710F4006FC4B214BF44F4484444F431
:106020004044A7E7C0F30B0444F42044A2E703F084
:10603000030201249440C0F3011044F40C4444EAE8
:106040000024C3F3810344EA43139CB292E7980807
:10605000012403F003039C4044EA401444F40A443E
:106060002EE74AF2F40444EA032483E74AF2F000FC
:1060700040EA042424E700F00F0343F4204343F0F4
:10608000E003C0F3031443EA042473E744F28104F9
:1060900070E744F2E2446DE744F2E9446AE744F20F
:1060A000EA4467E744F2B54464E744F2B64461E782
:1060B00044F2B3445EE744F2B4445BE744F2B744CD
:1060C00058E744F2CC4455E744F2CD4452E744F259
:1060D00083544FE744F28A544CE744F2925449E720
:1060E00044F2945446E744F2216443E744F22364C3
:1060F00040E744F224643DE744F225643AE744F281
:10610000266437E744F2276434E744F26F4431E70A
:1061100044F270442EE7000082281AD00CD83128AF
:1061200054D004D829284AD02A2856D07047352878
:106130003ED039280DD07047E32823D004D8E0287A
:106140000ED0E22813D07047E62822D0E72829D0C5
:106150007047264B1B7813F0030F18BFE0207047E1
:10616000224B1B7813F0010F18BF392070471F4BCB
:106170001B7859071BD513F0100F08BFE32018BF79
:1061800000207047194B1B785A072DD413F0100FBD
:10619000F5E7164B1B78190709D513F0100F08BF48
:1061A000E720ECE7114B1B781A07EFD5E620704784
:1061B0000E4B1B7813F0200F18BF292070470B4B94
:1061C0001B7813F0200F18BF35207047074B1B7842
:1061D00013F0400F18BF2A207047044B1B7813F0B0
:1061E000400F18BF31207047E2207047FC37002075
:1061F000164B1B78590707D500F01802082A12D150
:1062000000F0F70040F004001A0707D500F018026C
:10621000182A11D100F0E70040F01400DB0648BF57
:1062200000F0E700704700F01402042A04BF00F0F9
:10623000FB0040F00800E7E700F01402142A04BF56
:1062400000F0EB0040F01800E8E700BFFC3700204A
:10625000014B1860704700BF8C300020024B18685B
:1062600008B10368184770478C300020F8B5124B0E
:106270001B680446FBB1114D5B6898472B785807A3
:1062800019D5D90702D50E4801F0E4FA0D4F04F1F3
:1062900008062B78DA0703D52178384601F0DAFAB8
:1062A0000134B442F5D12B78DB0704D50648BDE8AC
:1062B000F84001F0CFBAF8BD8C30002055310020F5
:1062C000091901001B1901001C1A0100044B9988CF
:1062D000814204D098801B680BB1DB681847704777
:1062E0008C300020044BD988814204D0D8801B68B0
:1062F0000BB11B69184770478C300020704708B5F8
:10630000FFF7FCFF08BD0120704708B501F03EFA19
:10631000FDF7E6FFBDE8084001F040BB38B50E4C84
:1063200023780546580711D5D90702D50B4801F047
:1063300091FA2378DA0703D52946094801F08AFA49
:106340002378DB0702D5074801F084FA2846BDE828
:106350003840FFF7F6BB00BF55310020211901007E
:10636000341901001C1A01002DE9F04385B0FEF735
:106370001BF8FFF7C8FF314EF8B9FF238DF808303E
:106380008DF8093000238DF80A3001F0C7F940F08C
:106390000100ADF80C0004AB13E9030000F052F863
:1063A000FFF75CFFF37A834244D0FFF757FFF072A8
:1063B00005B0BDE8F043FFF7B1BFDFF884800024EB
:1063C000E7B23846FEF77EF8355DA842814603D134
:1063D00001340B2CF4D1D0E798F80030980701D5A0
:1063E000FEF776F889EA05050023EDB245FA03F1D8
:1063F000C907DAB21AD501259D4019EA050F14BF65
:10640000012300238DF802308DF800208DF80170F3
:1064100001F084F940F00100ADF804009DE80300AC
:1064200000F010F8335D6B403355B9E70133082BAA
:10643000DCD1CDE705B0BDE8F08300BF943000208B
:10644000553100201FB58DE80300002103919DE820
:10645000030002AA0290ADF80C1092E8030000F0CD
:106460007BFD05B05DF804FB08B5008800F01CFF5B
:1064700008BD000008B5002800F09C80031FDBB2B7
:10648000A02B08D84C4B0146186801F0C9F8BDE8AC
:10649000084000F06DBF00F12003DBB2072B08D8E5
:1064A000012300F0070003FA00F0C0B200F08CFFF7
:1064B000EDE700F15B03DBB2022B0BD8A52807D078
:1064C000A6280CBF82208320BDE80840FFF7FEBE4F
:1064D0008120F9E700F15803DBB2162B6AD8A8280F
:1064E00032D0A92832D0AA2832D0AB2832D0AC285A
:1064F00032D0BB2832D0BC2832D0AD2832D0B02820
:1065000032D0AE2832D0AF2832D0B12833D0B22822
:1065100034D0B32835D0B42836D0B52837D0B628F3
:1065200038D0B72839D0B8283AD0B9283BD0BD28C0
:106530003CD0BE283CD0BA2840F22A2018BF002008
:10654000BDE80840FFF7CEBEE220F9E7E920F7E713
:10655000EA20F5E7B520F3E7B620F1E7B320EFE74F
:10656000B420EDE7B720EBE7CC20E9E7CD20E7E763
:1065700040F28310E4E74FF4C570E1E74FF4C970CF
:10658000DEE74FF4CA70DBE740F22120D8E740F2A3
:106590002320D5E74FF40970D2E740F22520CFE75A
:1065A00040F22620CCE740F22720C9E76F20C7E75A
:1065B0007020C5E708BD00BF480F002008B568B3CC
:1065C000031FDBB2A02B08D8154B0146186801F059
:1065D00041F8BDE8084000F0CBBE00F12003DBB27B
:1065E000072B08D8012300F0070003FA00F0C0B21F
:1065F00000F0F2FEEDE700F15B03DBB2022B04D802
:106600000020BDE80840FFF761BE5830C0B2162830
:1066100004D80020BDE80840FFF764BE08BD00BFF5
:10662000480F002008B528B100F0CEFEBDE80840B4
:1066300000F09EBE08BD08B528B100F0CDFEBDE853
:10664000084000F095BE08BD2DE9F04790F806A07F
:10665000857807460C464FEA1A1A0DB100F0DAFEAB
:1066600000F07CFE804670B125B304F12003DBB25C
:10667000072B1FD9022000F05DFE00F06FFE80F0B6
:1066800001005FFA80F8C4F30339B9F10F0F42D863
:10669000DFE819F01300130048004800950041009E
:1066A00041004100B60041000D010D01740141009F
:1066B000410092014FF00008E5E7C4F3072313F00F
:1066C000F00F16BF2609C4F3032606F0F006E4B265
:1066D00095B156B104F12003DBB2072B304600D947
:1066E0003CB900F071FE00F043FE2046FFF7C2FE09
:1066F00011E000F07FFEF6E72046FFF75FFF56B19E
:1067000004F12003DBB2072B304600D93CB900F07E
:1067100063FE00F02DFEB9F10B0F55D936E100F004
:1067200071FEF6E7C4F3072303F0F003202B18BF34
:106730002609E0B20CBFC4F3032606F0F00660B1F0
:1067400001282CD0ADB3BAF1000F2CD0BB79D907FA
:10675000CCD56FF30713BB7125E09DB1BAF1000FE3
:1067600006D100F07FFE3043C0B2FFF75BFFD2E7F7
:10677000BAF1010FF5D100F075FE3043C0B200F060
:1067800065FEC8E7BAF1000F05D100F065FE30469E
:10679000FFF751FFBFE7BAF1010FF6D1BBE725B113
:1067A000BAF1050FB7D83046DFE7BAF1040FB2D817
:1067B000EDE7BAF1000FEAD0FFF700FFABE7C4F353
:1067C00081236BB1012B13D0012303FA09F919F4CA
:1067D000506F00F0DB80FFF741FDFFF7B2F9D5E025
:1067E00025B1C4F30900FFF771FDEDE72846FAE78C
:1067F00025B1C4F30900FFF775FDE5E72846FAE780
:1068000014F4407F26D1002DE5D1C4F3421080005E
:10681000E206C3B204F00F0000FA03F644BF0F20F3
:106820009840C4F381244CBFC0432846022C07D0B3
:106830000AD8012C40EA060009D000F073FCC3E737
:10684000304300F077FCBFE700F06CFC304600F00E
:1068500061FCB9E7F5B1C4F30023002BBBD0C4F34E
:1068600042108000C3B204F00F0000FA03F514F0E8
:1068700010001CBF0F209840C4F3812418BFC043F0
:10688000022C0AD00DD8012C40EA05000CD000F0F3
:1068900099FC99E7C4F34023DFE7284300F09AFC12
:1068A00092E700F08FFC284600F084FC8CE7E6B20B
:1068B000A6F1E003142B50D8DFE803F00B0B0B0B11
:1068C0000B0B0B0B0B0B0B0B0B0B0B0B16232930B2
:1068D000390006F00F06C4F3042015B100F04AFC9D
:1068E00061E700F051FC52E745B1BAF1040F3FF601
:1068F00012AFC4F3042000F053FC0CE7BAF1050F0B
:10690000F5E735B1C4F3042000F034FC03E7002DB3
:10691000F8D0C4F3042000F037FCFCE625B1C4F342
:10692000042000F022FCF6E600F01CFCF3E64DB17A
:10693000C4F30424204600F01DFC0321204600F08F
:10694000F1FCE8E6012000F0F5FCBAF1010F7FF65A
:10695000E2AE022000F0EEFCDDE625B1BAF1000F58
:10696000D0D03046C2E6BAF1000FD2D0392E03D1D2
:106970005020002100F00CFF30461DE7C4F3032235
:10698000E1B23846FFF74EFA00F052FBB8F1000FC3
:1069900019D000F0BFFC10F0010014D1B87000F065
:1069A000B1FC00F0E7FB384600F00FF800F0AAFC5D
:1069B000BDE8F04700F0E8BBC4F30322E1B238467B
:1069C000FFF732FAE2E7BDE8F08737B5838802883F
:1069D000ADF804200446BBB1BDF804304FF6FF7299
:1069E0009A1A534253417BB9FFF7BEF860B1218830
:1069F000A07800F067FC054600F0F4FB00F073FBA4
:106A000029462046FFF720FE03B030BD08B500F050
:106A100001FD00F015FD074B186800F035FE00F091
:106A2000A7FC0020FFF752FC0020BDE80840FFF75C
:106A300059BC00BF480F002008B500F0D5FCBDE8E8
:106A40000840FFF7E3BF07B5ADF80400019800F078
:106A50002BFCC0F303330E3303F00F020D2A0CD8C6
:106A60000123934013F4105FC1B219D140F20330F7
:106A7000184004D113F010030BD100200DE0F029D1
:106A800002D003D8DF29F8D8012006E0F429F4D198
:106A9000FAE7DF29F8D9F129F6D003B05DF804FB55
:106AA000C0F3C020F9E782B002AB03E9030002B0F3
:106AB000704782B002AB03E9030002B070470000E8
:106AC00038B5094D2C7895F84230A34200D138BD35
:106AD00005EBC4030134D3F80200D3F80610FFF726
:106AE000E8FF04F00704EEE7A2300020024B586CE8
:106AF000996CFFF7DEBF00BFA2300020F7B5274B2F
:106B000093F84A20120909D193F8462032B1197836
:106B10004FF6FF7593F842208A4201D103B0F0BDD1
:106B2000B3F84820002A35D093F8446093F84570B4
:106B30008DF804608DF80570BDF80400A84229D0D6
:106B4000C8001C1894F803E0BE4523D1A778B742CB
:106B500020D12679F6B9E488944236BFAA1AA21A3F
:106B60001219C72ACCBF002201229AB193F84A20F9
:106B7000012161F3071283F84A20034408481A7A76
:106B800061F307121A72FFF720FF03B0BDE8F0406F
:106B9000FFF796BF013101F00701BBE7A2300020EB
:106BA000E63000202DE9F043C54C8FB00646B4F81E
:106BB000487000680890B4F844003278737896F80A
:106BC0000280B6F80490ADF8040008A9002F00F088
:106BD000308185B24FF6FF70854200F02A8194F82B
:106BE0004650002D00F025814F458ABFC71BA9EBF9
:106BF00007074F44C72FCCBF00270127002F00F005
:106C0000C68094F84A10B4F8445011F0F00F4FF6D3
:106C1000FF7076D185421DD08DF820208DF821306F
:106C20002846BDF82050854214D14546B8F1000FE2
:106C300010D1012363F3071184F84A10FFF756FFC0
:106C4000A048FFF7C2FE94F84A30B37128460FB04F
:106C5000BDE8F0834546B9F1000F47D08DF81C2000
:106C60008DF81D30BDF81C004FF6FF7188423DD0F5
:106C7000002D3ED1217894F842E071450FD18DF876
:106C800020208DF82130089800F00EFBC0F303326D
:106C9000C3B2032A1DD8DFE802F01313212104EB4D
:106CA000C10090F803C09C4506D190F802C09445FD
:106CB00002D100790028C9D1013101F00701DCE7D8
:106CC00010F4706F01D0002BC0D02033DBB2072B43
:106CD000BCD93046FFF779FE3D46B7E710F4706F38
:106CE000F3D0B27912F0F00FEFD1AFE7B8F1000FA7
:106CF000ACD094F84A3043F0010384F84A300025C0
:106D0000A4E7854217D08DF820208DF82130284641
:106D1000BDF8205085420ED1B8F1000F0BD1B171F2
:106D20003046FFF752FE33686364664A7368536007
:106D3000FFF7DCFED0E78DF820208DF82130089891
:106D4000FFF781FEF8B1B8F1000F1CD094F84A307B
:106D50001F2B0DD9B4F84420ADF8282000228DF85F
:106D60002A20ADF82C908DF82E300AA8FFF72DFEC2
:106D70003368544A636473685360FFF7BFFEFFF7DC
:106D8000B5FE012562E73046FFF71FFEF9E794F8EC
:106D90004A0010F0F00F13D18DF820208DF821302B
:106DA0008DF82280ADF82490464D03C9FFF77BFE95
:106DB0002846FFF70AFE67646F60FFF797FE9EE7BD
:106DC000B4F844704FF6FF718F4215D08DF8202033
:106DD0008DF821303946BDF820708F420CD1B8F1C2
:106DE000000F09D1B0713046FFF7EFFD354BC4F805
:106DF0004480C3F8048029E78DF820208DF82130E5
:106E00000898FFF720FE0028BDD0B8F1000FBAD0D7
:106E100094F84A301F2BABD9B4F84420ADF8302099
:106E200000228DF83220ADF834908DF836300CA861
:106E30009CE7B4F84400ADF81400002F70D080B285
:106E40004FF6FF75A8426BD094F84600002867D132
:106E50004F4539D8A9EB0707C72FCCBF002501251F
:106E6000002D4ED04546002D8DD0B4F844004FF68D
:106E7000FF71884231D08DF820208DF821300146F5
:106E8000BDF82000884228D194F84A300D4F13F005
:106E9000010F1DD11A091BD01A090F2A18BF013280
:106EA000B3711CBF62F30713B3713046FFF78DFD5A
:106EB0003368636473687B60FFF718FEC6E600BF43
:106EC000A2300020E6300020ED1B4D44C72DC4E762
:106ED0003368636473687B60B8E68DF820208DF8B2
:106EE00021300898FFF7AFFD00287FF441AF94F8F8
:106EF0004A30304643F0010384F84A30FFF765FD1D
:106F0000A4E68DF821308DF82280ADF824908DF81C
:106F1000202003C9FFF7C7FD0E4B65645D60CBE71A
:106F2000B8F1000F3FF42FAF8DF820208DF82130FD
:106F30000898FFF788FD054600283FF424AF336822
:106F40000448636473684360FFF78EFAFFF7D6FD69
:106F5000B2E700BFE630002070B586B08DE80300D0
:106F60006846FFF71FFE304C0646B8B1BDF8043046
:106F7000BDF80020ADF8082043B192B24FF6FF7380
:106F80009A4203D09DE80300FFF793FD274D207838
:106F900094F84230834227D106B070BD9DE80300CB
:106FA00004AB83E80300BDF80420BDF81010ADF871
:106FB0000C10002AEAD089B24FF6FF729142E5D058
:106FC00094F842202178551C05F007058D4220D009
:106FD00003CB04EBC20284F84250C2F80200C2F8AC
:106FE0000610FFF76DFDD1E705EBC000FFF7DAFDF6
:106FF0000028D1D0237804EBC303D3F80200D3F8E0
:107000000610FFF756FD2378013303F007032370C2
:10701000BDE7FFF711FD234684F8426003F8446B97
:1070200066645E60B8E700BFA2300020A430002094
:10703000F8B50346002855D0002501261878732896
:1070400003F1010406D8042820D201280AD002281E
:107050001FD0F8BD752836D02AD3A0F184036F2B3A
:1070600034D9F8BD9C1C5B7803F12002D2B2072A08
:107070000BD803F007039840C0B200F0D1F900F03C
:1070800077F92F463FBB2346D8E71846FFF7F2F9BA
:10709000F7E758789C1C00F12003DBB2072B17D8C8
:1070A00000F0070006FA00F0C0B200F0C1F9E6E710
:1070B0005F789C1C002FE4D001200021013F00F0EC
:1070C00067FBFFB2F6E79C1C5D78DAE700F07F0013
:1070D000FFF774FAD5E701200021013F00F058FBCB
:1070E000FFB2CFE7F8BD70477047FFF7FDBF08B5A7
:1070F000FFF7FBFF08BD000008B5FFF7F8FF034BE3
:107100001860BDE80840FFF781BC00BFF0300020E8
:10711000FFF7F2BF024B1B681843FFF7EDBF00BF3C
:10712000F0300020024B1B681840FFF7E5BF00BF9E
:10713000F0300020024B1B685840FFF7DDBF00BF56
:10714000F030002008B5FFF7CFFF08BD08B5FFF706
:10715000F9FF034B5860BDE80840FFF757BC00BF7C
:10716000F03000200020FFF7F1BF012303FA00F008
:10717000FFF7ECBF012303FA00F0024B5B681843F2
:10718000FFF7E4BFF0300020012303FA00F0034BC7
:107190005B6823EA0000FFF7D9BF00BFF030002092
:1071A000012303FA00F0024B5B685840FFF7CEBFA3
:1071B000F0300020024B5B681843FFF7C7BF00BFE9
:1071C000F0300020024B5B681840FFF7BFBF00BFE4
:1071D000F0300020024B5B685840FFF7B7BF00BF9C
:1071E000F030002070470000C0F3072300EBC3031A
:1071F00003F0FF0337B503F0070201209040DB08DE
:107200000A4A03EB8303C0B2134400245D7821FAD9
:1072100004F242F300026A40024001346A40052C45
:1072200003F8012FF2D103B030BD00BFF7300020CA
:10723000C0F3072313B500EBC30000F0FF0000F01C
:1072400007040949C00800EB8000002201441046F1
:107250008B5CE34003F00103934001321843052A9D
:10726000C0B2F5D102B010BDF830002073B50D4B9F
:10727000ADF8040028CB1F241D4325FA04F3DB07D7
:1072800066B206D414F1FF34F7D20026304602B0BD
:1072900070BD0199E0B2FEF7DFFD80B20128F1D0A8
:1072A000F4E700BFF030002007B5ADF80400019806
:1072B000FFF7DCFF0199C0B2FEF7CEFD03B05DF829
:1072C00004FB000013B50E4BADF804101B7823B17E
:1072D0000198FFF7E9FF02B010BD60B10198FFF718
:1072E000C5FFC4B221460198FFF77EFF01992046F1
:1072F000FEF7B2FDEFE70198FFF79AFF0446F5E7C6
:10730000A0300020024B93F90100C0F3C700704782
:107310002F310020024B587800F00700704700BF63
:107320002F310020024B41EAC0015970FFF722BF04
:107330002F310020084A92F9013023EA000040B2C0
:107340005070420706D1DBB2834203D0C0F3C700BE
:10735000FFF71ABF704700BF2F310020034B58784A
:1073600010F0070018BF0120704700BF2F31002028
:1073700038B5104C104D2268A97811702168E87852
:107380000A7802430A70216828790A7802430A7051
:1073900095F905204AB1236819780A431A702068C4
:1073A00000F0C8F808B100236B712068BDE83840D0
:1073B000FEF75CBF480F00202F310020014B98786A
:1073C000704700BF2F310020024A93781843907015
:1073D000704700BF2F310020024A937823EA000053
:1073E000907070472F310020014B00229A70704737
:1073F0002F310020024AD3781843D070704700BF65
:107400002F310020024AD37823EA0000D070704761
:107410002F310020014B0022DA7070472F310020FD
:10742000024A137918431071704700BF2F310020B2
:10743000024A137923EA0000107170472F310020AF
:10744000014B00221A7170472F310020014B5871F7
:10745000704700BF2F310020014B00225A71704746
:107460002F310020014B5879704700BF2F31002089
:1074700008B5002000F03CFA4FF6ED63C31A5842FD
:10748000584108BD022000F02DBA0146022000F04C
:1074900039BA032000F026BA0146032000F032BAC0
:1074A000042000F01FBA0146042000F02BBA014668
:1074B0000F2000F035BA0146132000F031BA002049
:1074C000FFF7F9BF08B50020FFF7F1FFFFF7F7FF5F
:1074D00008BD000010B54FF6ED61002000F018FA6D
:1074E0000021022000F00EFA00210320002400F009
:1074F00009FA0E4B214604201C6000F003FA2146D5
:10750000052000F0FFF92146062000F0FBF9FF21DD
:10751000072000F0F7F92146082000F001FA214683
:107520000D2000F0EFF9FFF7CDFF10BDF030002087
:10753000FFF7D0BF0C4B1B78821C5BB10B4B93F950
:107540000030002B06DA421C1F23134400209A420D
:1075500002D170470623F8E712F8011B0029F6D084
:107560000130C0B2F3E700BF28240020FC37002020
:1075700030B54FF0FF33851C002215F8014B8C42CB
:107580000CD0B3F1FF3F02D1002C08BF13460132EB
:10759000D4B2062C62B2F0D15A1C00D130BD1844CE
:1075A000817030BD10B5831C002208301C788C42DD
:1075B00008BF1A7001338342F8D110BDCA081F2AD0
:1075C00008D0104401F00703012199404378194382
:1075D00041707047034B1B78DB0702D5024800F06F
:1075E00039B970475531002039190100CA081F2ADE
:1075F00009D0104401F0070301229A40437823EA9E
:10760000020343707047044B1B78DB0702D5034825
:1076100000F020B9704700BF553100205719010014
:1076200010B40A4C247803460A4644B1084C94F935
:107630000040002C03DA5DF8044BFFF7BFBF114692
:1076400018465DF8044BFFF793BF00BF28240020C5
:10765000FC37002010B40A4C247803460A4644B193
:10766000084C94F90040002C03DA5DF8044BFFF756
:10767000BDBF114618465DF8044BFFF793BF00BF2E
:1076800028240020FC370020084B1B784BB1084B06
:1076900093F90030002B04DA1F220021013006F09C
:1076A0003FB90023C0F80230C3807047282400206F
:1076B000FC3700207047FFF7FDBFFFF7FBBF10B599
:1076C000FFF7FBFFFCF770FEFFF7F5FF0024E0B2C9
:1076D000FCF7F8FE18B901340B2CF8D110BD0120CD
:1076E00010BDFFF7E7BF08B5FFF7FBFF08BD08B502
:1076F000002001F061FBFFF7F6FF08BD08B5FFF7BA
:10770000D9FF08BD08B5044B1B7813B1012001F067
:1077100053FBFFF7F3FF08BDB25A0020024BD3E939
:10772000000180B2704700BFC0560020014BD3E972
:1077300000017047C056002030B5084BD3E9004522
:10774000A4B2A04204D8D3E90045201A80B230BDCB
:10775000D3E90023013A101AF8E700BFC056002011
:1077600030B5054BD3E90045D3E90023A04288BFDB
:1077700002F1FF32101A30BDC0560020024B00202B
:107780000021C3E900017047C0560020FFF7F6BF93
:1077900000F03ABE70B5294B88B001AA03F1180673
:1077A000154618685968144603C40833B342224684
:1077B000F7D11B88238042F29F13A3F506521F3A8C
:1077C000AA5C52B313F8011F9142F6D01C4B1A78F1
:1077D0006FF341021A701A4691688807FCD41A7830
:1077E000C2F34002002AFAD1597862F307115970A6
:1077F000597862F303015970997862F30301997023
:107800001A7842F002021A700D4B1A4699688907DD
:10781000FCD413789B07FCD5FEE70A4B0A4A43F8D1
:10782000102CBFF34F8F0949094BCA6802F4E0627C
:107830001343CB60BFF34F8F00BFFDE77519010005
:10784000002000400000022000CA9A3B00ED00E04A
:107850000400FA050FB41F4B2DE9F34798461A7838
:10786000002AFCD10BAB0A9A1B4801934FF400711C
:1078700006F0DEF8184E194FDFF864900446202514
:10788000002C04DC02B0BDE8F04704B0704798F863
:10789000003003F0FF01002BF9D1EFF3108A72B62C
:1078A000BFF35F8F1F2C04DC2022384606F038F827
:1078B00025462A463146384605F098FF012389F8C7
:1078C000003003F005FABFF35F8F8AF31088641B62
:1078D0002E44D5E7415B002056310020445B002058
:1078E000385B0020014B185C704700BF5633002006
:1078F000034BC218185C527840EA0220704700BF60
:1079000056330020014B1954704700BF56330020F6
:10791000024B19541844090A41707047563300202D
:10792000044B195418440B0A43700B0C090E837056
:10793000C1707047563300202DE9F34100250746FA
:10794000EEB23046FCF7BEFD0024804648FA04F251
:10795000D207E3B209D40134082CF7D101350B2D3D
:10796000EED1002002B0BDE8F0818DF804308DF832
:10797000056001990020FEF759FA8742EBD10120FA
:10798000F0E710B504462C20FFF7D6FF20B12046C3
:10799000BDE81040FFF7D0BF10BD000010B5FFF7E5
:1079A00067FD08B9FFF7C4FD8348FFF753FF65245F
:1079B000013C14F0FF0440F0D2808048FFF74AFFFA
:1079C0002920FFF7DEFF002840F0F4802A20FFF78F
:1079D000D8FF08B1FFF7ACFD0520FFF7D2FF08B1D3
:1079E000FFF7D8FEFFF74EFD754C20700720FFF71C
:1079F000C8FF68B11B20FFF7C4FF002800F0B68065
:107A00002378C3F3400282F0010262F34103237042
:107A100020786C4CFFF739FDFFF742FD2080E02015
:107A2000FFF7AFFF38B12378C3F3000282F0010201
:107A300062F3000323703920FFF7A3FF38B12378E6
:107A4000C3F3400282F0010262F341032370E2209B
:107A5000FFF797FF38B12378C3F3800282F0010269
:107A600062F382032370E620FFF78BFF38B123789F
:107A7000C3F3C00282F0010262F3C3032370E32068
:107A8000FFF77FFF38B12378C3F3001282F00102C1
:107A900062F3041323703520FFF773FF38B12378A6
:107AA000C3F3401282F0010262F3451323703120C8
:107AB000FFF767FF38B12378C3F3801282F0010229
:107AC00062F3861323701120FFF75BFF38B1237830
:107AD000C3F3C01282F0010262F3C713237020784F
:107AE000FFF7E1FC2720FFF74CFF04461E20FFF7BD
:107AF00048FF10B144F00204E4B21F20FFF741FF39
:107B000010B144F00404E4B22020FFF73AFF10B1B2
:107B100044F00804E4B22120FFF733FF10B144F031
:107B20001004E4B22220FFF72CFF10B144F020042F
:107B3000E4B22320FFF725FF10B144F04004E4B283
:107B40002420FFF71EFF80B364F07F04E4B22046D8
:107B5000FFF7A2FC2046BDE81040FFF7D9BAFCF7BA
:107B600023FC0A200021FFF713FE21E70E20FFF778
:107B700008FF38B12378C3F3800282F0010262F378
:107B8000820344E71020FFF7FCFE237830B1C3F3F3
:107B9000C00282F0010262F3C30338E7C3F30002BC
:107BA00082F0010262F3000331E7002CCFD1FFF72E
:107BB00070FCD0E710BD00BF8F190100A4190100AF
:107BC00055310020FC3700200C490D4A4F230B6033
:107BD000136A43F0800313620A4BD3F8202101207B
:107BE00060F30302C3F82021D3F8202142F04002C1
:107BF000C3F8202150230B60704700BFCC560020F3
:107C000000080040001C00404F4A512313604F4BB6
:107C100001200221C3F88400C3F884100421C3F8B2
:107C2000841093F8B01060F3030183F8B01093F858
:107C3000B01060F3071183F8B01093F8B11060F33F
:107C4000030183F8B11093F8C010014383F8C0100A
:107C500093F8C110014383F8C11093F8C210014397
:107C600083F8C2103A4B1988014319805220196BCE
:107C7000C9074AD4364B5320198811F0010146D167
:107C8000188861F30A201880997A022060F30301B2
:107C900099722F4B5420196B89063AD4997A11F0B6
:107CA0000F0038D1997A60F306119972284955204E
:107CB0000B6B9B0641D4CB7A2D2060F30503CB726E
:107CC000234B5620196BC1F38011002937D1B3F82B
:107CD000480061F30200A3F84800B3F8480061F3DC
:107CE0000610A3F84800B3F8480061F30A20A3F88F
:107CF0004800198841F002011980154957200B6B83
:107D00009B071ED45823136070471060AFE71060C4
:107D1000B2E71060BFE7987A00F00F000128C1D0E9
:107D2000987A00F00F000228BCD0987A00F00F007B
:107D30000328B7D0997A0420B5E71060B8E710603F
:107D4000C0E71060DBE700BFCC5600200080004198
:107D5000001C00430C4B9A8860F304029A801A6B53
:107D60005007FCD41A7D42F002021A75064A1346E7
:107D7000116B0905FCD493F82E20D207FBD5B3F87C
:107D8000400080B2704700BF001C004310B54B4A52
:107D90004B49322313604B4B0B600B680B624A4B11
:107DA00058696FF34100586158690D2464F3175006
:107DB0005861586940F4004058615869052464F3DB
:107DC000CE205861586940F4C060586158696FF31B
:107DD000C7105861586940F004005861586940F074
:107DE0000200586133241869C0073AD5374808653E
:107DF00093F830006FF3410083F83000324B3424A5
:107E0000D86B80072FD4986B022464F347109863D3
:107E1000986B072464F31A409863586B2F2464F31B
:107E20000C005863284B3520DC6BC4F38004E4B9A4
:107E300093F8300064F3C71083F8300093F83000F3
:107E400040F0020083F830001F483624C36B9B07C4
:107E50000DD41D483724036CDB070AD51A4C382093
:107E60000AE01460BFE71460CAE71060DCE7146042
:107E7000ECE71460EFE71060236C9B07FBD5086DFF
:107E8000A36B646BC3F30A43C4F30C0440080133CF
:107E9000B0FBF3F304FB03334B600D4B186A07246C
:107EA00064F30300186239245868400704D44B680F
:107EB0000B623A23136010BD1460F5E7CC56002026
:107EC00050560020006CDC02001000400024F4003A
:107ED000001C00402D4B222270B51A602C4A23252D
:107EE0005468C4F38B04002C45D100F10804072624
:107EF00052F8245066F3030542F82450244D2426FA
:107F00006A68C2F38B02002A37D18000214D00F14C
:107F1000804000F5E0506A68B2FBF1F1C9B24184DB
:107F200029461B4D25266A68C2F38B023ABB55F8D9
:107F3000246062F30C36164A45F8246026265568FC
:107F4000C5F38B05EDB952F8245045F4807542F81D
:107F500024500F4D27266A68C2F38B029AB94A68EB
:107F6000408C80B2B2FBF0F241F8242028221A6043
:107F700051F8240070BD1D60B2E71E60C0E71E60AE
:107F8000D1E71E60DBE71E60E5E700BFCC560020AE
:107F9000001C004050560020204B214929221A6025
:107FA0002A204A68C2F38B02002A2DD1486A62F364
:107FB00003001B4A48622B205168C1F38B0129BB87
:107FC000516AC0F20101516215492C204A68C2F37E
:107FD0008B02EAB9486A62F30C30114A48622D20DC
:107FE0005168C1F38B01A9B9516A41F480715162A2
:107FF0000B492E204A68C2F38B026AB9094A116DF7
:1080000051622F221A6070471860CAE71860D3E7E0
:108010001860DBE71860E3E71860EBE7CC56002058
:10802000001C0040505600201D4B1E4A002100201D
:10803000C3E90001302313601B4B19686FF3410142
:1080400019601969C1F340010029FAD1174B18686A
:1080500061F3410018601969C1F340010029FAD1A8
:10806000114B99821969C1F300110029FAD10F4B04
:1080700059611969C906FCD4196841F002011960F7
:108080000A490B699807FCD4074B196841F00201B3
:10809000196019698907FCD431231360704700BF48
:1080A000C0560020CC56002000140042003800408A
:1080B000074B9A7AD20609D5102206499A72D1E95D
:1080C0000023013243F10003C1E90023704700BFE0
:1080D00000140042C0560020084B9A7AD1060BD5F6
:1080E00010229A72064A012111701A686FF3410238
:1080F0001A601A699207FCD4704700BF001800424A
:10810000B856002038B59D4C9D49092302202360B4
:10811000FFF7E0FEFFF740FF9A4AD36943F02003E0
:10812000D361994BD3F8F810022060F30301C3F830
:10813000F810D3F8F81041F04001C3F8F810D169F5
:1081400041F04001D161D3F8F82060F30302C3F895
:10815000F820D3F8F82042F04002C3F8F8200D23AD
:1081600023608A4B1A686FF341021A600E211A6964
:10817000920700F1EA801A6842F001021A60834A0D
:108180000F211369DB0700F1E280804B10211A6890
:10819000D50700F1DE8005221A717C4B11211A6986
:1081A000500700F1D88040F2E7329A83774B1221D2
:1081B0001A69C2F38012002A40F0CF80197B012097
:1081C00060F301011973D98841F48051D980704955
:1081D0004FF40040C860597A41F0100159721323DE
:1081E0002360142323606B4B196862F3410119600B
:1081F00015211A69920700F1B2801A6842F0010253
:108200001A60644A16211369DD0700F1AA80614BE8
:1082100017211A68D00700F1A68005221A715D4B5C
:1082200018211A69C2F38002002A40F09E80197B4F
:10823000012060F301011973D98841F48051D9807C
:1082400053494FF48030C860597A41F01001597297
:108250004C49192323604B6943F480434B614A4BDB
:10826000D3F8A400022565F30300C3F8A400D3F8F3
:10827000A40040F04000C3F8A400486940F4004066
:108280004861D3F8A41065F30301C3F8A410D3F830
:10829000A41041F04001C3F8A4101A2323603E4B00
:1082A000196862F3410119601B211A6992075ED4B3
:1082B0001A6842F001021A60374A1C211369DB0771
:1082C00057D4354B1D221D6815F0010553D119688F
:1082D000022262F383011960D98841F02001D9801C
:1082E000D98862F30201D9801E23236025491F2308
:1082F00023608B6943F080038B61234BD3F8AC1070
:1083000062F30301C3F8AC10D3F8AC2042F0400292
:10831000C3F8AC20214B0121C3F8D0111A6A61F3D4
:108320008B221A621A6A65F309221A621A6A5621A6
:1083300061F306021A6220232360FFF775FEFFF740
:1083400043FC21232360284638BD21600FE72160CC
:1083500017E721601BE7216021E7216028E7216002
:1083600047E721604FE7216053E7216059E721602B
:108370009BE72160A2E72260A5E700BFCC56002062
:1083800040420F0000080040001C00400014004262
:1083900000E100E0001800420038004000E0004129
:1083A000014BD3E900017047C056002010B5144AB4
:1083B000144B002111701C6814F0020F144614D1E4
:1083C00009281AD90A3880B20E4B98831A695206C6
:1083D000FCD41A6842F002021A600A4A13699B0729
:1083E000FCD42378002BFCD010BD1A6861F3410245
:1083F0001A601A699107FCD4E2E70020E4E700BFA5
:10840000B85600200018004230B5074BD3E90045AC
:10841000001941F10001D3E9004500258D4208BF54
:108420008442F8D330BD00BFC0560020032813D8C3
:10843000DFE800F002080D130A4A536943F4805341
:1084400053617047074A536943F40053F8E7054AFC
:10845000936943F4007393617047024A936943F44C
:108460008063F8E700080040F8B51E4F1E4E072352
:1084700056F820503B600446FFF7D8FF06441B4ADD
:10848000337E203352F823006FF3030042F82300B9
:1084900052F8230040F0400042F823002B6843F0DC
:1084A00001032B603846EB69DA07FCD42B68DB0745
:1084B000FCD40F4A136A5B08B3FBF1F10139C9B26E
:1084C0002973136A297B0234013102EB84045B08AF
:1084D000B3FBF1F35365536D636008230360506D84
:1084E000F8BD00BFCC560020AC190100001C0040B4
:1084F00050560020F8B5204F204E052356F8205046
:108500003B600446FFF792FF06441D4A337E20334A
:1085100052F823006FF3030042F8230052F82300BF
:1085200040F0400042F823002B6843F001032B6029
:108530003846EB69DA07FCD42B68DB07FCD4114A18
:10854000136A5B08B3FBF1F1EB680139C9B261F35F
:108550000703EB60136AE9680234C9B2013102EB28
:1085600084045B08B3FBF1F39365936D63600623AA
:108570000360906DF8BD00BFCC560020AC1901001F
:10858000001C004050560020F8B5204F204E032319
:1085900056F820503B600446FFF748FF06441D4A4A
:1085A000337E203352F823006FF3030042F8230098
:1085B00052F8230040F0400042F823002B6843F0BB
:1085C00001032B603846EB69DA07FCD42B68DB0724
:1085D000FCD4114A136A5B08B3FBF1F1EB680A396A
:1085E000C9B261F30703EB60136AE9680234C9B2E8
:1085F0000A3102EB84045B08B3FBF1F3D365D36D5E
:10860000636004230360D06DF8BD00BFCC5600202A
:10861000AC190100001C00405056002010B5074C5A
:108620000748012368220021236005F079F9FFF74C
:10863000ADFBFFF767FD0223236010BDCC56002081
:108640005056002009282DE9F0475ED963285ED9ED
:10865000B0F57A7F5DD342F20F7398425BD94C4BF1
:1086600098425AD94B4B984259D94B4B984258D9BA
:108670004A4B984257D94A4A904294BF082209224D
:10868000484F494BDFF83081DFF830E1DFF83091B7
:10869000464D4FF00A0C1446012614F1FF3444D223
:1086A000B0FBF6F406FB1400002C51D14FF000642F
:1086B0003C601D601C68002C3AD14FF00064CEF87D
:1086C00000401D601C68002C36D14FF000643C60F7
:1086D0001D601C68002C33D14FF00064CEF80040C0
:1086E0001D601C68002C2FD1314C1C601C68002CB4
:1086F00047D1013A52B2541CCDD121B12D4A1A6052
:108700001A68002A40D1BDE8F0870022B8E70122AC
:10871000B6E70222B4E70322B2E70422B0E705225B
:10872000AEE70622ACE70722AAE70CFB06F6B4E7A1
:108730001C68013C1C60BDE71C68013C1C60C1E773
:108740001C68013C1C60C4E71C68013C1C60C8E755
:108750004FF0006AC7F800A0C3F800801E6846B951
:10876000CEF800A0C3F800901E6836B9013CF1D1E4
:10877000BAE71E68013E1E60F0E71E68013E1E60FB
:10878000F2E71C68013CB0E71A68013AB7E700BF9E
:108790009F8601003F420F007F969800FFE0F5059D
:1087A000FFC99A3B18800041C856002090D00300B2
:1087B00060E31600808D5B0040420F001480004192
:1087C00020A1070008B5034C20680121FFF73AFFFC
:1087D000FAE700BFCC560020214B00211960214B45
:1087E0004FF00042C3F88420C3F8982093F8DF20AC
:1087F00042F0020283F8DF2093F8DF2042F0040207
:1088000083F8DF2093F8DF2042F0010283F8DF20B5
:1088100093F8BF2061F3071283F8BF20124A53690F
:1088200043F480635361114B1A7842F001021A70CD
:108830005A68D207FCD44FF400429A611A611A6A4E
:10884000022161F31E721A621A780A431A70074AEB
:1088500053689B07FCD4064B4FF000621A607047C8
:10886000CC56002000800041000800400028004055
:1088700000E100E00C4B4FF00062C3F88020BFF332
:108880004F8FBFF36F8F094B1A786FF341021A7045
:108890005A68C2F34002002AFAD1054B596962F3C3
:1088A0008A215961704700BF00E100E000280040C4
:1088B0000008004010B5294C2949592300202360A5
:1088C000FFF718FE274B93F83420022161F30302CF
:1088D00083F8342093F8342061F3071283F83420AE
:1088E00093F8482042F0010283F8482093F8492089
:1088F00042F0010283F849201B4B1A68052161F3FD
:1089000084021A601A686FF319621A601A6842F0DA
:1089100080021A601A6842F002021A605A20224647
:10892000D969890713D4598B012060F30511598344
:108930000D495B20CB695B070BD40B495C204B8B4B
:10894000C3F30113012B06D15D23136010BD10602A
:10895000E6E71060EEE71060F1E700BFCC560020BC
:10896000A08601000080004100300040084B5A6A98
:1089700060F30A025A62DA695107FCD41A7ED20700
:10898000FCD5034A538B5B07FCD40120704700BF22
:1089900000300040104B5A8B110607D41A7ED207C4
:1089A00004D45A8BC2F30112012A14D05A6842F43B
:1089B00040325A60084A1346D1694807FCD45A8BA2
:1089C0001106FCD41A7ED207FCD4034A538BC3F39E
:1089D0000113012BFAD170470030004038B50D4625
:1089E0001446B2B1FFF7C2FF0B4A013C6B1E15FAE9
:1089F00084F1104613F8014F9462047EE507FCD51C
:108A0000448B6407FCD48B42F4D1FFF7C3FF0120F1
:108A100038BD104638BD00BF0030004010B52F4CA7
:108A20002F495E2301202360FFF7AEFD2D4B93F805
:108A30003820022161F3030283F8382093F83820AC
:108A400061F3071283F8382093F8502042F00102B6
:108A500083F8502093F8512042F0010283F851200E
:108A6000214B1A68052161F384021A601A680121FA
:108A700061F319621A601A6842F080021A605A683B
:108A800042F480725A60194A4FF4802151609A7DF5
:108A900042F080029A751A6842F002021A605F2062
:108AA0002246D969890713D4598B012060F3051137
:108AB00059830D496020CB695B070BD40A496120BB
:108AC0004B8BC3F30113012B06D16223136010BD3E
:108AD0001060E6E71060EEE71060F1E7CC5600208A
:108AE000A0D90800008000410034004000E100E00F
:108AF000084B5A6A60F30A025A62DA695107FCD4D9
:108B00001A7ED207FCD5034A538B5B07FCD40120A5
:108B1000704700BF00340040104B5A8B110607D439
:108B20001A7ED20704D45A8BC2F30112012A14D040
:108B30005A6842F440325A60084A1346D1694807DD
:108B4000FCD45A8B1106FCD41A7ED207FCD4034AFB
:108B5000538BC3F30113012BFAD17047003400404B
:108B600038B50D461446B2B1FFF7C2FF0B4A013CBF
:108B70006B1E15FA84F1104613F8014F9462047EBF
:108B8000E507FCD5448B6407FCD48B42F4D1FFF796
:108B9000C3FF012038BD104638BD00BF003400407F
:108BA00013B5084B084C1B88ADF8043040F2E113B4
:108BB00058430222002301A9205CFFF7D1FF02B035
:108BC00010BD00BFCA190100E056002013B5FD23F7
:108BD0008DF8043040F2E1135843054C8DF8051030
:108BE0000023022201A9205CFFF7BAFF02B010BDEA
:108BF000E056002013B50A438DF80520084A094CB9
:108C000012788DF8062040F2E1125043002303222F
:108C100001A9205C8DF80430FFF7A2FF02B010BD5F
:108C2000A75A0020E056002013B50F238DF804301A
:108C300040F2E1135843064C8DF805108DF80620DC
:108C40000023032201A9205CFFF78AFF02B010BDB8
:108C5000E056002010B51F4C1F4A65232360802377
:108C600013701E4A13701E4A00201370FFF798FFFE
:108C700003210020FFF7AAFF002101220846FFF789
:108C8000B9FF0120FFF78CFF03210120FFF79EFFB2
:108C9000012210460021FFF7ADFF0020FFF780FF03
:108CA00003210020FFF792FF052211460020FFF765
:108CB000BBFF0120FFF774FF03210120FFF786FFB0
:108CC000052211460120FFF7AFFF66232360012034
:108CD00010BD00BFCC560020A75A0020C85A002063
:108CE000A35A00202F4967230B602F4B1A886FF37C
:108CF00041021A801A889207FCD41A8842F00102B5
:108D00001A80294B1A8812F00100FBD1274A5A63B6
:108D1000274A9A631A8892B242F470621A801A6CD7
:108D200060F341021A64204A1346106C8007FCD499
:108D3000106C40F0010010641A6C12F00102FBD1BB
:108D4000186C62F31D701864186C62F31B60186471
:108D50001A6C022060F315521A641A6C072060F333
:108D60000E221A641A6C42F040021A64114A4FF043
:108D70000040106093F84D2042F0020283F84D202D
:108D800093F84D2042F0010283F84D201A8842F0FA
:108D900002021A80044A13889B07FCD568230B60E3
:108DA000704700BFCC56002000A00041C036002014
:108DB000B036002000E100E010B5084C6923421EE7
:108DC0002360074B504250411A7860F304121A7026
:108DD00001F044F96A23236010BD00BFCC56002087
:108DE000F05A002010B50C4C632300202360FFF7DD
:108DF000E3FF01200021FFF707FB084B1A786FF310
:108E000045121A7001F02AF901200021FFF7FCFA3F
:108E100064232360012010BDCC560020F05A0020AE
:108E2000104B1A886FF34F321A801A886FF30C3286
:108E30001A801A886FF3CB221A801A8842F4806253
:108E40001A801A886FF309221A801A886FF3C402F5
:108E50001A801A886FF342021A801A8842F00102BF
:108E60001A807047C036002008B5FFF7D9FF054BC0
:108E70008AB25A800844044A58609A600022DA6034
:108E800008BD00BFC036002028340040094A136CDA
:108E900043F002031364084B40F2E1125B88504335
:108EA000064A1B04125C43F400531343044A536202
:108EB000704700BF00A00041C0360020E0560020EF
:108EC0000034004010B504460648FE23037002211A
:108ED000C5234370FFF7C8FF2046BDE81040FFF7E9
:108EE000D5BF00BF7633002010B504460548FD23EA
:108EF000417002210370FFF7B7FF2046BDE8104024
:108F0000FFF7C4BF7633002010B50446064801239E
:108F10000370064B02211B784370FFF7A5FF204624
:108F2000BDE81040FFF7B2BF76330020A75A0020FB
:108F300038B50B490B4B0446C12540F2E11000FB4C
:108F400004112A46184604F051FC002229460270FA
:108F5000FFF78AFF2046BDE83840FFF797BF00BF04
:108F60002C570020763300200E4A38B540F2E1132A
:108F700003FB00230C4A0446114603F1180053F882
:108F8000045B42F8045B8342F9D11B781370002321
:108F90000B7005481921FFF767FF2046BDE83840F0
:108FA000FFF774BFE15600207633002010B5084C5F
:108FB0006422002104F1FF0004F0B2FC054A002302
:108FC00084F8633184F86431137084F8653110BD1E
:108FD00076330020D0560020044B93F8630193F8B9
:108FE0006431C31A58425841704700BF763300209D
:108FF000064B93F8640193F863316422C01A90FB26
:10900000F2F302FB1300C0B2704700BF76330020BA
:1090100008B5FFF7EDFFC0F16300C0B208BD000066
:10902000074A92F86431D118013381F8FF006420B7
:1090300093FBF0F100FB113382F86431704700BFFD
:1090400076330020054991F863316420013393FBA6
:10905000F0F200FB123381F8633170477633002061
:1090600008B50146FFF7D4FF88420D4A11D292F8A5
:1090700065310133DBB2632B82F865310DD9094BC1
:109080004FF000621A60FFF72DFEFFF78FFF0120FF
:1090900008BD002382F86531F9E7002008BD00BF54
:1090A000763300201880004138B5FFF795FF2B4B31
:1090B00010B10020187038BD1A780120A2B9284CD0
:1090C000187094F86331234493F8FF30652B0CD16A
:1090D000FFF7B8FF94F863311C4494F8FF00FFF7E2
:1090E000F1FEFFF7AFFF012038BD662B11D1FFF76E
:1090F000A9FF94F86331234493F8FF50FFF7A2FFD0
:1091000094F863311C44284694F8FF10FFF7ECFEF6
:10911000E7E7672B09D1FFF795FF94F863311C440B
:1091200094F8FF00FFF704FFDBE7682B09D1FFF796
:1091300089FF94F863311C4494F8FF00FFF7E4FEC4
:10914000CFE7692BCDD1FFF77DFF94F863311C4445
:1091500094F8FF00FFF708FFC3E700BFD0560020D8
:1091600076330020034B1A7ED2091CBF80221A7668
:10917000704700BF0034004008B50C4B93F84E20F8
:1091800091070BD5022283F84E20FFF7C5FC084B50
:1091900000221A70BDE80840FFF786BF93F84E2002
:1091A000D20744BF012283F84E2008BD00A0004131
:1091B000D056002038B53A4B3A4A1978A9B13A4B03
:1091C0001B781370394B3A4C188840F69703984235
:1091D0000DD80020FFF7F0FD14232370354B00223B
:1091E0001A70354B01221A7038BD344BE8E72078ED
:1091F000012802D90138207038BD07D1FFF7DCFD06
:109200002F4801F03BFB0023237038BD2A4B187810
:10921000284B98B12B480088B0F51B6F26D340F639
:10922000EC15A84203D91D78107885420AD3187826
:10923000127890421AD80023637038BD18781278DB
:109240009042F7D21A78C2F1A501012902DCA522C9
:109250001A70F0E70232FBE7023AD2B21A70012923
:109260004FF0000363701AD10F4BBCE71A78012A44
:10927000F2D800251D70144B1B78012B0FD1637899
:109280000133DBB2C82B637009D9032002F030F838
:109290000E4B0F481D70BDE8384001F0EFBA38BDE5
:1092A000A85A0020A55A0020B35A00204C5600208E
:1092B000DC340020A75A0020865B0020A35A00203F
:1092C000CC1901004E560020A95B0020AA5B0020AB
:1092D000F41901002DE9F84F304C002140F2C23260
:1092E000204604F01DFBA0232370BE2384F8E13147
:1092F0002B4B2C49D3F8A8E3204640F2E11C4FF059
:1093000008084FF00109714501D3BDE8F88F0A7CC8
:10931000CD7C91F811B08C7C0F7D013A0CFB02F2F0
:1093200002F14C0A013D82440BEB05135344013C0E
:109330008B600BEB04135344013F4B600BF1FF3385
:109340000BEB071B0AEB0B06CE60D3F1000A93FB75
:10935000F8F602F1010206EB4505024405F10105AC
:109360000AF0070A03F0070358BFCAF1000309FA1D
:1093700003F312F805A05BB243EA0A0A06EB4404C1
:1093800002F805A0013406EB4706155D1D4315558F
:1093900001362C31945D23439355B4E7E056002009
:1093A000442000204C0F002070B52F4A2F4B9FED1A
:1093B000307ADFED307AD2F8A8632F4983ED027A54
:1093C0000022C3ED037AC3ED047A83ED057A1046DB
:1093D0001446B0EE676A1546F0EE475AB1421CD308
:1093E0000DB1C3ED025A0CB183ED036A08B183EDF0
:1093F000057A0AB1C3ED047A93ED027AD3ED037ACC
:1094000077EEC77A93ED057AC3ED067AD3ED047A49
:1094100077EEC77AC3ED077A70BDD1ED066AF4EE38
:10942000E56AF1EE10FAF4EEC66A44BFF0EE665A51
:109430000125F1EE10FAC8BFB0EE666AD1ED076AF9
:10944000F4EEC76AC8BF0124F1EE10FAF4EEE76A41
:1094500044BFB0EE667A0120F1EE10FAC4BFF0EE20
:10946000667A01222C31B9E744200020D05A00202E
:10947000F9021550F90215D04C0F002010B5184B09
:10948000184C194ADFED196A0021D4F8A803834269
:1094900000D310BD93ED067AD2ED027A92ED066A02
:1094A000586837EE677A2C33C7EE067A13ED047AE4
:1094B00092ED076A67EEA67A43ED037AD2ED057A5C
:1094C00037EE677AC7EE067A67EEA67A43ED027A40
:1094D000017053F8240C017053F8200C0170D4E78C
:1094E0004C0F002044200020D05A00200000C84229
:1094F00008B5FFF759FFBDE80840FFF7BFBF000000
:10950000F0B5DFED756ADFF8D8E1744F183010F868
:10951000044C012C00D1F0BD9EF8004050F8086CBE
:109520004CB9750709D416F0020F6AD0D7ED007A4E
:1095300070EE277A05E0B40758D5D7ED007A70EEC3
:10954000677AF4EEE67AF1EE10FA52DD77EEE67A1B
:1095500010ED066AF4EEC67AF1EE10FA44D410ED7E
:10956000057AF4EEC77AF1EE10FA3DDC77EEC67AB2
:1095700010F8105C10F80F4C37EE466A16F0010F29
:1095800087EE867A07EE905A3ED0641BB8EEE76A03
:1095900007EE904AF8EEE77AA7EE276A81ED006AB7
:1095A00010F80E5C10F80D4C07EE905A641BB8EEE4
:1095B000E76A07EE904AF8EEE77AA7EE276A82EDAF
:1095C000006A10F80C5C10F80B4C07EE905A641B04
:1095D000B8EEE76A07EE904AF8EEE77AA7EE276A58
:1095E000F0EE467AC3ED007A183090E716F0040FDB
:1095F0009BE7F5EEC07AF1EE10FAA9D577EEA67AE0
:10960000A6E7F0EE407AA3E7641BF8EEE75A07EE10
:10961000904AF8EEE77A16F0080F91ED006AE7EE4F
:10962000275A2CD036EE656A81ED006A10F80E5C80
:1096300010F80D4C07EE905A641BB8EEE76A07EE7F
:10964000904AF8EEE77AA7EE276AD2ED007A77EE35
:10965000C67AC2ED007A10F80C5C10F80B4C07EEDD
:10966000905A641BB8EEE76A07EE904AF8EEE77A84
:10967000A7EE276AD3ED007A77EEC67AB2E736EE28
:10968000256A81ED006A10F80E5C10F80D4C07EEAB
:10969000905A641BB8EEE76A07EE904AF8EEE77A54
:1096A000A7EE276AD2ED007A77EE867AC2ED007ACD
:1096B00010F80C5C10F80B4C07EE905A641BB8EED7
:1096C000E76A07EE904AF8EEE77AA7EE276AD3ED4D
:1096D000007A77EE867A85E70000C842C45A0020F7
:1096E000B05A0020000000002DE9F04F2DED028B54
:1096F000B14AB24B1278B24D53F822B02A6885B005
:109700009A4692B1DFF8048300272A68D8F8A81394
:109710008A42FBB204D298F8AC13994200F29680C8
:1097200005B0BDEC028BBDE8F08FA64B2B60A64BBD
:10973000A64CD3E90067013647F10007C3E900678B
:10974000A34B1B78B7EE008A84ED008A2BB3A14AA5
:10975000A14B92F800E0A14A187811780EFB001096
:10976000C0B2FF2810705CD1187003F0F5F990A317
:10977000D3E900238046894603F054FA42464B461B
:1097800003F050FA03F01EFD07EE100AB4EEC87A9B
:10979000F1EE10FA4ADD84ED008A914B9FED917A4B
:1097A00093ED008AC7EE087A0024234630463946F6
:1097B000FCEEE77A17EE902A03F062FE1946104697
:1097C00003F018FE06EE900AB2EE047AC6EE877A2F
:1097D00042F210719FED847A67EE887A67EE877A9D
:1097E000FCEEE77A17EE903AB3FBF1F201FB12338D
:1097F00007EE903AF8EEE77A7C4B7D4AC7EE876A2F
:109800009470C3ED006A7B4B196851602346581C65
:109810004E08C0B216D1002C3FF474AF9370516063
:1098200070E70028A1D101221A709EE7B5EEC07A38
:10983000DFED717AF1EE10FA58BFF0EE477AC4ED21
:10984000007AAAE7034631460124E0E700236B498A
:1098500001930293039305EE103A694B0978D2ED18
:10986000087AD2ED094A1B78002908BFF0EE674A52
:10987000012B79D192F82830FF2B7BD19DED027A14
:10988000DFED607AB4EEE77AF1EE10FA40F3218171
:10989000CDED027A9DED037AB4EEE77AF1EE10FA9F
:1098A00040F31F81CDED037A494B1B78A3B1474BA1
:1098B000DDED017A93ED007A67EE877ACDED017ADE
:1098C000DDED027A67EE877ACDED027ADDED037A7F
:1098D00067EE877ACDED037ADDED017A2B68FCEE39
:1098E000E77A5A6817EE903A1370DDED027A2B682A
:1098F000FCEEE77A9A6817EE903A1370DDED037A82
:109900002B68FCEEE77ADA6817EE903A137000F0F5
:10991000CBF920B300F0C8F92B6893F82820182A57
:1099200040F0E78010F0020F19D05B6893F9002037
:10993000002AB4BF0022FF221A702B689B6893F99B
:109940000020002AB4BF0022FF221A702B68DB68B7
:1099500093F90020002AB4BF0022FF221A702B685E
:109960002C332B600137D0E6022B1CD192F8283023
:10997000FF2B83D1244C637E002B49D0B0EE640AC8
:1099800003AB02AA01A95846FFF7BAFDDDED017A43
:109990009FED1C7AF4EEC77AF1EE10FA40F3918055
:1099A0008DED017A6AE7032B67E700BFAFF3008014
:1099B000691D554D1075EF3EA25A00200000002091
:1099C000AC5A00204C0F0020D05A0020DC5600205A
:1099D000A85A0020C95A0020A65A0020C05A0020C8
:1099E000D856002000007A440000C842C45A002023
:1099F000DC340020F430002000000000A45A0020D5
:109A0000B15A002000007F43C403002044200020FE
:109A10001678013E724202F01F0206F01F0358BF83
:109A20005342012202FA03F9202396FBF3F6B60013
:109A30001C3414F8033C002BA8D134F81C3C9907C3
:109A400005D52F4A14F8081C92789142F0D1D90715
:109A500005D5A21952F8182C39EA0202E8D1DA0623
:109A60000DD49A0624D514F8040C5AF82000B0EE50
:109A7000640A03AB02AA01A9FFF742FDD8E714F874
:109A8000073C07EE903A14F8063CF8EE677ACDED05
:109A9000017A07EE903A14F8053CF8EE677ACDEDBE
:109AA000027A07EE903AF8EE677ACDED037ABFE7D7
:109AB0005806BDD5B0EE640A03AB02AA01A9584608
:109AC000DAE7F5EEC07AF1EE10FA48BF8DED015AF3
:109AD000D4E6B5EEC07AF1EE10FA48BF8DED025A29
