:1040000010B40020398A0000358A0000358A00008B
:10401000358A0000358A0000358A00000000000063
:10402000000000000000000000000000358A0000D1
:10403000358A000000000000358A0000358A000043
:10404000358A0000358A0000358A0000358A000074
:10405000358A0000358A0000358A0000358A000064
:10406000358A0000358A0000358A0000358A000054
:10407000358A0000358A0000358A0000358A000044
:10408000358A0000358A0000358A0000358A000034
:10409000358A0000358A0000358A0000358A000024
:1040A000358A0000358A0000358A0000597000000A
:1040B000358A0000358A0000358A00000D7A00003C
:1040C000358A0000358A0000358A0000358A0000F4
:1040D000358A0000358A0000358A0000358A0000E4
:1040E000358A0000358A0000358A0000358A0000D4
:1040F00000000000358A0000358A0000358A000083
:10410000358A0000358A0000F9790000358A000000
:10411000358A0000358A0000358A0000358A0000A3
:10412000358A0000358A0000358A0000358A000093
:10413000358A0000358A0000358A0000358A000083
:10414000358A0000358A0000358A0000358A000073
:10415000358A0000358A00000000000000000000E1
:10416000000000000000000000000000000000004F
:10417000000000000000000000000000000000003F
:1041800075A200008DA2000091A2000095A200007F
:1041900000000000358A0000358A0000358A0000E2
:1041A000358A0000358A0000358A0000358A000013
:1041B000358A0000358A0000358A0000358A000003
:1041C000358A0000358A0000358A0000358A0000F3
:1041D000358A0000358A0000358A0000358A0000E3
:1041E000358A0000358A0000358A0000358A0000D3
:1041F000358A0000358A0000358A000045690000D4
:104200006D6900000000000000000000358A000019
:10421000358A0000358A0000358A0000358A0000A2
:10422000358A0000358A0000358A0000358A000092
:10423000358A0000358A0000358A0000358A000082
:10424000358A0000358A0000358A0000358A000072
:10425000358A0000358A0000358A0000358A000062
:104260000000000010B5054C237833B9044B13B19E
:104270000448AFF300800123237010BDC01E00204E
:104280000000000078C100000C4B43B10C480D4900
:1042900010B5AFF300800C48036823B910BD0A487D
:1042A000036833B97047094B002BF7D0BDE81040C5
:1042B0001847064B002BF5D0184700BF0000000040
:1042C00078C10000C41E002078C10000000000007A
:1042D00008B500F0FEF808BD08B500F0FBF808BD11
:1042E000294A2A490023F0B553601360C2F8073009
:1042F000274A284E53601360C2F80730264A53609D
:104300001360C2F80730254A01F10B0013605360B7
:10431000864601274B78447806EBC31307FA04F46A
:104320005C6011F8014F10F8015F06EBC41307FA47
:1043300005FCC3F814C02B44714593F8405045F078
:10434000020583F8405093F8405045F0040583F887
:10435000405052F8243043EA0C0342F82430D9D1BB
:104360000F4E104D0B48002301249A5D595D00EB60
:10437000C212013304FA01F1082B91605161F4D1AA
:10438000BDE8F04000F002BAD3220020A3030020D1
:10439000DE22002000800041C8220020C022002030
:1043A000E01E0020BA0300202DE9F04F85B002F096
:1043B00041FC3D4BD3E902450021A94208BFA04280
:1043C000984663D3DFF8F890384C0025A9F1150B17
:1043D00065602560C4F8075003F1FF3A01270BF12F
:1043E0000B029AF80130324E99F80110019206EB57
:1043F000C31307FA01F199610A2002F021FC2D494B
:10440000306A0B6803400293D6F8A0004B681AF894
:10441000011F0340039319F8013F06EBC11607FA89
:1044200003F3736107FA05F1019A49B2002313F807
:104430000B6004A800EB8606985C56F8086C07FA37
:1044400000F030421EBFE05C0843E05401330B2B08
:10445000EDD10135082DC4D1002217491346A05CC7
:104460004D7801F8010F0132854218BF01230B2A54
:10447000F5D17BB9114AE15C995401330B2BFAD188
:1044800000220023C8E9022300F08AF9012005B0C8
:10449000BDE8F08F02F0CEFB00230530C8F808001D
:1044A000C8F80C30F0E700BFE01E0020D322002047
:1044B00000800041C0220020DD220020C822002010
:1044C000B9030020014B185C704700BFC8220020D0
:1044D0007047704770470000A0F5B9405E3838B5A6
:1044E000122800F22A81DFE810F0130028003200C1
:1044F000440052005F0071007E008A0090009A0024
:10450000B000BA00D100E200F000FD000A0117017E
:104510008B780BB900242AE0894B1A78C2F1A501E7
:104520000929D4BFA5220A321A70864A1278002AB5
:10453000F0D01A78844B1A70ECE78B78002BE9D016
:104540007F4B1A78092A94BF00220A3AECE78B784D
:10455000002BDFD07D497E4A0978137801398B42E0
:104560004FF0000401D1147001E0013313702046B4
:1045700038BD8B78002BCDD0754B1C7824B9734A8D
:104580001278013A1A70F2E7013C1C70C2E78B788E
:10459000002BBFD06F4BD3ED007AB7EE007A77EEE9
:1045A000877AC3ED007AB5E78B78002BB2D0694BE0
:1045B000D3ED007AB7EE007A77EEC77AF5EEC07ADF
:1045C000F1EE10FAEDD500221A60A3E78B78002BEC
:1045D000A0D0614A13780133DBB2032B01D81370EA
:1045E00098E70024BFE78B78002B93D05B4B1878BB
:1045F000B0FA80F04009187003F028F88AE78B7849
:10460000002B87D00120554BF5E78B78002B81D00C
:104610000024524B20461C7003F018F8A7E78B7853
:10462000002B3FF477AF474B1C78002C0CBF0122C6
:1046300000221A707FF46EAF414B1A78424B1A7009
:10464000474B01221C70474B9CE78B78002B3FF4B3
:1046500061AF454A1378B3FA83F35B09BFE78B7800
:10466000002B3FF457AF414B1B681B7813F0220F10
:104670003FF450AF13F0110F3FF44CAF3C4B1C789C
:104680000022002C7FF457AF01227BE78B78002BB0
:104690003FF440AF354B1B681B7813F0220F3FF4FB
:1046A00039AF13F0110F3FF435AF324BE7E78B789A
:1046B000002B3FF42FAF30490B78C3F3000282F098
:1046C000010262F300030B7024E78B78002B3FF4A8
:1046D00021AF29490B78C3F3400282F0010262F353
:1046E0004103F0E78B78002B3FF414AF22490B789D
:1046F000C3F3800282F0010262F38203E3E78B7866
:10470000002B3FF407AF1C490B78C3F3C00282F0C3
:10471000010262F3C303D6E78C78184D1CB101F097
:10472000C7FD2860F6E6286801F0DCFDB0F5FA7FE9
:10473000FFF4F0AE00F040F819E7012417E700BFDE
:104740004B270020502700205B27002088BE000058
:104750004A27002080230020592700205A270020C4
:10476000682700204E27002058270020E003002063
:104770000E280020EA270020C51F0020F01E002080
:104780000120704708B5FFF7A7FE08BD08B501F086
:1047900051FC08B901F0A6FCBDE80840FFF798BD40
:1047A000FFF79ABD704708B5FFF7FCFF08BD08B5D5
:1047B000FFF7F9FF08BD704708B500F01FFFFFF7CE
:1047C000FAFFFA20002101F0A5FDBDE8084001F044
:1047D000A3BD000073B50388ADF804309F4B1B7870
:1047E00006467BBB8378019843B301F021FBC4B23A
:1047F0002146019801F0DAFA0199204600F046F9C5
:1048000031460546FFF7BEFF044600286AD045F64C
:1048100016439D4200F00B813AD845F601439D4274
:1048200063D015D8B5F5B84F57D08D4B01221A700B
:104830005A703046FFF7A4FF044653E001F0DAFA5D
:104840000446D9E7019801F0F3FA0199C0B2D5E71F
:1048500045F614439D42E8D8B378002BE9D001F027
:10486000E9FB08B901F03EFC01F0F4FBA5F5B84501
:104870007C4B033D1880112D40D8DFE805F0494DF1
:104880005155595D6165696D7175797D8185898D38
:1048900045F6D7439D4200F0988010D845F6D643A0
:1048A0009D42C2D1B4786E4D002C7DD000242C7076
:1048B00001F0F6FC6880022000F096FC12E045F65C
:1048C000D8439D4200F09D8045F6DD439D42ACD12A
:1048D000B4783CB101F006FC03E0B47814B1FFF702
:1048E0006BFF0024204602B070BDB478002CF9D0D4
:1048F0005D4A137843F001031370F2E71A7842F02F
:1049000001021A70187801F0A8FB00F077FEE8E7C2
:104910001A7842F00202F4E71A7842F00402F0E753
:104920001A7842F00802ECE71A7842F01002E8E741
:104930001A7842F02002E4E71A7842F04002E0E7F9
:104940001A7842F08002DCE71A7842F00C02D8E7CD
:104950001A786FF30002D4E71A786FF34102D0E7B8
:104960001A786FF38202CCE71A786FF3C302C8E7B4
:104970001A786FF30412C4E71A786FF34512C0E790
:104980001A786FF38612BCE71A786FF3C712B8E78C
:104990001A7802F0FB02E8E71A78C2F3C01181F03E
:1049A000010161F3C712ACE72B7853B9688801F0B5
:1049B00085FCC72805D8262000F03EFB262000F005
:1049C000DFFB022000F019FC8CE7B3783BB1244DEB
:1049D00000246C7001F064FCA88020206CE7204B60
:1049E0005A7852B9988801F069FCC72805D8272061
:1049F00000F022FB272000F0C3FB202000F0FDFB8D
:104A00006FE7B378002BE2D1154B5C78002CF4D122
:104A1000988801F053FCC728EFD8202000F0EDFB68
:104A2000282000F009FB282000F0AAFB5AE701F03B
:104A3000A7FAB1780A4A0D4BD1B100F0AA000028BC
:104A400014BF012100219171186814BF352129215B
:104A500001F0A8FB01F06EFA43E700BF101F002031
:104A6000F41E0020EA220020C51F0020E0030020E1
:104A700092791868002A14BF3521292101F0ACFB76
:104A8000E8E700BF0020704770470000C1F307222D
:104A90000B2303FB0020C00050FA81F0024B33F8D7
:104AA000100082B002B070478ABE0000014B33F89C
:104AB000100070478ABE000013B5ADF804100199CC
:104AC000FFF7E4FF00F058F9B0F5A04F044630D2EC
:104AD000B0F5804F80F0D680E72816D8E02879D24C
:104AE000A72808D8A5286BD2012873D001D30428A1
:104AF00070D200246EE0BE286FD9C028F9D3C03828
:104B000080B2FFF7D3FF044664E0B0F5005F09D23E
:104B1000B0F5807F80F0AA80F028EAD340F4A0446A
:104B2000A4B257E0B0F5405F80F0A380C0F30B0063
:104B3000E7E7B0F5AA4F1ED2B0F5A84FC3B280F098
:104B4000C080B0F5A44F08D2B0F5A24FC0F09F804E
:104B50004AF2F10040EA03243CE0B0F5A64F80F0B1
:104B6000A6809808012403F003039C4044EA401403
:104B700044F40C44D4E7B0F5B24F0CD2B0F5B04FCA
:104B800080F0A480B0F5AC4FB3D2040204F4F85422
:104B900044F400541EE0B0F5B44FC0F09C80A0F582
:104BA000C043B3F5005FA4D2C0F3042000F050F975
:104BB000E4B2000244F4005400F4F850044309E065
:104BC00000F0948044F2820344F28302A62814BFCA
:104BD00014461C46204602B010BDA82800F089806B
:104BE000A92800F08980AA2800F08980AB2800F06D
:104BF0008980AC2800F08980BB2800F08980BC281F
:104C000000F08980AD2800F08980B02800F089800C
:104C1000AE2800F08980AF2800F08980B12800F02C
:104C20008980B22800F08980B32800F08980B428F8
:104C300000F08980B52800F08980B62800F08980CE
:104C4000B72800F08980B82800F08980B92800F0E2
:104C50008980BD2800F08980BE2800F08980BA28AC
:104C600044F22A6418BF4FF48844B3E7C0F30C043D
:104C7000B0E710F4006FC4B214BF44F4484444F4E5
:104C80004044A7E7C0F30B0444F42044A2E703F038
:104C9000030201249440C0F3011044F40C4444EA9C
:104CA0000024C3F3810344EA43139CB292E79808BB
:104CB000012403F003039C4044EA401444F40A44F2
:104CC0002EE74AF2F40444EA032483E74AF2F000B0
:104CD00040EA042424E700F00F0343F4204343F0A8
:104CE000E003C0F3031443EA042473E744F28104AD
:104CF00070E744F2E2446DE744F2E9446AE744F2C3
:104D0000EA4467E744F2B54464E744F2B64461E735
:104D100044F2B3445EE744F2B4445BE744F2B74480
:104D200058E744F2CC4455E744F2CD4452E744F20C
:104D300083544FE744F28A544CE744F2925449E7D3
:104D400044F2945446E744F2216443E744F2236476
:104D500040E744F224643DE744F225643AE744F234
:104D6000266437E744F2276434E744F26F4431E7BE
:104D700044F270442EE7000082281AD00CD8312863
:104D800054D004D829284AD02A2856D0704735282C
:104D90003ED039280DD07047E32823D004D8E0282E
:104DA0000ED0E22813D07047E62822D0E72829D079
:104DB0007047264B1B7813F0030F18BFE020704795
:104DC000224B1B7813F0010F18BF392070471F4B7F
:104DD0001B7859071BD513F0100F08BFE32018BF2D
:104DE00000207047194B1B785A072DD413F0100F71
:104DF000F5E7164B1B78190709D513F0100F08BFFC
:104E0000E720ECE7114B1B781A07EFD5E620704737
:104E10000E4B1B7813F0200F18BF292070470B4B47
:104E20001B7813F0200F18BF35207047074B1B78F5
:104E300013F0400F18BF2A207047044B1B7813F063
:104E4000400F18BF31207047E2207047EA2200204F
:104E5000164B1B78590707D500F01802082A12D103
:104E600000F0F70040F004001A0707D500F0180220
:104E7000182A11D100F0E70040F01400DB0648BF0B
:104E800000F0E700704700F01402042A04BF00F0AD
:104E9000FB0040F00800E7E700F01402142A04BF0A
:104EA00000F0EB0040F01800E8E700BFEA22002025
:104EB000014B1860704700BFFC1E0020024B1868B1
:104EC00008B1036818477047FC1E0020024B1B689E
:104ED0000BB15B6818477047FC1E0020044B998893
:104EE000814204D098801B680BB1DB68184770477B
:104EF000FC1E0020044BD988814204D0D8801B6856
:104F00000BB11B6918477047FC1E0020704708B59D
:104F1000FFF7FCFF08BD0120704708B501F0F8F964
:104F2000FFF7DEF9BDE8084001F080BA2DE9F04353
:104F300085B0FFF739FAFFF7EEFF314EF8B9FF23DE
:104F40008DF808308DF8093000238DF80A3001F013
:104F5000A7F940F00100ADF80C0004AB13E9030021
:104F600000F052F8FFF7AAFFF37A834244D0FFF72C
:104F7000A5FFF07205B0BDE8F043FFF718BCDFF8FD
:104F800084800024E7B23846FFF79CFA355DA842DA
:104F9000814603D101340B2CF4D1D0E798F80030CE
:104FA000980701D5FFF794FA89EA05050023EDB2C9
:104FB00045FA03F1C907DAB21AD501259D4019EA6D
:104FC000050F14BF012300238DF802308DF8002057
:104FD0008DF8017001F064F940F00100ADF80400B3
:104FE0009DE8030000F010F8335D6B403355B9E7DE
:104FF0000133082BDCD1CDE705B0BDE8F08300BF5D
:10500000041F0020C51F00201FB58DE803000021EC
:1050100003919DE8030002AA0290ADF80C1092E8FB
:10502000030000F07BFD05B05DF804FB08B50088C7
:1050300000F01CFF08BD000008B5002800F09C80AF
:10504000031FDBB2A02B08D84C4B0146186801F0B7
:10505000A9F8BDE8084000F06DBF00F12003DBB205
:10506000072B08D8012300F0070003FA00F0C0B2B4
:1050700000F08CFFEDE700F15B03DBB2022B0BD8F5
:10508000A52807D0A6280CBF82208320BDE80840B1
:10509000FFF724BF8120F9E700F15803DBB2162B9C
:1050A0006AD8A82832D0A92832D0AA2832D0AB2872
:1050B00032D0AC2832D0BB2832D0BC2832D0AD2878
:1050C00032D0B02832D0AE2832D0AF2832D0B1287A
:1050D00033D0B22834D0B32835D0B42836D0B52850
:1050E00037D0B62838D0B72839D0B8283AD0B92820
:1050F0003BD0BD283CD0BE283CD0BA2840F22A2064
:1051000018BF0020BDE80840FFF7F4BEE220F9E731
:10511000E920F7E7EA20F5E7B520F3E7B620F1E765
:10512000B320EFE7B420EDE7B720EBE7CC20E9E7C9
:10513000CD20E7E740F28310E4E74FF4C570E1E7E4
:105140004FF4C970DEE74FF4CA70DBE740F221206C
:10515000D8E740F22320D5E74FF40970D2E740F2B8
:105160002520CFE740F22620CCE740F22720C9E7F0
:105170006F20C7E77020C5E708BD00BFE00300202F
:1051800008B568B3031FDBB2A02B08D8154B014646
:10519000186801F021F8BDE8084000F0CBBE00F12E
:1051A0002003DBB2072B08D8012300F0070003FA25
:1051B00000F0C0B200F0F2FEEDE700F15B03DBB2FD
:1051C000022B04D80020BDE80840FFF787BE583006
:1051D000C0B2162804D80020BDE80840FFF78ABEF8
:1051E00008BD00BFE003002008B528B100F0CEFEE6
:1051F000BDE8084000F09EBE08BD08B528B100F02B
:10520000CDFEBDE8084000F095BE08BD2DE9F04791
:1052100090F806A0857807460C464FEA1A1A0DB199
:1052200000F0DAFE00F07CFE804670B125B304F198
:105230002003DBB2072B1FD9022000F05DFE00F037
:105240006FFE80F001005FFA80F8C4F30339B9F112
:105250000F0F42D8DFE819F0130013004800480090
:105260009500410041004100B60041000D010D01D3
:1052700074014100410092014FF00008E5E7C4F3DA
:10528000072313F0F00F16BF2609C4F3032606F018
:10529000F006E4B295B156B104F12003DBB2072B5E
:1052A000304600D93CB900F071FE00F043FE2046C4
:1052B000FFF7C2FE11E000F07FFEF6E72046FFF7A1
:1052C0005FFF56B104F12003DBB2072B304600D953
:1052D0003CB900F063FE00F02DFEB9F10B0F55D97B
:1052E00036E100F071FEF6E7C4F3072303F0F003A4
:1052F000202B18BF2609E0B20CBFC4F3032606F02A
:10530000F00660B101282CD0ADB3BAF1000F2CD05B
:10531000BB79D907CCD56FF30713BB7125E09DB1DD
:10532000BAF1000F06D100F07FFE3043C0B2FFF7A4
:105330005BFFD2E7BAF1010FF5D100F075FE304303
:10534000C0B200F065FEC8E7BAF1000F05D100F069
:1053500065FE3046FFF751FFBFE7BAF1010FF6D106
:10536000BBE725B1BAF1050FB7D83046DFE7BAF190
:10537000040FB2D8EDE7BAF1000FEAD0FFF700FF53
:10538000ABE7C4F381236BB1012B13D0012303FAE4
:1053900009F919F4506F00F0DB80FFF78FFDFFF77C
:1053A00006FAD5E025B1C4F30900FFF797FDEDE754
:1053B0002846FAE725B1C4F30900FFF79BFDE5E7AE
:1053C0002846FAE714F4407F26D1002DE5D1C4F336
:1053D00042108000E206C3B204F00F0000FA03F6A8
:1053E00044BF0F209840C4F381244CBFC0432846DB
:1053F000022C07D00AD8012C40EA060009D000F0A0
:1054000073FCC3E7304300F077FCBFE700F06CFCAF
:10541000304600F061FCB9E7F5B1C4F30023002B7E
:10542000BBD0C4F342108000C3B204F00F0000FAF6
:1054300003F514F010001CBF0F209840C4F3812422
:1054400018BFC043022C0AD00DD8012C40EA050039
:105450000CD000F099FC99E7C4F34023DFE7284320
:1054600000F09AFC92E700F08FFC284600F084FCE4
:105470008CE7E6B2A6F1E003142B50D8DFE803F086
:105480000B0B0B0B0B0B0B0B0B0B0B0B0B0B0B0B6C
:1054900016232930390006F00F06C4F3042015B195
:1054A00000F04AFC61E700F051FC52E745B1BAF167
:1054B000040F3FF612AFC4F3042000F053FC0CE7D6
:1054C000BAF1050FF5E735B1C4F3042000F034FC60
:1054D00003E7002DF8D0C4F3042000F037FCFCE60D
:1054E00025B1C4F3042000F022FCF6E600F01CFC19
:1054F000F3E64DB1C4F30424204600F01DFC032163
:10550000204600F0F1FCE8E6012000F0F5FCBAF1DD
:10551000010F7FF6E2AE022000F0EEFCDDE625B1E1
:10552000BAF1000FD0D03046C2E6BAF1000FD2D0A7
:10553000392E03D15020002100F0ECFE30461DE74B
:10554000C4F30322E1B23846FFF79CFA00F052FBA5
:10555000B8F1000F19D000F0BFFC10F0010014D119
:10556000B87000F0B1FC00F0E7FB384600F00FF82F
:1055700000F0AAFCBDE8F04700F0E8BBC4F303224A
:10558000E1B23846FFF780FAE2E7BDE8F08737B5C9
:1055900083880288ADF804200446BBB1BDF804300E
:1055A0004FF6FF729A1A534253417BB9FFF712F933
:1055B00060B12188A07800F067FC054600F0F4FB9C
:1055C00000F073FB29462046FFF720FE03B030BDF4
:1055D00008B500F001FD00F015FD074B186800F05C
:1055E00015FE00F0A7FC0020FFF778FC0020BDE8C6
:1055F0000840FFF77FBC00BFE003002008B500F0C3
:10560000D5FCBDE80840FFF7E3BF07B5ADF80400DF
:10561000019800F02BFCC0F303330E3303F00F02AC
:105620000D2A0CD80123934013F4105FC1B219D195
:1056300040F20330184004D113F010030BD10020C6
:105640000DE0F02902D003D8DF29F8D8012006E0C8
:10565000F429F4D1FAE7DF29F8D9F129F6D003B01B
:105660005DF804FBC0F3C020F9E782B002AB03E9A8
:10567000030002B0704782B002AB03E9030002B03E
:105680007047000038B5094D2C7895F84230A34298
:1056900000D138BD05EBC4030134D3F80200D3F8C0
:1056A0000610FFF7E8FF04F00704EEE7121F0020E2
:1056B000024B586C996CFFF7DEBF00BF121F002031
:1056C000F7B5274B93F84A20120909D193F84620E1
:1056D00032B119784FF6FF7593F842208A4201D112
:1056E00003B0F0BDB3F84820002A35D093F84460E9
:1056F00093F845708DF804608DF80570BDF80400CE
:10570000A84229D0C8001C1894F803E0BE4523D154
:10571000A778B74220D12679F6B9E488944236BFFB
:10572000AA1AA21A1219C72ACCBF002201229AB1C2
:1057300093F84A20012161F3071283F84A200344B9
:1057400008481A7A61F307121A72FFF720FF03B0B4
:10575000BDE8F040FFF796BF013101F00701BBE75C
:10576000121F0020561F00202DE9F043C54C8FB0BA
:105770000646B4F8487000680890B4F844003278DF
:10578000737896F80280B6F80490ADF8040008A982
:10579000002F00F0308185B24FF6FF70854200F097
:1057A0002A8194F84650002D00F025814F458ABF8C
:1057B000C71BA9EB07074F44C72FCCBF0027012702
:1057C000002F00F0C68094F84A10B4F8445011F04D
:1057D000F00F4FF6FF7076D185421DD08DF8202056
:1057E0008DF821302846BDF82050854214D1454619
:1057F000B8F1000F10D1012363F3071184F84A10A8
:10580000FFF756FFA048FFF7C2FE94F84A30B37185
:1058100028460FB0BDE8F0834546B9F1000F47D0E8
:105820008DF81C208DF81D30BDF81C004FF6FF715F
:1058300088423DD0002D3ED1217894F842E0714558
:105840000FD18DF820208DF82130089800F00EFB44
:10585000C0F30332C3B2032A1DD8DFE802F01313EA
:10586000212104EBC10090F803C09C4506D190F8BB
:1058700002C0944502D100790028C9D1013101F05C
:105880000701DCE710F4706F01D0002BC0D020338B
:10589000DBB2072BBCD93046FFF779FE3D46B7E7B0
:1058A00010F4706FF3D0B27912F0F00FEFD1AFE7D0
:1058B000B8F1000FACD094F84A3043F0010384F8FB
:1058C0004A300025A4E7854217D08DF820208DF8B6
:1058D00021302846BDF8205085420ED1B8F1000F86
:1058E0000BD1B1713046FFF752FE33686364664AEC
:1058F00073685360FFF7DCFED0E78DF820208DF849
:1059000021300898FFF781FEF8B1B8F1000F1CD0E4
:1059100094F84A301F2B0DD9B4F84420ADF8282054
:1059200000228DF82A20ADF82C908DF82E300AA890
:10593000FFF72DFE3368544A636473685360FFF7C2
:10594000BFFEFFF7B5FE012562E73046FFF71FFEF9
:10595000F9E794F84A0010F0F00F13D18DF82020E9
:105960008DF821308DF82280ADF82490464D03C982
:10597000FFF77BFE2846FFF70AFE67646F60FFF7BC
:1059800097FE9EE7B4F844704FF6FF718F4215D032
:105990008DF820208DF821303946BDF820708F42D7
:1059A0000CD1B8F1000F09D1B0713046FFF7EFFD0F
:1059B000354BC4F84480C3F8048029E78DF82020D3
:1059C0008DF821300898FFF720FE0028BDD0B8F1EF
:1059D000000FBAD094F84A301F2BABD9B4F844204A
:1059E000ADF8302000228DF83220ADF834908DF8DB
:1059F00036300CA89CE7B4F84400ADF81400002F32
:105A000070D080B24FF6FF75A8426BD094F8460074
:105A1000002867D14F4539D8A9EB0707C72FCCBF5E
:105A200000250125002D4ED04546002D8DD0B4F81F
:105A300044004FF6FF71884231D08DF820208DF858
:105A400021300146BDF82000884228D194F84A3020
:105A50000D4F13F0010F1DD11A091BD01A090F2A7F
:105A600018BF0132B3711CBF62F30713B371304624
:105A7000FFF78DFD3368636473687B60FFF718FE82
:105A8000C6E600BF121F0020561F0020ED1B4D442C
:105A9000C72DC4E73368636473687B60B8E68DF82C
:105AA00020208DF821300898FFF7AFFD00287FF403
:105AB00041AF94F84A30304643F0010384F84A304D
:105AC000FFF765FDA4E68DF821308DF82280ADF852
:105AD00024908DF8202003C9FFF7C7FD0E4B6564A5
:105AE0005D60CBE7B8F1000F3FF42FAF8DF82020B9
:105AF0008DF821300898FFF788FD054600283FF40F
:105B000024AF33680448636473684360FFF78EFA18
:105B1000FFF7D6FDB2E700BF561F002070B586B074
:105B20008DE803006846FFF71FFE304C0646B8B10B
:105B3000BDF80430BDF80020ADF8082043B192B2A2
:105B40004FF6FF739A4203D09DE80300FFF793FDE1
:105B5000274D207894F84230834227D106B070BD9B
:105B60009DE8030004AB83E80300BDF80420BDF802
:105B70001010ADF80C10002AEAD089B24FF6FF726F
:105B80009142E5D094F842202178551C05F0070594
:105B90008D4220D003CB04EBC20284F84250C2F8FD
:105BA0000200C2F80610FFF76DFDD1E705EBC0005B
:105BB000FFF7DAFD0028D1D0237804EBC303D3F834
:105BC0000200D3F80610FFF756FD2378013303F0E7
:105BD00007032370BDE7FFF711FD234684F84260F9
:105BE00003F8446B66645E60B8E700BF121F0020D4
:105BF000141F0020F8B50346002855D000250126C3
:105C00001878732803F1010406D8042820D201284B
:105C10000AD002281FD0F8BD752836D02AD3A0F1AB
:105C200084036F2B34D9F8BD9C1C5B7803F12002F0
:105C3000D2B2072A0BD803F007039840C0B200F095
:105C4000D1F900F077F92F463FBB2346D8E7184635
:105C5000FFF7F2F9F7E758789C1C00F12003DBB25C
:105C6000072B17D800F0070006FA00F0C0B200F0CA
:105C7000C1F9E6E75F789C1C002FE4D001200021E9
:105C8000013F00F047FBFFB2F6E79C1C5D78DAE7C6
:105C900000F07F00FFF774FAD5E701200021013FF3
:105CA00000F038FBFFB2CFE7F8BD70477047FFF751
:105CB000FDBF08B5FFF7FBFF08BD000008B5FFF703
:105CC000F8FF034B1860BDE80840FFF781BC00BF38
:105CD000601F0020FFF7F2BF024B1B681843FFF75D
:105CE000EDBF00BF601F0020024B1B681840FFF78C
:105CF000E5BF00BF601F0020024B1B685840FFF744
:105D0000DDBF00BF601F002008B5FFF7CFFF08BD53
:105D100008B5FFF7F9FF034B5860BDE80840FFF7EF
:105D200057BC00BF601F00200020FFF7F1BF012318
:105D300003FA00F0FFF7ECBF012303FA00F0024B77
:105D40005B681843FFF7E4BF601F0020012303FADC
:105D500000F0034B5B6823EA0000FFF7D9BF00BFE8
:105D6000601F0020012303FA00F0024B5B685840DB
:105D7000FFF7CEBF601F0020024B5B681843FFF7A0
:105D8000C7BF00BF601F0020024B5B681840FFF7D1
:105D9000BFBF00BF601F0020024B5B685840FFF789
:105DA000B7BF00BF601F002070470000C0F307238B
:105DB00000EBC30303F0FF0337B503F00702012034
:105DC0009040DB080A4A03EB8303C0B2134400246B
:105DD0005D7821FA04F242F300026A400240013485
:105DE0006A40052C03F8012FF2D103B030BD00BF8B
:105DF000671F0020C0F3072313B500EBC30000F0BA
:105E0000FF0000F007040949C00800EB80000022F1
:105E1000014410468B5CE34003F0010393400132E0
:105E20001843052AC0B2F5D102B010BD681F00208A
:105E300073B50D4BADF8040028CB1F241D4325FA84
:105E400004F3DB0766B206D414F1FF34F7D2002660
:105E5000304602B070BD0199E0B2FEF72DFE80B26F
:105E60000128F1D0F4E700BF601F002007B5ADF8AE
:105E700004000198FFF7DCFF0199C0B2FEF71CFE99
:105E800003B05DF804FB000013B50E4BADF8041031
:105E90001B7823B10198FFF7E9FF02B010BD60B194
:105EA0000198FFF7C5FFC4B221460198FFF77EFFB6
:105EB00001992046FEF700FEEFE70198FFF79AFFF1
:105EC0000446F5E7101F0020024B93F90100C0F3D0
:105ED000C70070479F1F0020024B587800F0070052
:105EE000704700BF9F1F0020024B41EAC00159705C
:105EF000FFF722BF9F1F0020084A92F9013023EAD2
:105F0000000040B25070420706D1DBB2834203D09A
:105F1000C0F3C700FFF71ABF704700BF9F1F0020E4
:105F2000034B587810F0070018BF0120704700BFDE
:105F30009F1F002038B5104C104D2268A9781170B1
:105F40002168E8780A7802430A70216828790A787B
:105F500002430A7095F905204AB1236819780A436B
:105F60001A70206800F0C0F808B100236B71206837
:105F7000BDE83840FEF7AABFE00300209F1F0020C5
:105F8000014B9878704700BF9F1F0020024A93780A
:105F900018439070704700BF9F1F0020024A9378FB
:105FA00023EA0000907070479F1F0020014B0022E1
:105FB0009A7070479F1F0020024AD3781843D07010
:105FC000704700BF9F1F0020024AD37823EA0000D9
:105FD000D07070479F1F0020014B0022DA7070477D
:105FE0009F1F0020024A137918431071704700BFA9
:105FF0009F1F0020024A137923EA000010717047A6
:106000009F1F0020014B00221A7170479F1F002024
:10601000014B5871704700BF9F1F0020014B0022A9
:106020005A7170479F1F0020014B5879704700BF7D
:106030009F1F002008B5002000F0D4F94FF6ED6353
:10604000C31A5842584108BD022000F0C5B90320C8
:1060500000F0C2B9042000F0BFB90146042000F0EE
:10606000CBB901460F2000F0D5B90146132000F04E
:10607000D1B90020FFF7F9BF08B50020FFF7F1FF05
:10608000FFF7F7FF08BD000010B54FF6ED610020E7
:1060900000F0B8F90021022000F0AEF90021032041
:1060A000002400F0A9F90E4B214604201C6000F0EA
:1060B000A3F92146052000F09FF92146062000F0B3
:1060C0009BF9FF21072000F097F92146082000F0F6
:1060D000A1F921460D2000F08FF9FFF7CDFF10BD8B
:1060E000601F0020FFF7D0BF0C4B1B78821C5BB1F8
:1060F0000B4B93F90030002B06DA421C1F2313448C
:1061000000209A4202D170470623F8E712F8011BDB
:106110000029F6D00130C0B2F3E700BFC01800205C
:10612000EA22002030B54FF0FF33851C002215F81D
:10613000014B8C420CD0B3F1FF3F02D1002C08BFC1
:1061400013460132D4B2062C62B2F0D15A1C00D1EF
:1061500030BD1844817030BD10B5831C002208305A
:106160001C788C4208BF1A7001338342F8D110BDED
:10617000CB081F2B07D0184401F0070301219940D9
:106180004378194341707047CB081F2B08D018443F
:1061900001F0070101238B40417821EA030141709E
:1061A0007047000010B40A4C247803460A4644B1F4
:1061B000084C94F90040002C03DA5DF8044BFFF71B
:1061C000D7BF114618465DF8044BFFF7ABBF00BFC1
:1061D000C0180020EA22002010B40A4C247803469C
:1061E0000A4644B1084C94F90040002C03DA5DF8EB
:1061F000044BFFF7C9BF114618465DF8044BFFF783
:10620000ABBF00BFC0180020EA220020084B1B785B
:106210004BB1084B93F90030002B04DA1F22002108
:10622000013005F053BD0023C0F80230C380704731
:10623000C0180020EA2200207047FFF7FDBFFFF7DB
:10624000FBBF10B5FFF7FBFFFEF7AEF8FFF7F5FF5A
:106250000024E0B2FEF736F918B901340B2CF8D15E
:1062600010BD012010BDFFF7E7BF08B5FFF7FBFF2A
:1062700008BD08B5002001F0E9F9FFF7F6FF08BDF9
:1062800008B5FFF7D9FF08BD08B5044B1B7813B15B
:10629000012001F0DBF9FFF7F3FF08BD5A270020CA
:1062A000024BD3E9000180B2704700BF6823002091
:1062B000014BD3E9000170476823002030B5084B3B
:1062C000D3E90045A4B2A04204D8D3E90045201A7E
:1062D00080B230BDD3E90023013A101AF8E700BFBD
:1062E0006823002030B5054BD3E90045D3E90023EE
:1062F000A04288BF02F1FF32101A30BD682300208F
:10630000024B00200021C3E90001704768230020F0
:10631000FFF7F6BF00F0C2BC70B5294B88B001AAE8
:1063200003F11806154618685968144603C4083363
:10633000B3422246F7D11B88238042F29F13A3F574
:1063400006521F3AAA5C52B313F8011F9142F6D0CD
:106350001C4B1A786FF341021A701A46916888072D
:10636000FCD41A78C2F34002002AFAD1597862F3B9
:1063700007115970597862F303015970997862F3E3
:10638000030199701A7842F002021A700D4B1A46F6
:1063900099688907FCD413789B07FCD5FEE70A4B64
:1063A0000A4A43F8102CBFF34F8F0949094BCA68BA
:1063B00002F4E0621343CB60BFF34F8F00BFFDE7F1
:1063C000EABF0000002000400000022000CA9A3B03
:1063D00000ED00E00400FA05014B185C704700BFB7
:1063E000C61F0020034BC218185C527840EA0220F6
:1063F000704700BFC61F0020014B1954704700BFF3
:10640000C61F0020024B19541844090A41707047F6
:10641000C61F0020044B195418440B0A43700B0C80
:10642000090E8370C1707047C61F002008B5FFF7C2
:1064300001FE08B9FFF756FEFFF706FE054B187080
:10644000FFF708FE044B1880FFF701FEBDE8084087
:10645000FFF740BCC51F0020EA2200200C490D4A6E
:106460004F230B60136A43F0800313620A4BD3F887
:106470002021012060F30302C3F82021D3F820215A
:1064800042F04002C3F8202150230B60704700BF48
:106490007423002000080040001C00404F4A512394
:1064A00013604F4B01200221C3F88400C3F884100D
:1064B0000421C3F8841093F8B01060F3030183F84B
:1064C000B01093F8B01060F3071183F8B01093F890
:1064D000B11060F3030183F8B11093F8C0100143C9
:1064E00083F8C01093F8C110014383F8C11093F8EA
:1064F000C210014383F8C2103A4B19880143198036
:106500005220196BC9074AD4364B5320198811F011
:10651000010146D1188861F30A201880997A022077
:1065200060F3030199722F4B5420196B89063AD4FA
:10653000997A11F00F0038D1997A60F306119972A7
:10654000284955200B6B9B0641D4CB7A2D2060F354
:106550000503CB72234B5620196BC1F38011002920
:1065600037D1B3F8480061F30200A3F84800B3F84C
:10657000480061F30610A3F84800B3F8480061F33F
:106580000A20A3F84800198841F002011980154932
:1065900057200B6B9B071ED4582313607047106065
:1065A000AFE71060B2E71060BFE7987A00F00F0025
:1065B0000128C1D0987A00F00F000228BCD0987A48
:1065C00000F00F000328B7D0997A0420B5E71060D7
:1065D000B8E71060C0E71060DBE700BF742300205D
:1065E00000800041001C00430C4B9A8860F30402B9
:1065F0009A801A6B5007FCD41A7D42F002021A7579
:10660000064A1346116B0905FCD493F82E20D207D5
:10661000FBD5B3F8400080B2704700BF001C0043B8
:1066200010B54B4A4B49322313604B4B0B600B6840
:106630000B624A4B58696FF34100586158690D2449
:1066400064F317505861586940F400405861586924
:10665000052464F3CE205861586940F4C060586145
:1066600058696FF3C7105861586940F004005861C9
:10667000586940F00200586133241869C0073AD5C0
:106680003748086593F830006FF3410083F8300015
:10669000324B3424D86B80072FD4986B022464F3D8
:1066A00047109863986B072464F31A409863586BFB
:1066B0002F2464F30C005863284B3520DC6BC4F3A3
:1066C0008004E4B993F8300064F3C71083F8300015
:1066D00093F8300040F0020083F830001F48362461
:1066E000C36B9B070DD41D483724036CDB070AD509
:1066F0001A4C38200AE01460BFE71460CAE7106043
:10670000DCE71460ECE71460EFE71060236C9B0794
:10671000FBD5086DA36B646BC3F30A43C4F30C048D
:1067200040080133B0FBF3F304FB03334B600D4B24
:10673000186A072464F30300186239245868400774
:1067400004D44B680B623A23136010BD1460F5E764
:1067500074230020F8220020006CDC0200100040AE
:106760000024F400001C00402D4B222270B51A605A
:106770002C4A23255468C4F38B04002C45D100F126
:106780000804072652F8245066F3030542F8245003
:10679000244D24266A68C2F38B02002A37D1800078
:1067A000214D00F1804000F5E0506A68B2FBF1F144
:1067B000C9B2418429461B4D25266A68C2F38B0263
:1067C0003ABB55F8246062F30C36164A45F824604B
:1067D00026265568C5F38B05EDB952F8245045F4CB
:1067E000807542F824500F4D27266A68C2F38B0249
:1067F0009AB94A68408C80B2B2FBF0F241F824208A
:1068000028221A6051F8240070BD1D60B2E71E6096
:10681000C0E71E60D1E71E60DBE71E60E5E700BF52
:1068200074230020001C0040F8220020204B214946
:1068300029221A602A204A68C2F38B02002A2DD12D
:10684000486A62F303001B4A48622B205168C1F377
:106850008B0129BB516AC0F20101516215492C20FC
:106860004A68C2F38B02EAB9486A62F30C30114AF3
:1068700048622D205168C1F38B01A9B9516A41F4D6
:10688000807151620B492E204A68C2F38B026AB9AB
:10689000094A116D51622F221A6070471860CAE7C9
:1068A0001860D3E71860DBE71860E3E71860EBE7F0
:1068B00074230020001C0040F82200201D4B1E4ABB
:1068C00000210020C3E90001302313601B4B19682D
:1068D0006FF3410119601969C1F340010029FAD130
:1068E000174B186861F3410018601969C1F3400142
:1068F0000029FAD1114B99821969C1F300110029BD
:10690000FAD10F4B59611969C906FCD4196841F0D5
:10691000020119600A490B699807FCD4074B1968F2
:1069200041F00201196019698907FCD43123136011
:10693000704700BF68230020742300200014004229
:1069400000380040074B9A7AD20609D51022064932
:106950009A72D1E90023013243F10003C1E9002317
:10696000704700BF0014004268230020084B9A7A49
:10697000D1060BD510229A72064A012111701A68AD
:106980006FF341021A601A699207FCD4704700BF86
:10699000001800426023002038B59D4C9D49092312
:1069A00002202360FFF7E0FEFFF740FF9A4AD36919
:1069B00043F02003D361994BD3F8F810022060F321
:1069C0000301C3F8F810D3F8F81041F04001C3F800
:1069D000F810D16941F04001D161D3F8F82060F39B
:1069E0000302C3F8F820D3F8F82042F04002C3F8BD
:1069F000F8200D2323608A4B1A686FF341021A6056
:106A00000E211A69920700F1EA801A6842F0010229
:106A10001A60834A0F211369DB0700F1E280804B83
:106A200010211A68D50700F1DE8005221A717C4B0F
:106A300011211A69500700F1D88040F2E7329A8399
:106A4000774B12211A69C2F38012002A40F0CF80DE
:106A5000197B012060F301011973D98841F4805139
:106A6000D98070494FF40040C860597A41F0100154
:106A7000597213232360142323606B4B196862F34C
:106A80004101196015211A69920700F1B2801A6854
:106A900042F001021A60644A16211369DD0700F111
:106AA000AA80614B17211A68D00700F1A680052241
:106AB0001A715D4B18211A69C2F38002002A40F056
:106AC0009E80197B012060F301011973D98841F47C
:106AD0008051D98053494FF48030C860597A41F0D1
:106AE000100159724C49192323604B6943F48043C8
:106AF0004B614A4BD3F8A400022565F30300C3F8A9
:106B0000A400D3F8A40040F04000C3F8A4004869F2
:106B100040F400404861D3F8A41065F30301C3F8C2
:106B2000A410D3F8A41041F04001C3F8A4101A2314
:106B300023603E4B196862F3410119601B211A69F9
:106B400092075ED41A6842F001021A60374A1C218B
:106B50001369DB0757D4354B1D221D6815F001055D
:106B600053D11968022262F383011960D98841F078
:106B70002001D980D98862F30201D9801E232360C5
:106B800025491F2323608B6943F080038B61234BCE
:106B9000D3F8AC1062F30301C3F8AC10D3F8AC2007
:106BA00042F04002C3F8AC20214B0121C3F8D011C0
:106BB0001A6A61F38B221A621A6A65F309221A6251
:106BC0001A6A562161F306021A6220232360FFF736
:106BD00075FEFFF743FC21232360284638BD216062
:106BE0000FE7216017E721601BE7216021E72160A3
:106BF00028E7216047E721604FE7216053E72160E4
:106C000059E721609BE72160A2E72260A5E700BF6A
:106C10007423002040420F0000080040001C004088
:106C20000014004200E100E000180042003800407B
:106C300000E00041014BD3E90001704768230020C8
:106C400010B5144A144B002111701C6814F0020F87
:106C5000144614D109281AD90A3880B20E4B9883E9
:106C60001A695206FCD41A6842F002021A600A4AF3
:106C700013699B07FCD42378002BFCD010BD1A6845
:106C800061F341021A601A699107FCD4E2E700201F
:106C9000E4E700BF602300200018004230B5074B36
:106CA000D3E90045001941F10001D3E90045002571
:106CB0008D4208BF8442F8D330BD00BF6823002056
:106CC000032813D8DFE800F002080D130A4A5369BD
:106CD00043F4805353617047074A536943F40053A8
:106CE000F8E7054A936943F4007393617047024AD9
:106CF000936943F48063F8E700080040F8B51E4F3D
:106D00001E4E072356F820503B600446FFF7D8FF7D
:106D100006441B4A337E203352F823006FF30300EE
:106D200042F8230052F8230040F0400042F82300CC
:106D30002B6843F001032B603846EB69DA07FCD47B
:106D40002B68DB07FCD40F4A136A5B08B3FBF1F135
:106D50000139C9B22973136A297B0234013102EB6C
:106D600084045B08B3FBF1F35365536D6360082340
:106D70000360506DF8BD00BF7423002004C0000004
:106D8000001C0040F8220020F8B5204F204E0523BB
:106D900056F820503B600446FFF792FF06441D4A18
:106DA000337E203352F823006FF3030042F82300B0
:106DB00052F8230040F0400042F823002B6843F0D3
:106DC00001032B603846EB69DA07FCD42B68DB073C
:106DD000FCD4114A136A5B08B3FBF1F1EB6801398B
:106DE000C9B261F30703EB60136AE9680234C9B200
:106DF000013102EB84045B08B3FBF1F39365936DFF
:106E0000636006230360906DF8BD00BF742300200B
:106E100004C00000001C0040F8220020F8B5204FFC
:106E2000204E032356F820503B600446FFF748FFEE
:106E300006441D4A337E203352F823006FF30300CB
:106E400042F8230052F8230040F0400042F82300AB
:106E50002B6843F001032B603846EB69DA07FCD45A
:106E60002B68DB07FCD4114A136A5B08B3FBF1F112
:106E7000EB680A39C9B261F30703EB60136AE9688A
:106E80000234C9B20A3102EB84045B08B3FBF1F3AC
:106E9000D365D36D636004230360D06DF8BD00BF7C
:106EA0007423002004C00000001C0040F8220020D1
:106EB00010B5074C0748012368220021236004F025
:106EC00005FFFFF7ADFBFFF767FD0223236010BD51
:106ED00074230020F822002009282DE9F0475ED90C
:106EE00063285ED9B0F57A7F5DD342F20F73984282
:106EF0005BD94C4B98425AD94B4B984259D94B4B82
:106F0000984258D94A4B984257D94A4A904294BF1E
:106F100008220922484F494BDFF83081DFF830E181
:106F2000DFF83091464D4FF00A0C1446012614F15B
:106F3000FF3444D2B0FBF6F406FB1400002C51D110
:106F40004FF000643C601D601C68002C3AD14FF08B
:106F50000064CEF800401D601C68002C36D14FF054
:106F600000643C601D601C68002C33D14FF000644D
:106F7000CEF800401D601C68002C2FD1314C1C60E5
:106F80001C68002C47D1013A52B2541CCDD121B11A
:106F90002D4A1A601A68002A40D1BDE8F087002205
:106FA000B8E70122B6E70222B4E70322B2E70422DF
:106FB000B0E70522AEE70622ACE70722AAE70CFB02
:106FC00006F6B4E71C68013C1C60BDE71C68013C88
:106FD0001C60C1E71C68013C1C60C4E71C68013CE4
:106FE0001C60C8E74FF0006AC7F800A0C3F8008033
:106FF0001E6846B9CEF800A0C3F800901E6836B9E6
:10700000013CF1D1BAE71E68013E1E60F0E71E6840
:10701000013E1E60F2E71C68013CB0E71A68013AC5
:10702000B7E700BF9F8601003F420F007F969800A0
:10703000FFE0F505FFC99A3B18800041702300204E
:1070400090D0030060E31600808D5B0040420F008B
:107050001480004120A1070008B5034C20680121DD
:10706000FFF73AFFFAE700BF74230020214B00210D
:107070001960214B4FF00042C3F88420C3F89820D8
:1070800093F8DF2042F0020283F8DF2093F8DF203C
:1070900042F0040283F8DF2093F8DF2042F001027F
:1070A00083F8DF2093F8BF2061F3071283F8BF2035
:1070B000124A536943F480635361114B1A7842F0CA
:1070C00001021A705A68D207FCD44FF400429A6148
:1070D0001A611A6A022161F31E721A621A780A434F
:1070E0001A70074A53689B07FCD4064B4FF00062A6
:1070F0001A6070477423002000800041000800409F
:107100000028004000E100E00C4B4FF00062C3F8A3
:107110008020BFF34F8FBFF36F8F094B1A786FF347
:1071200041021A705A68C2F34002002AFAD1054B94
:10713000596962F38A215961704700BF00E100E09C
:10714000002800400008004010B5294C2949592367
:1071500000202360FFF718FE274B93F8342002210C
:1071600061F3030283F8342093F8342061F30712AB
:1071700083F8342093F8482042F0010283F8482035
:1071800093F8492042F0010283F849201B4B1A680A
:10719000052161F384021A601A686FF319621A609C
:1071A0001A6842F080021A601A6842F002021A60FD
:1071B0005A202246D969890713D4598B012060F3DC
:1071C000051159830D495B20CB695B070BD40B4933
:1071D0005C204B8BC3F30113012B06D15D2313609D
:1071E00010BD1060E6E71060EEE71060F1E700BF49
:1071F00074230020A0860100008000410030004080
:10720000084B5A6A60F30A025A62DA695107FCD4E1
:107210001A7ED207FCD5034A538B5B07FCD40120AE
:10722000704700BF00300040104B5A8B110607D446
:107230001A7ED20704D45A8BC2F30112012A14D049
:107240005A6842F440325A60084A1346D1694807E6
:10725000FCD45A8B1106FCD41A7ED207FCD4034A04
:10726000538BC3F30113012BFAD170470030004058
:1072700038B50D461446B2B1FFF7C2FF0B4A013CC8
:107280006B1E15FA84F1104613F8014F9462047EC8
:10729000E507FCD5448B6407FCD48B42F4D1FFF79F
:1072A000C3FF012038BD104638BD00BF003000408C
:1072B00010B52F4C2F495E2301202360FFF7AEFD50
:1072C0002D4B93F83820022161F3030283F8382014
:1072D00093F8382061F3071283F8382093F8502090
:1072E00042F0010283F8502093F8512042F001024D
:1072F00083F85120214B1A68052161F384021A603A
:107300001A68012161F319621A601A6842F080025A
:107310001A605A6842F480725A60194A4FF4802108
:1073200051609A7D42F080029A751A6842F002021A
:107330001A605F202246D969890713D4598B01202E
:1073400060F3051159830D496020CB695B070BD4AD
:107350000A4961204B8BC3F30113012B06D1622331
:10736000136010BD1060E6E71060EEE71060F1E713
:1073700074230020A0D908000080004100340040A0
:1073800000E100E0084B5A6A60F30A025A62DA69C7
:107390005107FCD41A7ED207FCD5034A538B5B07F6
:1073A000FCD40120704700BF00340040104B5A8BC2
:1073B000110607D41A7ED20704D45A8BC2F30112E5
:1073C000012A14D05A6842F440325A60084A1346DF
:1073D000D1694807FCD45A8B1106FCD41A7ED20717
:1073E000FCD4034A538BC3F30113012BFAD170472A
:1073F0000034004038B50D461446B2B1FFF7C2FF65
:107400000B4A013C6B1E15FA84F1104613F8014F2C
:107410009462047EE507FCD5448B6407FCD48B4260
:10742000F4D1FFF7C3FF012038BD104638BD00BFBF
:107430000034004013B5084B084C1B88ADF80430ED
:1074400040F2E11358430222002301A9205CFFF718
:10745000D1FF02B010BD00BF22C000008823002071
:1074600013B5FD238DF8043040F2E1135843054C69
:107470008DF805100023022201A9205CFFF7BAFF56
:1074800002B010BD8823002013B50A438DF80520F3
:10749000084A094C12788DF8062040F2E112504358
:1074A0000023032201A9205C8DF80430FFF7A2FF1E
:1074B00002B010BD4F2700208823002013B50F23F2
:1074C0008DF8043040F2E1135843064C8DF8051056
:1074D0008DF806200023032201A9205CFFF78AFF14
:1074E00002B010BD8823002010B51F4C1F4A652331
:1074F0002360802313701E4A13701E4A00201370ED
:10750000FFF798FF03210020FFF7AAFF00210122C7
:107510000846FFF7B9FF0120FFF78CFF0321012088
:10752000FFF79EFF012210460021FFF7ADFF00206C
:10753000FFF780FF03210020FFF792FF052211468D
:107540000020FFF7BBFF0120FFF774FF032101209C
:10755000FFF786FF052211460120FFF7AFFF6623E4
:107560002360012010BD00BF742300204F2700209E
:10757000702700204B2700202F4967230B602F4BDB
:107580001A886FF341021A801A889207FCD41A886D
:1075900042F001021A80294B1A8812F00100FBD137
:1075A000274A5A63274A9A631A8892B242F4706251
:1075B0001A801A6C60F341021A64204A1346106C58
:1075C0008007FCD4106C40F0010010641A6C12F0BB
:1075D0000102FBD1186C62F31D701864186C62F321
:1075E0001B6018641A6C022060F315521A641A6C3E
:1075F000072060F30E221A641A6C42F040021A64EB
:10760000114A4FF00040106093F84D2042F0020202
:1076100083F84D2093F84D2042F0010283F84D206D
:107620001A8842F002021A80044A13889B07FCD58C
:1076300068230B60704700BF7423002000A0004146
:10764000B0220020A022002000E100E010B5084C8C
:107650006923421E2360074B504250411A7860F361
:1076600004121A7001F034F96A23236010BD00BFC0
:10767000742300209827002010B50C4C63230020B1
:107680002360FFF7E3FF01200021FFF707FB084B12
:107690001A786FF345121A7001F01AF901200021CF
:1076A000FFF7FCFA64232360012010BD742300203F
:1076B00098270020104B1A886FF34F321A801A88CF
:1076C0006FF30C321A801A886FF3CB221A801A8853
:1076D00042F480621A801A886FF309221A801A888D
:1076E0006FF3C4021A801A886FF342021A801A8854
:1076F00042F001021A807047B022002008B5FFF75F
:10770000D9FF054B8AB25A800844044A58609A60EF
:107710000022DA6008BD00BFB022002028340040FB
:10772000094A136C43F002031364084B40F2E11260
:107730005B885043064A1B04125C43F40053134316
:10774000044A5362704700BF00A00041B0220020ED
:10775000882300200034004010B504460648FE236C
:1077600003700221C5234370FFF7C8FF2046BDE820
:107770001040FFF7D5BF00BFE61F002010B504463C
:107780000548FD23417002210370FFF7B7FF204633
:10779000BDE81040FFF7C4BFE61F002010B5044647
:1077A000064801230370064B02211B784370FFF744
:1077B000A5FF2046BDE81040FFF7B2BFE61F00203E
:1077C0004F27002038B50B490B4B0446C12540F22A
:1077D000E11000FB04112A46184604F0DDF90022EE
:1077E00029460270FFF78AFF2046BDE83840FFF7C0
:1077F00097BF00BFD4230020E61F00200E4A38B5F3
:1078000040F2E11303FB00230C4A0446114603F146
:10781000180053F8045B42F8045B8342F9D11B78EB
:10782000137000230B7005481921FFF767FF2046EE
:10783000BDE83840FFF774BF89230020E61F002011
:1078400010B5084C6422002104F1FF0004F03EFA58
:10785000054A002384F8633184F86431137084F896
:10786000653110BDE61F002078230020044B93F8FB
:10787000630193F86431C31A58425841704700BFFE
:10788000E61F0020064B93F8640193F863316422ED
:10789000C01A90FBF2F302FB1300C0B2704700BFA6
:1078A000E61F002008B5FFF7EDFFC0F16300C0B28E
:1078B00008BD0000074A92F86431D118013381F8FD
:1078C000FF00642093FBF0F100FB113382F8643178
:1078D000704700BFE61F0020054991F8633164201E
:1078E000013393FBF0F200FB123381F863317047F0
:1078F000E61F002008B50146FFF7D4FF88420D4A75
:1079000011D292F865310133DBB2632B82F8653115
:107910000DD9094B4FF000621A60FFF72DFEFFF7FB
:107920008FFF012008BD002382F86531F9E70020B0
:1079300008BD00BFE61F00201880004138B5FFF7E2
:1079400095FF2B4B10B10020187038BD1A7801201C
:10795000A2B9284C187094F86331234493F8FF308F
:10796000652B0CD1FFF7B8FF94F863311C4494F8F1
:10797000FF00FFF7F1FEFFF7AFFF012038BD662BD8
:1079800011D1FFF7A9FF94F86331234493F8FF5016
:10799000FFF7A2FF94F863311C44284694F8FF10C7
:1079A000FFF7ECFEE7E7672B09D1FFF795FF94F8A7
:1079B00063311C4494F8FF00FFF704FFDBE7682BFA
:1079C00009D1FFF789FF94F863311C4494F8FF0054
:1079D000FFF7E4FECFE7692BCDD1FFF77DFF94F8E9
:1079E00063311C4494F8FF00FFF708FFC3E700BFB2
:1079F00078230020E61F0020034B1A7ED2091CBF0B
:107A000080221A76704700BF0034004008B50C4B46
:107A100093F84E2091070BD5022283F84E20FFF7F2
:107A2000C5FC084B00221A70BDE80840FFF786BF6E
:107A300093F84E20D20744BF012283F84E2008BDA0
:107A400000A000417823002038B53A4B3A4A197813
:107A5000A9B13A4B1B781370394B3A4C188840F651
:107A6000970398420DD80020FFF7F0FD14232370F0
:107A7000354B00221A70354B01221A7038BD344B39
:107A8000E8E72078012802D90138207038BD07D1F5
:107A9000FFF7DCFD2F4801F01FFB0023237038BDEA
:107AA0002A4B1878284B98B12B480088B0F51B6FEB
:107AB00026D340F6EC15A84203D91D7810788542EC
:107AC0000AD31878127890421AD80023637038BD10
:107AD000187812789042F7D21A78C2F1A5010129DC
:107AE00002DCA5221A70F0E70232FBE7023AD2B2BA
:107AF0001A7001294FF0000363701AD10F4BBCE7D5
:107B00001A78012AF2D800251D70144B1B78012B1E
:107B10000FD163780133DBB2C82B637009D903201E
:107B200001F08CFF0E4B0F481D70BDE8384001F08E
:107B3000D3BA38BD502700204D2700205B270020F6
:107B4000F42200204C2100204F270020EA270020AB
:107B50004B27002024C00000F62200200D28002022
:107B60000E2800204CC000002DE9F84F304C0021B9
:107B700040F2C232204604F0A9F8A0232370BE23AD
:107B800084F8E1312B4B2C49D3F8A8E3204640F28E
:107B9000E11C4FF008084FF00109714501D3BDE821
:107BA000F88F0A7CCD7C91F811B08C7C0F7D013A66
:107BB0000CFB02F202F14C0A013D82440BEB05136F
:107BC0005344013C8B600BEB04135344013F4B6067
:107BD0000BF1FF330BEB071B0AEB0B06CE60D3F167
:107BE000000A93FBF8F602F1010206EB4505024498
:107BF00005F101050AF0070A03F0070358BFCAF1AF
:107C0000000309FA03F312F805A05BB243EA0A0A7B
:107C100006EB440402F805A0013406EB4706155DA7
:107C20001D43155501362C31945D23439355B4E71C
:107C300088230020DC140020E403002070B52F4AC4
:107C40002F4B9FED307ADFED307AD2F8A8632F49C1
:107C500083ED027A0022C3ED037AC3ED047A83ED4B
:107C6000057A10461446B0EE676A1546F0EE475A9C
:107C7000B1421CD30DB1C3ED025A0CB183ED036ABE
:107C800008B183ED057A0AB1C3ED047A93ED027A67
:107C9000D3ED037A77EEC77A93ED057AC3ED067AD2
:107CA000D3ED047A77EEC77AC3ED077A70BDD1EDD4
:107CB000066AF4EEE56AF1EE10FAF4EEC66A44BF25
:107CC000F0EE665A0125F1EE10FAC8BFB0EE666A12
:107CD000D1ED076AF4EEC76AC8BF0124F1EE10FACD
:107CE000F4EEE76A44BFB0EE667A0120F1EE10FAD6
:107CF000C4BFF0EE667A01222C31B9E7DC14002013
:107D000078270020F9021550F90215D0E40300206D
:107D100010B5184B184C194ADFED196A0021D4F838
:107D2000A803834200D310BD93ED067AD2ED027A08
:107D300092ED066A586837EE677A2C33C7EE067AFA
:107D400013ED047A92ED076A67EEA67A43ED037AA3
:107D5000D2ED057A37EE677AC7EE067A67EEA67A35
:107D600043ED027A017053F8240C017053F8200C93
:107D70000170D4E7E4030020DC1400207827002001
:107D80000000C84208B5FFF759FFBDE80840FFF7FB
:107D9000BFBF0000F0B5DFED756ADFF8D8E1744FC2
:107DA000183010F8044C012C00D1F0BD9EF80040B2
:107DB00050F8086C4CB9750709D416F0020F6AD058
:107DC000D7ED007A70EE277A05E0B40758D5D7EDE5
:107DD000007A70EE677AF4EEE67AF1EE10FA52DD90
:107DE00077EEE67A10ED066AF4EEC67AF1EE10FA56
:107DF00044D410ED057AF4EEC77AF1EE10FA3DDCCA
:107E000077EEC67A10F8105C10F80F4C37EE466A21
:107E100016F0010F87EE867A07EE905A3ED0641B6B
:107E2000B8EEE76A07EE904AF8EEE77AA7EE276A1F
:107E300081ED006A10F80E5C10F80D4C07EE905AB8
:107E4000641BB8EEE76A07EE904AF8EEE77AA7EE11
:107E5000276A82ED006A10F80C5C10F80B4C07EEF4
:107E6000905A641BB8EEE76A07EE904AF8EEE77A9C
:107E7000A7EE276AF0EE467AC3ED007A183090E755
:107E800016F0040F9BE7F5EEC07AF1EE10FAA9D5D3
:107E900077EEA67AA6E7F0EE407AA3E7641BF8EE49
:107EA000E75A07EE904AF8EEE77A16F0080F91EDE0
:107EB000006AE7EE275A2CD036EE656A81ED006A3B
:107EC00010F80E5C10F80D4C07EE905A641BB8EEDB
:107ED000E76A07EE904AF8EEE77AA7EE276AD2ED56
:107EE000007A77EEC67AC2ED007A10F80C5C10F8D2
:107EF0000B4C07EE905A641BB8EEE76A07EE904A07
:107F0000F8EEE77AA7EE276AD3ED007A77EEC67A25
:107F1000B2E736EE256A81ED006A10F80E5C10F8C3
:107F20000D4C07EE905A641BB8EEE76A07EE904AD4
:107F3000F8EEE77AA7EE276AD2ED007A77EE867A36
:107F4000C2ED007A10F80C5C10F80B4C07EE905A5A
:107F5000641BB8EEE76A07EE904AF8EEE77AA7EE00
:107F6000276AD3ED007A77EE867A85E70000C8426B
:107F70006C270020582700202DE9F04F2DED028BB3
:107F8000B14AB24B1278B24D53F822B02A6885B08C
:107F90009A4692B1DFF8048300272A68D8F8A8131C
:107FA0008A42FBB204D298F8AC13994200F2968050
:107FB00005B0BDEC028BBDE8F08FA64B2B60A64B45
:107FC000A64CD3E90067013647F10007C3E9006713
:107FD000A34B1B78B7EE008A84ED008A2BB3A14A2D
:107FE000A14B92F800E0A14A187811780EFB00101E
:107FF000C0B2FF2810705CD1187003F027F890A36E
:10800000D3E900238046894603F086F842464B4672
:1080100003F082F803F0B2FA07EE100AB4EEC87A61
:10802000F1EE10FA4ADD84ED008A914B9FED917AD2
:1080300093ED008AC7EE087A00242346304639467D
:10804000FCEEE77A17EE902A03F0F6FB194610468D
:1080500003F0ACFB06EE900AB2EE047AC6EE877A25
:1080600042F210719FED847A67EE887A67EE877A24
:10807000FCEEE77A17EE903AB3FBF1F201FB123314
:1080800007EE903AF8EEE77A7C4B7D4AC7EE876AB6
:108090009470C3ED006A7B4B196851602346581CED
:1080A0004E08C0B216D1002C3FF474AF93705160EB
:1080B00070E70028A1D101221A709EE7B5EEC07AC0
:1080C000DFED717AF1EE10FA58BFF0EE477AC4EDA9
:1080D000007AAAE7034631460124E0E700236B4912
:1080E00001930293039305EE103A694B0978D2EDA0
:1080F000087AD2ED094A1B78002908BFF0EE674ADA
:10810000012B79D192F82830FF2B7BD19DED027A9B
:10811000DFED607AB4EEE77AF1EE10FA40F32181F8
:10812000CDED027A9DED037AB4EEE77AF1EE10FA26
:1081300040F31F81CDED037A494B1B78A3B1474B28
:10814000DDED017A93ED007A67EE877ACDED017A65
:10815000DDED027A67EE877ACDED027ADDED037A06
:1081600067EE877ACDED037ADDED017A2B68FCEEC0
:10817000E77A5A6817EE903A1370DDED027A2B68B1
:10818000FCEEE77A9A6817EE903A1370DDED037A09
:108190002B68FCEEE77ADA6817EE903A137000F07D
:1081A000CBF920B300F0C8F92B6893F82820182ADF
:1081B00040F0E78010F0020F19D05B6893F90020BF
:1081C000002AB4BF0022FF221A702B689B6893F923
:1081D0000020002AB4BF0022FF221A702B68DB683F
:1081E00093F90020002AB4BF0022FF221A702B68E6
:1081F0002C332B600137D0E6022B1CD192F82830AB
:10820000FF2B83D1244C637E002B49D0B0EE640A4F
:1082100003AB02AA01A95846FFF7BCFDDDED017AC8
:108220009FED1C7AF4EEC77AF1EE10FA40F39180DC
:108230008DED017A6AE7032B67E700BFAFF300809B
:10824000691D554D1075EF3E4A27002000000020A3
:1082500054270020E40300207827002084230020F6
:1082600050270020712700204E270020682700207B
:108270008023002000007A440000C8426C270020C0
:108280004C210020641F0020000000004C2700202B
:108290005927002000007F43C4030020DC14002085
:1082A0001678013E724202F01F0206F01F0358BF0B
:1082B0005342012202FA03F9202396FBF3F6B6009B
:1082C0001C3414F8033C002BA8D134F81C3C99074B
:1082D00005D52F4A14F8081C92789142F0D1D9079D
:1082E00005D5A21952F8182C39EA0202E8D1DA06AB
:1082F0000DD49A0624D514F8040C5AF82000B0EED8
:10830000640A03AB02AA01A9FFF744FDD8E714F8F9
:10831000073C07EE903A14F8063CF8EE677ACDED8C
:10832000017A07EE903A14F8053CF8EE677ACDED45
:10833000027A07EE903AF8EE677ACDED037ABFE75E
:108340005806BDD5B0EE640A03AB02AA01A958468F
:10835000DAE7F5EEC07AF1EE10FA48BF8DED015A7A
:10836000D4E6B5EEC07AF1EE10FA48BF8DED025AB0
:10837000D8E6B5EEC07AF1EE10FA48BF8DED035A9B
:10838000DAE6362A7FF433AF10F0040F14E700BFAB
:108390004C2100207047000038B51A4D6B232B602C
:1083A000FFF7E2FBFFF7EEFC174900220023C1E9CB
:1083B00000231649C1E90023154A01231370154A09
:1083C00000241470144A1470144A4FF08141116053
:1083D000134A1470134A1470134A1470134A147019
:1083E000134A1370134A1370134B5C701C70134BB9
:1083F0001C60FFF7CFFFFFF7BFFD6C232B6020460B
:1084000038BD00BF7423002078270020602700209B
:108410005A2700204A2700205927002080230020C7
:10842000582700204C2700205027002068270020D4
:10843000712700204E2700204C21002054270020C7
:108440002DE9F041364B374D1B78374E002B5DD070
:10845000364FFEF7EFFBD7E900230021994208BF12
:10846000904253D32A68D6F8A8339A4253D1FEF7E4
:10847000E1FB00240A3087E811002D4A2D4F1078C7
:108480003978884290461FD00720FFF733FAA0B111
:108490006520FFF70FFA2046FFF70CFA6620FFF77A
:1084A00009FA2046FFF706FA0320FFF703FA6820CF
:1084B000FFF700FA2046FFF7FDF90134E4B2022C81
:1084C000E2D198F800303B7000240720FFF712FA41
:1084D000A0B16520FFF7EEF92046FFF7EBF9662023
:1084E000FFF7E8F92046FFF7E5F90120FFF7E2F989
:1084F0006720FFF7DFF92046FFF7DCF90134E4B22B
:10850000022CE2D1FFF71AFA00232B602A68D6F872
:10851000A8339A4201D0FFF72FFDBDE8F08100BFDC
:108520005A27002054270020DC1400206027002058
:108530004F27002070270020044B93F90030002BB8
:10854000B4BF034B034B1878704700BFEA220020EA
:10855000E4270020E82700207047000010B5EFF363
:10856000108472B6BFF35F8F084B03221A7008B1F4
:10857000803880B2A3F80100054B01221A7000F088
:1085800055FFBFF35F8F84F3108810BDE0270020F4
:10859000BA27002010B5EFF3108472B6BFF35F8FD7
:1085A000074B04221A70A3F80100064B01221A702F
:1085B00000F03CFFBFF35F8F84F3108810BD00BF55
:1085C000E0270020BA27002070B54FF082435C7B83
:1085D000E4B2042C0AD1174B174D00221A602B78F5
:1085E000042B26D0FDF745FE2C7070BD082C06D15B
:1085F000104B114D00221A602B78082BF1E7022C4A
:1086000014D10D4E3378022B13D00A4D2B6823B9A9
:10861000FEF710FBFA30286070BDFEF70BFB2B68ED
:10862000984206D9FDF730FE347070BD014B002230
:108630001A6070BD58210020A8180020034B1B7839
:10864000022B01D1FFF7FCBE704700BFA818002025
:10865000F8B51F4CFEF7EEFAD4E9022300218B4255
:1086600008BF82422BD2FEF7E5FA0530A060002356
:108670000C20E360FDF7B8FF164C174B0546188039
:10868000208802F0E3FC0EA3D3E9002302F044FDAE
:10869000064628460F4602F0D9FC0BA3D3E9002377
:1086A00002F03AFD0B4602463946304602F082FBA4
:1086B00002F044FF2080BDE8F840FFF7C5B9F8BDDF
:1086C000CDCCCCCCCCCCEC3F9A9999999999B93F27
:1086D00058210020F6220020F422002010B50A4C78
:1086E000FEF7A8FAD4E9042300218B4208BF824296
:1086F00009D2FEF79FFA00230A3020616361BDE8CA
:10870000104001F0E9B910BD5821002008B5FFF76D
:108710005BFFFFF793FFFFF79BFFBDE80840FFF704
:10872000DDBF000038B51D4B1B78DB09044633D193
:108730001B4D2B789BB9EFF3108572B6BFF35F8F9B
:10874000184A2368136063685360174B01221A703C
:1087500000F0F0FDBFF35F8F85F3108838BDFFF7A1
:10876000D5FFE6E7FFF7D2FF2B78002BFAD1EFF326
:10877000108572B6BFF35F8F0C4B204604F12002C8
:1087800050F8041B43F8041B9042F9D1084B012216
:108790001A7000F00BFEDDE7064DE5E7EA22002047
:1087A000B9270020B0270020B8270020C0270020CC
:1087B000AC270020BB2700203F4B4FF0006210B5D4
:1087C0001A604FF08042C3F880203C4CFEF74EFC0C
:1087D000FEF76EFBFDF762FE00F0BCF8FEF768FDE9
:1087E000FBF77EFD00F09EFE7A23236000F038FA4E
:1087F0007B2323607C23236000F070FC7D232360B7
:1088000001F0CEF80028FBD02D4B4FF000621A602B
:108810004FF08042C3F88020FFF7BEFDFEF72CFF2B
:108820000128FBD1FEF760FE0128FBD1FEF7A4FE74
:10883000FFF706F800240720FFF75CF8A0B16520D9
:10884000FFF738F82046FFF735F86620FFF732F8D3
:108850002046FFF72FF80020FFF72CF86920FFF7DC
:1088600029F82046FFF726F80134E4B2022CE2D1C1
:10887000FCF74DFBFCF751FB1248134CFCF718FBBF
:108880000C20FDF7B1FE114B1880FEF73DFCFFF701
:108890003DFF2378042B01D0082B0AD1FDF7D1FC32
:1088A0000028F4D002F00EFA32200021FDF732FD4C
:1088B000EDE7FCF73BFBEAE708800041742300206A
:1088C00014800041AC180020A8180020F6220020D7
:1088D0001B4B1C494FF4804270B51A601A4A4CF287
:1088E00050333C20147EE40702D4013B9BB20BBB07
:1088F000164B154A1988134CCBB2936210464CF2B2
:1089000050333D25167EB60702D4013B9BB29BB97E
:10891000090A81620C4A0B494CF250333E20147E06
:10892000A40702D4013B9BB243B9094B4FF48042E8
:108930001A6070BD0860D5E72560E3E70860EEE7E0
:1089400094800041742300200020014198270020DA
:108950009880004110B5314C31493B2302202360FF
:10896000FEF7CCF92F4B93F83620022161F3030276
:1089700083F8362093F8362061F3071283F8362007
:1089800093F84C2042F0010283F84C2093F84D20DC
:1089900042F0010283F84D204FF44042C3F8882092
:1089A0004FF48042C3F898204FF40042C3F8982057
:1089B0001D4B1A6842F080421A601A6842F0005259
:1089C0001A601A6842F080521A601A6842F4401223
:1089D0001A601A68032161F384021A601A6842F06F
:1089E00002021A603F214CF25132D869800701D54A
:1089F000013A11D10D4B4FF01C026FF300025A7077
:108A00006FF01F021A70FFF763FF094B4FF400422B
:108A10001A604023236010BD2160E6E77423002024
:108A200040420F00008000410020014198270020B3
:108A300094800041FEE7000008B51D4A1D4B52F826
:108A4000101C99420AD1002342F8103C1A4A82F3C2
:108A500008881A4A936041F267231847184A194B4D
:108A60009A4218D1184B194A002193421CD3184A34
:108A7000124B22F07F029A60D3F8882042F47002F1
:108A8000C3F88820BFF34F8FBFF36F8F03F05CF8FC
:108A9000FFF792FEFEE70F49043A8B42E2D252F80A
:108AA000040F43F8040BF8E743F8041BDDE700BFAD
:108AB0000000022000CA9A3B1888002000ED00E068
:108AC00078C1000000000020C01E00200C2C0020F7
:108AD00000400000B41E002000F0E0BC00F0E1BC4B
:108AE00008B501F01BFFBDE8084000F0DBBC00F05A
:108AF000D6BC00F0D5BC0000014B012018707047B7
:108B000070210020014B00221A7070477021002054
:108B1000014B01205870704770210020014B00224A
:108B20005A70704770210020014B012098707047E7
:108B300070210020014B00229A70704770210020A4
:108B400070B5124A13780BB9002070BD53681B68CA
:108B50001C798442F8D993605D8800241D44AB429F
:108B600003D3002CF0D09360EEE75E78042E09D199
:108B70009E78864206D1DE788E4203D104B193609E
:108B8000012070BD1C7823440124E8E774210020F3
:108B9000024B987800F07F0002F084B8C82B0020C8
:108BA000084B5B681B685A881A4403781844904243
:108BB00001D3002004E04378042BFAD0052BF4D134
:108BC000704700BF7421002070B50646FFF7B8FF5C
:108BD00068B10C4DAC682046FFF7E2FF044640B197
:108BE0008288C178807801F0C3FE0028F3D100208C
:108BF00070BD6B685B6853F82630BDE870401B6839
:108C0000184700BF7421002070B500210546FFF70A
:108C100097FF10B90025284670BD0D4C63685B684E
:108C200053F82560F368984701462846FFF788FF08
:108C300005460028EED0A4682046FFF7B1FF0446A1
:108C400018B1807801F072FEF6E773689847E2E7A2
:108C500074210020014B9868704700BF74210020E8
:108C600002F082B838B50D4C237843B10025636813
:108C70001B681B79E8B2834205F101050AD8A28975
:108C8000002312F0020F23701D4601D0FFF731FFC1
:108C9000A58138BDFFF7B8FFE9E700BF74210020C8
:108CA00038B5094C227832B1002562681368197909
:108CB000EBB2994200D838BD526852F823301B6994
:108CC00003B198470135F0E7742100202DE9F04108
:108CD000A94C0023A3812361636123785AB2002A3F
:108CE00005DAE18819B900252846BDE8F08113F0BE
:108CF00060011DD1002A80F2F980E588C5B113F02A
:108D00001F0340F0B6806378062B0AD0082B00F0D2
:108D1000A8806BB9022D11D19848294601F0E4FFD3
:108D200050E063881D0A022D39D028D8012D30D09B
:108D3000237803F01F03012B00F0A481237803F0B4
:108D40001F03022BCFD18E4F3A78002ACBD00025BB
:108D50007B681A681279ECB2A242C4D95B6853F8F6
:108D60002460F368984701462046FFF7E9FE002893
:108D7000B9D0B368984701350028E9D022E0032D27
:108D800022D00F2DD4D17F4B98680028D6D04188AF
:108D900002E07C4B1868017801F0A6FF0DE0794AEB
:108DA0001168497CDBB29942C8D9526852F8330045
:108DB000418801F099FFA3685D70E388A2899A4217
:108DC00088BFA38101258FE7DBB2032BB0D8DFE892
:108DD00003F0054102086C4B0D212BE004216B4888
:108DE000DAE76B4B53F8042C191F531C04D0914243
:108DF00002D912F003032BD0614B0B2283F82320FE
:108E0000644B12E0E854013332F81300A0F121065C
:108E10005D2ED9B202D8142BF4D11946584B5A18EA
:108E2000002083F8231090730E33554A92F82310D4
:108E30000029C2D0584E1D463046EA1AD2B291429D
:108E40000AD801314900554BC9B283F82010A3E775
:108E5000534DD9E7514BBFE715F8012B26F8022FE8
:108E6000EBE7012D7FF46AAF4548294601F03CFF4E
:108E70003AE7012B27D163780A2B7FF459AF012DF4
:108E800040F000813E4E3378002B00F0FB80D6F896
:108E900004802779D8F800301B79BB4240F2F28079
:108EA0003846FFF74DFE054600283FF441AFD8F89D
:108EB000043053F82730DB689847012186F82400F6
:108EC00006F12400D2E7022B7FF432AF6378002B47
:108ED0007FF42EAF022D7FF431AF207901F0A8FD91
:108EE00003462748294620F8263F17E713F01F03BB
:108EF00040F087806378013B082B3FF619AF01A251
:108F000052F823F0378F0000318D0000578F00009A
:108F1000318D0000298F0000318D0000318D00005F
:108F2000318D0000A98F0000E388002B7FF406AF8D
:108F30001C4B236146E7E388002B7FF4FFAE658876
:108F4000012D7FF4FBAE0E4A938923F00203938137
:108F5000FFF7CFFDC8E6E388002B7FF4EFAE65880E
:108F6000012D7FF4E5AE064A938943F00203938115
:108F7000FFF7BDFDB8E600BFC82B00208021002010
:108F800074210020FC190020D2180020E0180020D5
:108F90000040000076C00000E4180020C418002043
:108FA00082210020918B0000E588002D7FF4C6AE61
:108FB00001F080FE00283FF4BBAE454FA2783B682D
:108FC0005B7C9A423FF7B4AEFFF74CFE414EA3786C
:108FD0003370002B3FF4F6AE03F100537A68013B87
:108FE00002EBC303736073681B681B79E8B28342AA
:108FF0007FF6E8AE0021FFF7E7FD01350028F2D14A
:1090000096E6012B1AD163780B2B7FF491AEE3889F
:10901000002B37D12F4B1B78002B33D02579668856
:109020002846FFF7F1FD00283FF482AEF1B2284652
:10903000FFF7CAFD00287FF4C5AE79E6022B7FF466
:1090400077AE6378012B11D0032B7FF471AEE388E8
:10905000002B7FF473AE6388002B7FF46FAE207912
:1090600001F042FC207901F0E9FCE3E7E388002B02
:109070007FF464AE6388002B7FF460AE207901F04A
:1090800057FDD7E7134B1A78002A3FF457AE5E68B6
:10909000257933681B79AB427FF650AE0021284614
:1090A000FFF74EFD00283FF449AE736853F8256082
:1090B000F368984701462846FFF742FD00283FF431
:1090C0003DAEB368984700287FF47CAE36E600BF1B
:1090D000FC1900207421002000207047034A00235F
:1090E00013605360024A1370704700BF9C27002032
:1090F000A82700202DE9F041294D2E7816F0800F89
:10910000174606F0600637D006F0FF040EBB6B78FA
:10911000062B04D1FFF79EFD837A212B02D000207D
:10912000BDE8F0816B881B0A212BDAB20BD100F16C
:109130000903AB60437AEA88934228BF1346AB81A8
:109140000120BDE8F081C37B9342E8D1AF60038A80
:10915000F1E7202CE3D16A78022A06D0032A09D04D
:10916000012ADCD1BDE8F0411847A8600120A881A0
:10917000BDE8F081A960F9E7202ED0D16A780A2AEB
:1091800003D00B2A05D0092AEBE76B881B0A037072
:10919000D6E7EB88002BC2D16B880B70D0E700BFFD
:1091A000C82B0020094B5888020A022A0CD110F063
:1091B000FF0009D1DA88012A07D1054999600549DC
:1091C00019619A811046704700207047C82B002013
:1091D000E827002029930000094B5888020A022A38
:1091E0000CD110F0FF0009D1DA88012A07D1054916
:1091F0009960054919619A811046704700207047AF
:10920000C82B0020E42700202B930000002070478B
:10921000094B5888020A022A0CD110F0FF0009D12C
:10922000DA88012A07D105499960054919619A81AF
:109230001046704700207047C82B0020BC27002034
:109240004592000070470000064A00231370137116
:10925000054A1370054A13605360054A1370FFF7FF
:109260004BBC00BF9C210020B9270020B027002064
:10927000B8270020FFF746BC0248034B034A011DF4
:10928000FFF738BF9C210020A59100001019002095
:109290000348044B044A00F108010C30FFF72ABFD1
:1092A0009C210020D99100004C1900200348044B58
:1092B000044A00F110011430FFF71CBF9C2100206C
:1092C0001192000088190020084B094810B50024AD
:1092D0001C731C72074B214620221C7002F0F6FC06
:1092E000054B1C70BDE81040FFF712BC9C2100200C
:1092F000C0270020BB270020AC270020FFF70EBCB2
:10930000054A0023137513745375044A1380937030
:10931000034A1370FFF708BC9C210020E0270020BF
:10932000BA270020FFF706BC70477047002070473F
:109330000020704737B5104B1B7803F0FF00B3B126
:109340000E4C237803F0FF059BB90D4B0D4A93E8B3
:1093500003000D4B1D700D4B82E80300009329465E
:109360000823812001F0FEFB20702078C0B203B0FA
:1093700030BD0020FBE700BF70210020B92700208E
:10938000B0270020B4210020B827002091930000CE
:10939000044B00221A70044B1B780BB1FFF7CABFB5
:1093A000704700BFB9270020B8270020F7B5124B3F
:1093B0001B7803F0FF00D3B1104E337803F0FF07A2
:1093C000BBB90F4D0F4C0FCD0FC495E80F0084E8CB
:1093D0000F000D4B1F700D4B0093A4F110022023C2
:1093E0003946832001F0BEFB30703078C0B203B044
:1093F000F0BD0020FBE700BF71210020BB2700204B
:10940000C0270020BC210020AC27002011940000C0
:10941000044B00221A70044B1B780BB1FFF7C6BF38
:10942000704700BFBB270020AC27002013B50F4BAF
:109430001B7803F0FF00A3B10D4C617D99B90D4B72
:109440001B68A4F840301B0C84F842300A4B19709A
:109450000A4B009304F140020323822001F082FBB7
:10946000607502B010BD0020FBE700BF7221002034
:109470009C210020E0270020BA27002081940000D2
:10948000044B00225A75044B1B780BB1FFF7CEBF7B
:10949000704700BF9C210020BA270020704770470A
:1094A00070477047704700002DE9F041184C194E85
:1094B000194F4C23236000254FF02008174B184A02
:1094C00035702B4486F8018003F1200153F8040B1A
:1094D00042F8040B8B42F9D14CF250332222314630
:1094E0005820FDF7C5FE7B6843F440337B604D2276
:1094F000FB695B070AD464202035FDF7A1FBB5F5B5
:10950000807FDBD14E232360BDE8F0812260EFE74E
:1095100074230020EB270020003000401428002096
:10952000ED27002070B5814C814E6D23236040F6FD
:109530003C150C20FDF758F8A842308040F2DF803F
:109540007C4BD3F8A8206FF30302C3F8A820D3F80C
:10955000A82042F04002C3F8A820A3F5A053072199
:109560001A6942F480621A619A6942F001029A61B2
:10957000714B772283F83C2093F8582042F0010287
:1095800083F8582093F8592042F0010283F85920BB
:1095900093F8BB2061F3030283F8BB2093F8D62035
:1095A00042F0010283F8D620644B1A7F6FF3410228
:1095B0001A776F2193F82C20950700F1A3805F4B59
:1095C000702193F82C20500700F19E8093F8202002
:1095D00042F0080283F82020584B712193F82C2088
:1095E000520700F1938093F82020544942F0010281
:1095F00083F82020722391F82C20C2F38002002AE5
:1096000040F0868091F8203062F3451381F82030D5
:109610004A4B732193F82C2056077BD493F82020D3
:1096200042F0100283F820209A6A4BF6803161F3F1
:109630000F029A62414B742193F82C20D5066BD40B
:109640001A7F42F002021A773C4A752192F82C30B8
:10965000980763D44FF0824376211A7842F00102D2
:109660001A709A78D2075BD44FF0824377211A7828
:1096700012F0010256D1198D042060F38A11198568
:10968000198D62F304011985198D62F30E31198564
:10969000198962F383011981197862F3C71119706E
:1096A0001A7842F002021A704FF0824378229D78B5
:1096B000C5F34005002D37D1DA78022161F383022A
:1096C000DA70DA7861F30102DA701B4A92F85230EC
:1096D0000B4382F85230FDF737FD194A537843F0B7
:1096E000C0035370FFF7F4F86420FDF7A9FA154B97
:1096F0001D70154B01221A707923236070BD6E23F3
:10970000236016E7216055E721605AE7216065E78D
:10971000236070E721607DE721608DE7216095E798
:1097200021609EE72160A2E72260C0E77423002049
:10973000F4220020001C0040008000410010004086
:10974000982700200E280020EA27002038B50C4C6E
:109750000C4D44232B6063786FF386136370FFF71F
:10976000B7F80120FDF76CFA637843F040036370AB
:10977000FFF7AEF80120FDF763FA45232B6038BDF3
:109780009827002074230020F8B54FF48072002140
:109790003248334D02F09AFA324B53F8040C1A1F38
:1097A00049232B60431C56D0824254D910F0030346
:1097B00051D101464A2630F81340213CA4B25D2C19
:1097C000DAB203D80133152B43D11422234C4FF4C2
:1097D0009B6020804EF6C560608040F20110A08042
:1097E000A079627540F0A000A071207A40F00100DD
:1097F000207214206073E0730D20E0740C2020753B
:10980000194804F1160600F1180750F8043B46F811
:10981000043BB842F9D103883380144B144803F158
:10982000180653F8047B40F8047BB342F9D1520088
:10983000104802F0B1F994F8FF3043F0010384F8C6
:10984000FF30FFF731FE0C4B00221A804B232B60B8
:10985000F8BD2E60AFE70B220849B7E714280020B7
:10986000742300200040000098C00000B2C0000037
:1098700068280020A62800201028002082C00000B0
:10988000024B186AC0F38040704700BF008000415F
:109890002DE9F843394D3A4C3A4E3B4FDFF8F890FA
:1098A00046232B60022333703B70237843F0C003C0
:1098B0002370637843F0140303F0FD036FF3000398
:1098C0006370FFF705F8FA200021FDF7E7F940F68D
:1098D0003C180C20FCF788FE4045A9F8000035D95B
:1098E0000E20FCF781FEDFF8B480A8F800000D2000
:1098F000FCF77AFE254B264A1880B8F80030138012
:10990000244A98421080637823D2227803F0DF0340
:1099100062F07F0243F00A036FF386126FF30003D5
:1099200022706370FEF7D4FF63786FF304136370E3
:10993000FEF7CEFF0023337000233B70FFF706FFD6
:10994000FFF722FF48232B60BDE8F88347232B60F5
:10995000BFE7227803F0D40302F07F0242F0400216
:1099600043F0210322706370FEF7B2FF63786FF358
:1099700004136370FEF7ACFF0123DCE774230020BF
:1099800098270020122800200D280020F022002017
:10999000EC220020F2220020F4220020EE220020FF
:1099A0002DE9F041204CDFF89080204E204D4123DE
:1099B0002360FFF76DFFFDF73DF900F5FA67FFF74C
:1099C0005FFF20B1432323600120BDE8F081FDF754
:1099D00031F94FF4FA63B0FBF3F202FB1300154BBD
:1099E000B8F800201B889A4208D96FF4FA7108442D
:1099F00062284FF0006309D9336008E007D26FF4A2
:109A0000FA728318622B0BD84FF000632B60FDF7BE
:109A100011F98742D3D2422323600020BDE8F081B0
:109A20006FF42F731844E3E774230020148000417F
:109A300018800041F0220020EE22002010B51C4AC0
:109A400012780328044614BF03460023BAB9194A02
:109A5000517863F300015170164AB3FA83F35178D9
:109A60005B0963F382015170FEF732FF124B012C48
:109A70001C700BD11148BDE81040FFF72DBB012A27
:109A800015D10C4A517863F34101E4E754B90C480D
:109A9000FFF722FB0B4B1B784BB10B4B1A780B4B90
:109AA0001A7010BD032C0CBF09480A48E3E710BD2B
:109AB00012280020982700200D280020CAC000008E
:109AC000DFC00000502700204B2700205B2700202C
:109AD000F5C0000018C10000F8B5274B1B7853BB38
