:10400000F0F9002035990000319900003199000045
:104010003199000031990000319900000000000042
:1040200000000000000000000000000031990000C6
:104030003199000000000000319900003199000022
:104040003199000031990000319900003199000048
:104050003199000031990000319900003199000038
:104060003199000031990000319900003199000028
:104070003199000031990000319900003199000018
:104080003199000031990000319900003199000008
:1040900031990000319900003199000031990000F8
:1040A00031990000319900003199000039850000F4
:1040B000319900003199000031990000ED8E000027
:1040C00031990000319900003199000031990000C8
:1040D00031990000319900003199000031990000B8
:1040E00031990000319900003199000031990000A8
:1040F0000000000031990000319900003199000062
:104100003199000031990000D98E000031990000EA
:104110003199000031990000319900003199000077
:104120003199000031990000319900003199000067
:104130003199000031990000319900003199000057
:104140003199000031990000319900003199000047
:1041500031990000319900000000000000000000CB
:10416000000000000000000000000000000000004F
:10417000000000000000000000000000000000003F
:104180009DB20000B5B20000B9B20000BDB200009F
:1041900000000000319900003199000031990000C1
:1041A00031990000319900003199000031990000E7
:1041B00031990000319900003199000031990000D7
:1041C00031990000319900003199000031990000C7
:1041D00031990000319900003199000031990000B7
:1041E00031990000319900003199000031990000A7
:1041F000319900003199000031990000257E0000BE
:104200004D7E000000000000000000003199000019
:104210003199000031990000319900003199000076
:104220003199000031990000319900003199000066
:104230003199000031990000319900003199000056
:104240003199000031990000319900003199000046
:104250003199000031990000319900003199000036
:104260000000000010B5054C237833B9044B13B19E
:104270000448AFF300800123237010BD60250020A7
:1042800000000000241401000C4B43B10C480D4900
:1042900010B5AFF300800C48036823B910BD0A487D
:1042A000036833B97047094B002BF7D0BDE81040C5
:1042B0001847064B002BF5D0184700BF0000000040
:1042C00024140100642500202414010000000000D3
:1042D00008B500F099FA08BD08B500F0D9FF08BD8F
:1042E000294A2A490023F0B553601360C2F8073009
:1042F000274A284E53601360C2F80730264A53609D
:104300001360C2F80730254A01F10B0013605360B7
:10431000864601274B78447806EBC31307FA04F46A
:104320005C6011F8014F10F8015F06EBC41307FA47
:1043300005FCC3F814C02B44714593F8405045F078
:10434000020583F8405093F8405045F0040583F887
:10435000405052F8243043EA0C0342F82430D9D1BB
:104360000F4E104D0B48002301249A5D595D00EB60
:10437000C212013304FA01F1082B91605161F4D1AA
:10438000BDE8F04001F08EBA732E0020A303002098
:104390007E2E002000800041682E0020602E00202C
:1043A00080250020BA0300202DE9F04F85B003F0EE
:1043B000B1FE3D4BD3E902450021A94208BFA0420E
:1043C000984663D3DFF8F890384C0025A9F1150B17
:1043D00065602560C4F8075003F1FF3A01270BF12F
:1043E0000B029AF80130324E99F80110019206EB57
:1043F000C31307FA01F199610A2003F091FE2D49D8
:10440000306A0B6803400293D6F8A0004B681AF894
:10441000011F0340039319F8013F06EBC11607FA89
:1044200003F3736107FA05F1019A49B2002313F807
:104430000B6004A800EB8606985C56F8086C07FA37
:1044400000F030421EBFE05C0843E05401330B2B08
:10445000EDD10135082DC4D1002217491346A05CC7
:104460004D7801F8010F0132854218BF01230B2A54
:10447000F5D17BB9114AE15C995401330B2BFAD188
:1044800000220023C8E9022301F016FA012005B03A
:10449000BDE8F08F03F03EFE00230530C8F80800A9
:1044A000C8F80C30F0E700BF80250020732E0020F4
:1044B00000800041602E00207D2E0020682E00200C
:1044C000B9030020014B185C704700BF682E002024
:1044D0002DE9F047B0B0354B0093BC22002101A874
:1044E00008F008FC32238DF8043033238DF80530B2
:1044F00034238DF8063035238DF8073036238DF8B8
:104500000830372331258DF809300D2438230A214E
:10451000274F8DF80A308DF803508DF80B408DF839
:104520000C1004AB012220264FF02E0E4FF0580C39
:10453000D019092A10F8018C85BFB2FBF1F001FBFC
:10454000102002F13000303095BF03F8030C03F85F
:10455000020C03F8026C03F8035C03F8016C1846C4
:104560004FF0000948FA09FA1AF0010F09F10109A0
:1045700014BF80F800C080F800E0B9F1080F00F126
:104580000100EFD101320C2A1C72597203F10D03A4
:10459000CED100238DF89C30064B1B78DB0702D56B
:1045A000684603F011F830B0BDE8F08752204300B0
:1045B000682E0020E528002070470000FF2802D860
:1045C000544B185C704745F60A53984200F08580BA
:1045D0003AD845F60153984271D01AD845F6FD43B2
:1045E000984268D00BD845F6FB4398425FD060D81C
:1045F00045F20113984200F08A800020704745F68A
:10460000FF43984259D0B0F5BA4F2CBF5D205B20D4
:10461000704745F60553984257D006D845F60353E0
:10462000984250D04DD96120704745F607539842C3
:104630004FD04CD345F6085398424CD045F6095319
:104640009842DAD16620704745F61253984250D00E
:1046500012D845F60E53984245D006D845F60C536D
:1046600098423ED03BD96A20704745F61053984295
:104670003DD03AD96E20704745F6165398423ED049
:1046800006D845F61453984237D034D97220704773
:1046900045F61853984236D033D345F6195398420D
:1046A00033D045F61A539842A7D177207047582047
:1046B0007047592070475A2070475C2070475E2031
:1046C00070475F207047602070476220704763200A
:1046D00070476420704765207047672070476820E6
:1046E0007047692070476B2070476C2070476D20C1
:1046F00070476F207047702070477120704773209B
:10470000704774207047752070477620704752209C
:10471000704700BF902E00202DE9F04FE1B008ABAC
:104720004FF4B0723649DFF8DCB0184608F048FAAA
:104730004FF0780900240190CA46019A2C2303FB0C
:1047400004225FFA84F8039200210593CBB204930C
:10475000039B33F81100FFF731FF0AFB00B3069308
:1047600009FB00B3074642460793BDF81430019891
:10477000151B002D12FB03F30344B8BF6D420293D7
:104780000026EDB2029B33F81600FFF717FF8742B1
:1047900025D0731A002BB8BF5B42DBB203EB050ECA
:1047A0000093049B5FFA86FC9C455FFA8EFE0AD25A
:1047B000904508D2009BAB4294BFAEEB030EAEEB2C
:1047C000050E5FFA8EFE079B1B5C0BB19E4506D261
:1047D000069B03F800E00AFB00B000F807E0013692
:1047E000162ECFD10132D2B2082ABED101311629FC
:1047F000ACD10134082CA0D161B0BDE8F08F00BF6E
:10480000A60A01000E300020F0B5ADB0B0220021A4
:10481000684608F06FFA0123ADF800300223ADF8C6
:1048200002300323ADF804300423ADF8063005232D
:10483000ADF808300623ADF80A300723ADF80C3088
:104840000823ADF80E301123ADF810301223ADF867
:1048500012301323ADF814301423ADF8163015239D
:10486000ADF818301623ADF81A301723ADF81C3008
:104870001823ADF81E302223ADF820302323ADF8E5
:1048800022302423ADF824302523ADF8263026230A
:10489000ADF828302723ADF82A302823ADF82C3086
:1048A0002923ADF82E303323ADF830303423ADF862
:1048B00032303523ADF834303623ADF83630372377
:1048C000ADF838303823ADF83A303923ADF83C3004
:1048D0003A23ADF83E304023ADF840304123ADF8E7
:1048E00042304223ADF844304323ADF846304423F0
:1048F000ADF848304523ADF84A304623ADF84C308A
:104900004723ADF84E304D23ADF850304E23ADF86F
:1049100052304F23ADF854305023ADF85630512368
:10492000ADF858305223ADF85A305323ADF85C300F
:104930005423ADF85E300923ADF860300A23ADF89A
:1049400062300B23ADF864300C23ADF866300D23D4
:10495000ADF868300E23ADF86A300F23ADF86C3037
:104960001023ADF86E301923ADF870301A23ADF86E
:1049700072301B23ADF874301C23ADF876301D2344
:10498000ADF878301E23ADF87A301F23ADF87C30B7
:104990002023ADF87E302A23ADF880302B23ADF8EC
:1049A00082302C23ADF884302D23ADF886302E23B1
:1049B000ADF888302F23ADF88A303023ADF88C3035
:1049C0003123ADF88E303B23ADF890303C23ADF869
:1049D00092303D23ADF894303E23ADF896303F231E
:1049E000ADF898304C23ADF89A303223ADF89C30B6
:1049F0002123ADF89E304823ADF8A0304923ADF80F
:104A0000A2304A23ADF8A4304B23ADF8A63055238D
:104A1000ADF8A8305623ADF8AA300E4D0E4E5723F0
:104A2000ADF8AC3000230022EC180DEB030034F895
:104A30001210FF299CBF30F8127077540132082AF7
:104A4000F5D11033B02BEED12DB0BDE8F040FFF71B
:104A500063BE00BF060C0100902E0020034B044AE9
:104A60001A60044B0F221A70704700BF902F00206D
:104A7000000070414C1900202DE9F04F2DED0A8BFC
:104A8000BD4BBE4D1A78BE4B53F822A02B6885B0A3
:104A9000002B36D1BB49BC4B2B60D1E9002301323E
:104AA00043F10003C1E90023B84BB94C1B78B7EEC2
:104AB000008A84ED008A23B3B64AB74B1678B74A0A
:104AC0001878117806FB0010C0B2FF28107035D19D
:104AD000187007F0CFFAA6A3D3E9002306460F46C5
:104AE00007F02EFB32463B4607F02AFB07F05AFD43
:104AF00007EE100AB4EEC87AF1EE10FA23DD84ED69
:104B0000008A00231821DFB201FB07A701333A7D99
:104B1000012AF8D19FEDADAA4FF00009A04A2E68F6
:104B2000126896425FFA89F303D29E4A12789A423B
:104B300015D805B0BDEC0A8BBDE8F08F0028C8D1B0
:104B400001221A70C5E7B5EEC07ADFED977AF1EE73
:104B500010FA58BFF0EE477AC4ED007AD1E78A4BDD
:104B6000924A9349F31A9B10534301EB830211F8C5
:104B70002330507808EE100A9078D27809EE900A27
:104B800008EE902A002B00F08180B8EE488AF8EEFB
:104B9000699AF8EE688AB4EECA8AF1EE10FA00F368
:104BA000CC81B5EE408ADFED807AF1EE10FA48BF95
:104BB000B0EE678AF4EECA9AF1EE10FA00F3C08103
:104BC000F5EE409ADFED787AF1EE10FA48BFF0EE9C
:104BD000679AF4EECA8AF1EE10FA00F3B481F5EEAA
:104BE000408ADFED717AF1EE10FA48BFF0EE678A85
:104BF000664B1B7843B1664BD3ED007A28EE278ACB
:104C000069EEA79A68EEA78AFCEEC87A726817EE7A
:104C1000903A13702B68FCEEE97A9A6817EE903A96
:104C200013702B68FCEEE87ADA6817EE903A13708E
:104C300004F0F0FB20B304F0EDFB2B6893F8282080
:104C4000182A40F0838110F0020F19D05B6893F9A5
:104C50000020002AB4BF0022FF221A702B689B6834
:104C600093F90020002AB4BF0022FF221A702B689B
:104C7000DB6893F90020002AB4BF0022FF221A70DB
:104C80002B682C332B6009F1010947E7494B1B784E
:104C9000012B0AD196F82830FF2B0DD19FED428AC7
:104CA000F0EE489AF0EE488AA2E7022B40F05481D9
:104CB00096F82830FF2BF1D13F4BDFED3B8A93F87C
:104CC00000B0304BDFED3DBADFED3DAAD3E9003453
:104CD000CDE900343B4B93ED00BA3B4B1B7803937B
:104CE0005446F0EE689AB0EE688AB2EE04CA42F218
:104CF0001078A7423FF44FAFD6ED097A96ED089AA7
:104D0000BBF1000F18BFB0EE679ACBEE8B7A002391
:104D1000DDE90001FCEEE77A17EE902A07F0A0FD2E
:104D20001946104607F056FD07EE100AC7EE0C7A3A
:104D3000039B67EE8B7A002B4AD1236959074AD42B
:104D400013F0020F60D067EEAA7AFCEEE77A17EE56
:104D5000903AB3FBF8F208FB123307EE903AF8EE04
:104D6000E77A87EEAA7A39EE079A46E0AFF3008039
:104D7000691D554D1075EF3E54680020586800209D
:104D800000000020D06C0020A804002057680020FC
:104D9000506800206968002056680020686800207C
:104DA000481900204C19002000000000A38B2EBAE7
:104DB000902500205D6800205568002000007A449E
:104DC0000000C842902F00205C68002000007F4354
:104DD00023699A0759D567EEAA7AFCEEE77A17EEAF
:104DE000903AB3FBF8F208FB123307EE903AF8EE74
:104DF000E77A87EEAA7A39EE479AB4EEEA9AF1EEAC
:104E000010FA45DD39EE6A9A94ED007AB4EEC79A4D
:104E1000F1EE10FA37D4D4ED017AB4EEE79AF1EE60
:104E200010FA30DC2169227A637A77EEC77A39EE9C
:104E3000479A11F0010F89EE277A07EE902A2FD0BA
:104E40009B1AB8EEE78A07EE903AA27AE37AF8EE78
:104E5000E77A9B1AA7EE278A07EE902AF8EEE79AE0
:104E600007EE903A227B637BF8EEE77A9B1AE7EE37
:104E7000279A07EE902AF8EEE78A07EE903AF8EEC6
:104E8000E77AE7EE278A183433E713F0040F59E77F
:104E9000B5EEC09AF1EE10FA48BF39EE2A9AB3E7A0
:104EA0009B1AF8EEE76A07EE903AF8EEE77A0B07FE
:104EB000E7EE276A20D5A27AE37A07EE902A9B1ABA
:104EC00038EE668AF8EEE76A07EE903AF8EEE77A8F
:104ED000227B637BE7EE276A9B1A07EE902A79EE26
:104EE000E69AF8EEE76A07EE903AF8EEE77AE7EE30
:104EF000276A78EEE68AC6E7A27AE37A07EE902A76
:104F00009B1A38EE268AF8EEE76A07EE903AF8EE3A
:104F1000E77A227B637BE7EE276A9B1A07EE902AEB
:104F200079EEA69AF8EEE76A07EE903AF8EEE77A9D
:104F3000E7EE276A78EEA68AA5E71FED5C8A39E6D8
:104F40005FED5E9A45E65FED5F8A51E6362A7FF4B3
:104F500097AE10F0040F78E6032B9EE62DE9F74F8D
:104F6000274A00231946174699540133782BFBD161
:104F7000244C254EA379002B14BF7723572300938D
:104F8000002515F80680B8F1000F32D006EB0509B0
:104F9000D9F8040002F09EFA638899F801E0B0FBAA
:104FA000F3F094F800C094F801A094F805B0C3B2EF
:104FB0001648019378220123002102FB0E0EACF16A
:104FC000030C1EF80390019AA2EB0902D2B25245DB
:104FD00009D2D94507D8BCF1030F96BFF95C01226D
:104FE0005218FA5441460133009ADBB29A42E8D291
:104FF000A9550835A02DC4D103B0BDE8F08F00BF7E
:10500000942F0020C20300206C2700200E300020C7
:1050100030B50138084C012505FA01F114F820508B
:10502000294304F8201004EB8004A3709DF80C3091
:105030006270E37030BD00BF902500200138054A42
:10504000012303FA01F112F8203023EA010102F8EA
:1050500020107047902500202DE9F341164B174D85
:105060001B68032B4FF000041CD9154E27464FF048
:10507000FF083278285DE3B29A420ED1FFF79EFA1C
:10508000CDF800800023002202210134FFF7C0FF89
:10509000082CEED102B0BDE8F081FFF78FFA00973F
:1050A000FF23F0E7285DFFF789FA01340221FFF7BB
:1050B000C5FF082CF6D1EDE784280020160E01006C
:1050C000C203002073B5154B1B68032B19D9144B71
:1050D000144D03F108021B79362403FB042404F168
:1050E0001B0615F8010FFFF769FAA178637822789B
:1050F000009103340221FFF78BFFB442F1D102B0DB
:1051000070BD094D0024285DFFF758FA01340221D3
:10511000FFF794FF092CF6D1F1E700BF84280020A7
:10512000C20300201D0E01001E0E01002DE9F341F7
:10513000524B1C68032C19D8012C94BF0024012465
:105140004F4ED6F87C329C420DD0012B10D0022B52
:105150001AD0012C41D0022C51D0FFF77DFFFFF770
:10516000B1FFC6F87C4202B0BDE8F0810224E7E757
:10517000444F0025785DFFF721FA01350121FFF743
:105180005DFF072DF6D1E4E73E4F0025785DFFF780
:1051900015FA01350221FFF751FF062DF6D13A4FDE
:1051A0000025785DFFF70AFA01350221FFF746FF77
:1051B000082DF6D12B20FFF701FA0221FFF73EFF61
:1051C0003920FFF7FBF90221FFF738FF2820FFF70E
:1051D000F5F90221FFF732FFBBE70025DFF8A480D5
:1051E0002F4618F80500FFF7E9F90135009700236D
:1051F000FF220121FFF70CFF072DF2D1ADE70025BB
:10520000DFF880802F4618F80500FFF7D7F9013541
:105210000097FF2300220221FFF7FAFE062DF2D1AC
:105220000025DFF864802F4618F80500FFF7C6F95F
:1052300001350097FF2300220221FFF7E9FE082D28
:10524000F2D12B20FFF7BAF9FF23002202210097A9
:10525000FFF7DEFE3920FFF7B1F9FF23002202211C
:105260000097FFF7D5FE2820FFF7A8F90097002345
:10527000FF220221FFF7CCFE6FE700BF8428002049
:1052800090250020270E01002E0E0100704700001F
:105290002DE9F84FFFF762FE2B4A2C4B147910785A
:1052A00092F801803625002114FB05FC01386C437F
:1052B000122702F108094FF0010E0D461E78012E4B
:1052C0001BD8234E8E197678052815D8DFE800F014
:1052D00003080C131313B6FA86F676092EB90BE001
:1052E000003618BF0126F9E786B983F800E05D7043
:1052F0009D70DD7001E04EB91D700131772903F119
:105300000403DBD1BDE8F84FFFF710BF06EBC6067C
:10531000760096FBF8F696FBF7FA07FB1A6A0AEB9B
:105320004A0A0AEB0C06A2444E44924483F800E079
:105330009AF808B096F801A0B67883F801B083F81F
:1053400002A0DE70D9E700BFC20300209025002034
:10535000942F002070B5A0F5B9455E3D1C2D00F2DC
:105360006C82DFE815F01D0033003D004E005C004C
:1053700069007B00880094009A00A400BA00C40071
:10538000EE000F012F015201A501C801DB01DB0175
:10539000250225023B023B02520252021F00630219
:1053A0008B7813B90024204670BDA34B1A78C2F144
:1053B000A5010929D4BFA5220A321A709F4A127882
:1053C000002AEFD01A789E4B1A70EBE78B78002BEF
:1053D000E8D0994B1A78092A94BF00220A3AECE7E0
:1053E0008B78002BDED09749974A097813780139DA
:1053F0008B424FF0000401D11470D4E701331370D5
:10540000D1E78B78002BCDD08F4B1C7824B98D4AF7
:105410001278013A1A70C6E7013C1C70C2E78B781B
:10542000002BBFD0894BD3ED007AB7EE007A77EE30
:10543000877AC3ED007AB5E78B78002BB2D0834B27
:10544000D3ED007AB7EE007A77EEC77AF5EEC07A40
:10545000F1EE10FAEDD500221A60A3E78B78002B4D
:10546000A0D07B4A13780133DBB2032B01D8137031
:1054700098E70024C0E78B78002B93D0754B187801
:10548000B0FA80F04009187003F050FB8AE78B787F
:10549000002B87D001206F4BF5E78B78002B81D054
:1054A00000246C4B20461C7003F040FB7BE78B789C
:1054B000002B3FF477AF614B1C78002C0CBF01220E
:1054C00000221A707FF46EAF5B4B1A785C4B1A7037
:1054D000614B01221C70614B9CE78B78002B3FF4E1
:1054E00061AF5F4A1378B3FA83F35B09BFE78B7848
:1054F000002B3FF457AF5B4B1B681B7813F0220F58
:105500003FF450AF13F0110F3FF44CAF564B574AD6
:105510001C781D465CB11378DC0702D5544802F0B4
:1055200053F82B78B3FA83F35B092B703AE7012128
:1055300019701378D8077FF535AF4E4802F044F85C
:1055400031E78B78002B3FF42DAF464B1B681B785F
:1055500013F0220F3FF426AF13F0110F3FF422AFE8
:10556000454B424A1C781D4624B11378D907D8D53B
:105570004248D4E7012119701378DA077FF512AF9A
:105580003F48DBE78B78002B3FF40CAF374D2B788F
:1055900013F001040AD03B4802F016F82B78C3F34D
:1055A000000282F0010262F30003BEE7C3F30002CF
:1055B00082F0010262F300032B70DB077FF5F2AE8D
:1055C0003148BBE78B78002B3FF4ECAE274A1378C9
:1055D00013F0020415460CD0DE0702D52B4801F06B
:1055E000F3FF2B78C3F3400282F0010262F3410320
:1055F0009BE7C3F3400181F0010161F34103DD0743
:1056000013707FF5CFAE224898E78B78002B3FF4DC
:10561000C9AE164A137813F0040415463CD0D807D7
:1056200002D51C4801F0D0FF2B78C3F3800282F032
:10563000010262F3820378E7C26C00205768002001
:10564000C56C0020A40A010054680020902F00209F
:105650005D6800205E6800206868002056680020B1
:105660005C680020A4040020AA6D0020E52800202A
:10567000360E01005C0E0100866D0020810E0100D7
:105680009E0E0100BA0E0100D00E0100E50E0100D1
:10569000FD0E0100140F0100C3F3800181F0010130
:1056A00061F38203D90713707FF57CAE734845E739
:1056B0008B78002B3FF476AE714A137813F0080410
:1056C00015460CD0DA0702D56E4801F07DFF2B7825
:1056D000C3F3C00282F0010262F3C30325E7C3F300
:1056E000C00181F0010161F3C3031370DB077FF593
:1056F00059AE654822E78C78644D24B101F0D0FEA4
:10570000C5F880024EE6D5F8800201F0E3FEB0F560
:10571000FA7FFFF447AE00F0DBF844E68B78002B0D
:105720003FF440AE5A4B45F6F14290420CBF062280
:10573000012218780244D2B20721B2FBF1F1C1EB89
:10574000C101521AD2B2042A1A7005D81E21597109
:105750000021197132215980013A052A06D8DFE863
:1057600002F003121414161F02225A700023494A31
:10577000194602F833100133142BFAD1FFF76CFCF1
:10578000FFF7A0FC0EE60522EFE70A22EDE70A226A
:105790005A7002221A7100225A7164225A80E5E777
:1057A00019225A7003221A7102225A710A22F5E74D
:1057B0008B78002B3FF4F6AD354945F6F344A04213
:1057C0000CBF01224FF0FF324C78144414F0FF0458
:1057D00001D04C70E6E501234B70E4E58B78002B9B
:1057E0003FF4E0AD2A4945F6F54398420CBF4FF02F
:1057F000FF3201224B8802EB820203EB42039BB291
:10580000092B98BF0A234B80CCE58B78002B3FF403
:10581000C9AD1F4B45F6F74290420CBF032201224F
:105820001879024402F003021A71A9E78B7823B1B8
:10583000174B9D7985F001059D718C78E4B1FEF7D9
:10584000BDFE00283FF4AFAD104D002305F5EE710D
:1058500011F83320DE0052B93544012385F8DC31DC
:1058600085F8DD0101F01CFEC5F8E0019BE5013380
:10587000142BEDD1144696E5012494E52E0F01007A
:10588000E5280020470F01005E0F01009025002051
:10589000C20300206C2700200120704708B5FFF7E5
:1058A00059FD08BD08B501F0A5FC08B901F0FAFCE6
:1058B000BDE80840FEF70CBDFEF70EBD704708B509
:1058C000FFF7FCFF08BD08B5FFF7F9FF08BD7047FB
:1058D00008B500F073FFFFF7FAFFFA20002101F08E
:1058E00011FEBDE8084001F00FBE000073B503884B
:1058F000ADF80430A14B1B7806467BBB837801983A
:1059000043B301F075FBC4B22146019801F02EFBB0
:105910000199204600F04CF931460546FFF7BEFFDD
:10592000044600286BD045F616439D4200F00F81D7
:105930003AD845F601439D4264D015D8B5F5B84F25
:1059400058D08F4B01221A705A703046FFF7A4FFCF
:10595000044654E001F02EFB0446D9E7019801F01B
:1059600047FB0199C0B2D5E745F614439D42E8D8FC
:10597000B378002BE9D001F03DFC08B901F092FCAE
:1059800001F050FCA5F5B8457E4B033D1880112D64
:1059900044D8DFE805F04D5155595D6165696D7179
:1059A00075797D8185898D9145F6D7439D4200F0BB
:1059B0009C8011D845F6D6439D42C2D1B478704D33
:1059C000002C00F0818000242C7001F061FD6880C3
:1059D000022000F0E9FC12E045F6D8439D4200F0B9
:1059E000A08045F6DD439D42ABD1B4783CB101F0D7
:1059F00059FC03E0B47814B1FFF76AFF0024204695
:105A000002B070BDB478002CF9D05F4A5F481378BB
:105A100043F00103137001F0D7FDEFE71A7842F06D
:105A200001021A70187801F000FC00F0C7FEE5E7EB
:105A30001A7842F00202F4E71A7842F00402F0E722
:105A40001A7842F00802ECE71A7842F01002E8E710
:105A50001A7842F02002E4E71A7842F04002E0E7C8
:105A60001A7842F08002DCE71A7842F00C02D8E79C
:105A70001A786FF30002D4E71A786FF34102D0E787
:105A80001A786FF38202CCE71A786FF3C302C8E783
:105A90001A786FF30412C4E71A786FF34512C0E75F
:105AA0001A786FF38612BCE71A786FF3C712B8E75B
:105AB0001A7802F0FB02E8E71A78C2F3C01181F00D
:105AC000010161F3C712ACE72B7853B9688801F084
:105AD000EDFCC72805D8262000F08EFB262000F01C
:105AE0002FFC022000F069FC89E7B3783BB1244D1C
:105AF00000246C7001F0CCFCA880202069E7204BCA
:105B00005A7852B9988801F0D1FCC72805D82720C7
:105B100000F072FB272000F013FC202000F04DFC69
:105B20006CE7B378002BE2D1154B5C78002CF4D1F4
:105B3000988801F0BBFCC728EFD8202000F03DFC7E
:105B4000282000F059FB282000F0FAFB57E701F06D
:105B5000F7FAB1780A4A0E4BE1B100F0AA0000282A
:105B600014BF012100219171186814BF352129212A
:105B700001F010FC01F0BEFA40E700BF3028002021
:105B8000142800200C300020E5280020740F0100AC
:105B9000A404002092791868002A14BF3521292115
:105BA00001F012FCE6E700BF0020704770470000DC
:105BB000C1F307220B2303FB0020C00050FA81F041
:105BC000024B33F8100082B002B07047060C01009F
:105BD000014B33F810007047860F010013B5ADF884
:105BE00004100199FFF7E4FF00F058F9B0F5A04F59
:105BF000044630D2B0F5804F80F0D680E72816D822
:105C0000E02879D2A72808D8A5286BD2012873D01C
:105C100001D3042870D200246EE0BE286FD9C028BA
:105C2000F9D3C03880B2FFF7D3FF044664E0B0F583
:105C3000005F09D2B0F5807F80F0AA80F028EAD317
:105C400040F4A044A4B257E0B0F5405F80F0A380D8
:105C5000C0F30B00E7E7B0F5AA4F1ED2B0F5A84F8E
:105C6000C3B280F0C080B0F5A44F08D2B0F5A24F07
:105C7000C0F09F804AF2F10040EA03243CE0B0F516
:105C8000A64F80F0A6809808012403F003039C40EF
:105C900044EA401444F40C44D4E7B0F5B24F0CD2BB
:105CA000B0F5B04F80F0A480B0F5AC4FB3D2040291
:105CB00004F4F85444F400541EE0B0F5B44FC0F0BE
:105CC0009C80A0F5C043B3F5005FA4D2C0F30420CC
:105CD00000F050F9E4B2000244F4005400F4F8502B
:105CE000044309E000F0948044F2820344F283020A
:105CF000A62814BF14461C46204602B010BDA82892
:105D000000F08980A92800F08980AA2800F0898005
:105D1000AB2800F08980AC2800F08980BB2800F017
:105D20008980BC2800F08980AD2800F08980B028E7
:105D300000F08980AE2800F08980AF2800F08980CB
:105D4000B12800F08980B22800F08980B32800F0E3
:105D50008980B42800F08980B52800F08980B628B1
:105D600000F08980B72800F08980B82800F0898089
:105D7000B92800F08980BD2800F08980BE2800F095
:105D80008980BA2844F22A6418BF4FF48844B3E7E4
:105D9000C0F30C04B0E710F4006FC4B214BF44F4B5
:105DA000484444F44044A7E7C0F30B0444F42044BF
:105DB000A2E703F0030201249440C0F3011044F46D
:105DC0000C4444EA0024C3F3810344EA43139CB225
:105DD00092E79808012403F003039C4044EA40142E
:105DE00044F40A442EE74AF2F40444EA032483E725
:105DF0004AF2F00040EA042424E700F00F0343F4E1
:105E0000204343F0E003C0F3031443EA042473E7A0
:105E100044F2810470E744F2E2446DE744F2E9445D
:105E20006AE744F2EA4467E744F2B54464E744F2BF
:105E3000B64461E744F2B3445EE744F2B4445BE73E
:105E400044F2B74458E744F2CC4455E744F2CD4419
:105E500052E744F283544FE744F28A544CE744F249
:105E6000925449E744F2945446E744F2216443E7EC
:105E700044F2236440E744F224643DE744F225649D
:105E80003AE744F2266437E744F2276434E744F201
:105E90006F4431E744F270442EE7000082281AD0A4
:105EA0000CD8312854D004D829284AD02A2856D0D2
:105EB000704735283ED039280DD07047E32823D0CD
:105EC00004D8E0280ED0E22813D07047E62822D06C
:105ED000E72829D07047264B1B7813F0030F18BF13
:105EE000E0207047224B1B7813F0010F18BF3920B8
:105EF00070471F4B1B7859071BD513F0100F08BFB5
:105F0000E32018BF00207047194B1B785A072DD487
:105F100013F0100FF5E7164B1B78190709D513F08E
:105F2000100F08BFE720ECE7114B1B781A07EFD5DD
:105F3000E62070470E4B1B7813F0200F18BF292066
:105F400070470B4B1B7813F0200F18BF352070479C
:105F5000074B1B7813F0400F18BF2A207047044BE3
:105F60001B7813F0400F18BF31207047E2207047B4
:105F70000C300020164B1B78590707D500F018028B
:105F8000082A12D100F0F70040F004001A0707D5E4
:105F900000F01802182A11D100F0E70040F01400B8
:105FA000DB0648BF00F0E700704700F01402042A47
:105FB00004BF00F0FB0040F00800E7E700F0140227
:105FC000142A04BF00F0EB0040F01800E8E700BF1F
:105FD0000C300020014B1860704700BF1C280020C7
:105FE000024B186808B10368184770471C28002046
:105FF000F8B5124B1B680446FBB1114D5B6898471E
:106000002B78580719D5D90702D50E4801F0DCFACC
:106010000D4F04F108062B78DA0703D521783846AE
:1060200001F0D2FA0134B442F5D12B78DB0704D564
:106030000648BDE8F84001F0C7BAF8BD1C280020AA
:10604000E5280020860F0100980F0100981001003C
:10605000044B9988814204D098801B680BB1DB689F
:10606000184770471C280020044BD988814204D06F
:10607000D8801B680BB11B69184770471C2800208B
:10608000704708B5FFF7FCFF08BD0120704708B551
:1060900001F036FAFEF724F9BDE8084001F038BBFC
:1060A00038B50E4C23780546580711D5D90702D5C7
:1060B0000B4801F089FA2378DA0703D52946094805
:1060C00001F082FA2378DB0702D5074801F07CFA59
:1060D0002846BDE83840FFF7F6BB00BFE5280020A2
:1060E0009E0F0100B10F0100981001002DE9F0434F
:1060F00085B0FEF759F9FFF7C8FF314EF8B9FF2315
:106100008DF808308DF8093000238DF80A3001F041
:10611000BFF940F00100ADF80C0004AB13E9030037
:1061200000F052F8FFF75CFFF37A834244D0FFF7A8
:1061300057FFF07205B0BDE8F043FFF7B1BFDFF8DD
:1061400084800024E7B23846FEF7BCF9355DA842EA
:10615000814603D101340B2CF4D1D0E798F80030FC
:10616000980701D5FEF7B4F989EA05050023EDB2D9
:1061700045FA03F1C907DAB21AD501259D4019EA9B
:10618000050F14BF012300238DF802308DF8002085
:106190008DF8017001F07CF940F00100ADF80400C9
:1061A0009DE8030000F010F8335D6B403355B9E70C
:1061B0000133082BDCD1CDE705B0BDE8F08300BF8B
:1061C00024280020E52800201FB58DE803000021C9
:1061D00003919DE8030002AA0290ADF80C1092E82A
:1061E000030000F07BFD05B05DF804FB08B50088F6
:1061F00000F01CFF08BD000008B5002800F09C80DE
:10620000031FDBB2A02B08D84C4B0146186801F0E5
:10621000C1F8BDE8084000F06DBF00F12003DBB21B
:10622000072B08D8012300F0070003FA00F0C0B2E2
:1062300000F08CFFEDE700F15B03DBB2022B0BD823
:10624000A52807D0A6280CBF82208320BDE80840DF
:10625000FFF7FEBE8120F9E700F15803DBB2162BF1
:106260006AD8A82832D0A92832D0AA2832D0AB28A0
:1062700032D0AC2832D0BB2832D0BC2832D0AD28A6
:1062800032D0B02832D0AE2832D0AF2832D0B128A8
:1062900033D0B22834D0B32835D0B42836D0B5287E
:1062A00037D0B62838D0B72839D0B8283AD0B9284E
:1062B0003BD0BD283CD0BE283CD0BA2840F22A2092
:1062C00018BF0020BDE80840FFF7CEBEE220F9E786
:1062D000E920F7E7EA20F5E7B520F3E7B620F1E794
:1062E000B320EFE7B420EDE7B720EBE7CC20E9E7F8
:1062F000CD20E7E740F28310E4E74FF4C570E1E713
:106300004FF4C970DEE74FF4CA70DBE740F221209A
:10631000D8E740F22320D5E74FF40970D2E740F2E6
:106320002520CFE740F22620CCE740F22720C9E71E
:106330006F20C7E77020C5E708BD00BFA404002098
:1063400008B568B3031FDBB2A02B08D8154B014674
:10635000186801F039F8BDE8084000F0CBBE00F144
:106360002003DBB2072B08D8012300F0070003FA53
:1063700000F0C0B200F0F2FEEDE700F15B03DBB22B
:10638000022B04D80020BDE80840FFF761BE58305A
:10639000C0B2162804D80020BDE80840FFF764BE4C
:1063A00008BD00BFA404002008B528B100F0CEFE4F
:1063B000BDE8084000F09EBE08BD08B528B100F059
:1063C000CDFEBDE8084000F095BE08BD2DE9F047C0
:1063D00090F806A0857807460C464FEA1A1A0DB1C8
:1063E00000F0DAFE00F07CFE804670B125B304F1C7
:1063F0002003DBB2072B1FD9022000F05DFE00F066
:106400006FFE80F001005FFA80F8C4F30339B9F140
:106410000F0F42D8DFE819F01300130048004800BE
:106420009500410041004100B60041000D010D0101
:1064300074014100410092014FF00008E5E7C4F308
:10644000072313F0F00F16BF2609C4F3032606F046
:10645000F006E4B295B156B104F12003DBB2072B8C
:10646000304600D93CB900F071FE00F043FE2046F2
:10647000FFF7C2FE11E000F07FFEF6E72046FFF7CF
:106480005FFF56B104F12003DBB2072B304600D981
:106490003CB900F063FE00F02DFEB9F10B0F55D9A9
:1064A00036E100F071FEF6E7C4F3072303F0F003D2
:1064B000202B18BF2609E0B20CBFC4F3032606F058
:1064C000F00660B101282CD0ADB3BAF1000F2CD08A
:1064D000BB79D907CCD56FF30713BB7125E09DB10C
:1064E000BAF1000F06D100F07FFE3043C0B2FFF7D3
:1064F0005BFFD2E7BAF1010FF5D100F075FE304332
:10650000C0B200F065FEC8E7BAF1000F05D100F097
:1065100065FE3046FFF751FFBFE7BAF1010FF6D134
:10652000BBE725B1BAF1050FB7D83046DFE7BAF1BE
:10653000040FB2D8EDE7BAF1000FEAD0FFF700FF81
:10654000ABE7C4F381236BB1012B13D0012303FA12
:1065500009F919F4506F00F0DB80FFF741FDFFF7F8
:10656000B2F9D5E025B1C4F30900FFF771FDEDE7FD
:106570002846FAE725B1C4F30900FFF775FDE5E702
:106580002846FAE714F4407F26D1002DE5D1C4F364
:1065900042108000E206C3B204F00F0000FA03F6D6
:1065A00044BF0F209840C4F381244CBFC043284609
:1065B000022C07D00AD8012C40EA060009D000F0CE
:1065C00073FCC3E7304300F077FCBFE700F06CFCDE
:1065D000304600F061FCB9E7F5B1C4F30023002BAD
:1065E000BBD0C4F342108000C3B204F00F0000FA25
:1065F00003F514F010001CBF0F209840C4F3812451
:1066000018BFC043022C0AD00DD8012C40EA050067
:106610000CD000F099FC99E7C4F34023DFE728434E
:1066200000F09AFC92E700F08FFC284600F084FC12
:106630008CE7E6B2A6F1E003142B50D8DFE803F0B4
:106640000B0B0B0B0B0B0B0B0B0B0B0B0B0B0B0B9A
:1066500016232930390006F00F06C4F3042015B1C3
:1066600000F04AFC61E700F051FC52E745B1BAF195
:10667000040F3FF612AFC4F3042000F053FC0CE704
:10668000BAF1050FF5E735B1C4F3042000F034FC8E
:1066900003E7002DF8D0C4F3042000F037FCFCE63B
:1066A00025B1C4F3042000F022FCF6E600F01CFC47
:1066B000F3E64DB1C4F30424204600F01DFC032191
:1066C000204600F0F1FCE8E6012000F0F5FCBAF10C
:1066D000010F7FF6E2AE022000F0EEFCDDE625B110
:1066E000BAF1000FD0D03046C2E6BAF1000FD2D0D6
:1066F000392E03D15020002100F004FF30461DE761
:10670000C4F30322E1B23846FFF74EFA00F052FB21
:10671000B8F1000F19D000F0BFFC10F0010014D147
:10672000B87000F0B1FC00F0E7FB384600F00FF85D
:1067300000F0AAFCBDE8F04700F0E8BBC4F3032278
:10674000E1B23846FFF732FAE2E7BDE8F08737B545
:1067500083880288ADF804200446BBB1BDF804303C
:106760004FF6FF729A1A534253417BB9FFF7BEF8B6
:1067700060B12188A07800F067FC054600F0F4FBCA
:1067800000F073FB29462046FFF720FE03B030BD22
:1067900008B500F001FD00F015FD074B186800F08A
:1067A0002DFE00F0A7FC0020FFF752FC0020BDE802
:1067B0000840FFF759BC00BFA404002008B500F052
:1067C000D5FCBDE80840FFF7E3BF07B5ADF804000E
:1067D000019800F02BFCC0F303330E3303F00F02DB
:1067E0000D2A0CD80123934013F4105FC1B219D1C4
:1067F00040F20330184004D113F010030BD10020F5
:106800000DE0F02902D003D8DF29F8D8012006E0F6
:10681000F429F4D1FAE7DF29F8D9F129F6D003B049
:106820005DF804FBC0F3C020F9E782B002AB03E9D6
:10683000030002B0704782B002AB03E9030002B06C
:106840007047000038B5094D2C7895F84230A342C6
:1068500000D138BD05EBC4030134D3F80200D3F8EE
:106860000610FFF7E8FF04F00704EEE732280020E7
:10687000024B586C996CFFF7DEBF00BF3228002036
:10688000F7B5274B93F84A20120909D193F846200F
:1068900032B119784FF6FF7593F842208A4201D140
:1068A00003B0F0BDB3F84820002A35D093F8446017
:1068B00093F845708DF804608DF80570BDF80400FC
:1068C000A84229D0C8001C1894F803E0BE4523D183
:1068D000A778B74220D12679F6B9E488944236BF2A
:1068E000AA1AA21A1219C72ACCBF002201229AB1F1
:1068F00093F84A20012161F3071283F84A200344E8
:1069000008481A7A61F307121A72FFF720FF03B0E2
:10691000BDE8F040FFF796BF013101F00701BBE78A
:1069200032280020762800202DE9F043C54C8FB096
:106930000646B4F8487000680890B4F8440032780D
:10694000737896F80280B6F80490ADF8040008A9B0
:10695000002F00F0308185B24FF6FF70854200F0C5
:106960002A8194F84650002D00F025814F458ABFBA
:10697000C71BA9EB07074F44C72FCCBF0027012730
:10698000002F00F0C68094F84A10B4F8445011F07B
:10699000F00F4FF6FF7076D185421DD08DF8202084
:1069A0008DF821302846BDF82050854214D1454647
:1069B000B8F1000F10D1012363F3071184F84A10D6
:1069C000FFF756FFA048FFF7C2FE94F84A30B371B4
:1069D00028460FB0BDE8F0834546B9F1000F47D017
:1069E0008DF81C208DF81D30BDF81C004FF6FF718E
:1069F00088423DD0002D3ED1217894F842E0714587
:106A00000FD18DF820208DF82130089800F00EFB72
:106A1000C0F30332C3B2032A1DD8DFE802F0131318
:106A2000212104EBC10090F803C09C4506D190F8E9
:106A300002C0944502D100790028C9D1013101F08A
:106A40000701DCE710F4706F01D0002BC0D02033B9
:106A5000DBB2072BBCD93046FFF779FE3D46B7E7DE
:106A600010F4706FF3D0B27912F0F00FEFD1AFE7FE
:106A7000B8F1000FACD094F84A3043F0010384F829
:106A80004A300025A4E7854217D08DF820208DF8E4
:106A900021302846BDF8205085420ED1B8F1000FB4
:106AA0000BD1B1713046FFF752FE33686364664A1A
:106AB00073685360FFF7DCFED0E78DF820208DF877
:106AC00021300898FFF781FEF8B1B8F1000F1CD013
:106AD00094F84A301F2B0DD9B4F84420ADF8282083
:106AE00000228DF82A20ADF82C908DF82E300AA8BF
:106AF000FFF72DFE3368544A636473685360FFF7F1
:106B0000BFFEFFF7B5FE012562E73046FFF71FFE27
:106B1000F9E794F84A0010F0F00F13D18DF8202017
:106B20008DF821308DF82280ADF82490464D03C9B0
:106B3000FFF77BFE2846FFF70AFE67646F60FFF7EA
:106B400097FE9EE7B4F844704FF6FF718F4215D060
:106B50008DF820208DF821303946BDF820708F4205
:106B60000CD1B8F1000F09D1B0713046FFF7EFFD3D
:106B7000354BC4F84480C3F8048029E78DF8202001
:106B80008DF821300898FFF720FE0028BDD0B8F11D
:106B9000000FBAD094F84A301F2BABD9B4F8442078
:106BA000ADF8302000228DF83220ADF834908DF809
:106BB00036300CA89CE7B4F84400ADF81400002F60
:106BC00070D080B24FF6FF75A8426BD094F84600A3
:106BD000002867D14F4539D8A9EB0707C72FCCBF8D
:106BE00000250125002D4ED04546002D8DD0B4F84E
:106BF00044004FF6FF71884231D08DF820208DF887
:106C000021300146BDF82000884228D194F84A304E
:106C10000D4F13F0010F1DD11A091BD01A090F2AAD
:106C200018BF0132B3711CBF62F30713B371304652
:106C3000FFF78DFD3368636473687B60FFF718FEB0
:106C4000C6E600BF3228002076280020ED1B4D4408
:106C5000C72DC4E73368636473687B60B8E68DF85A
:106C600020208DF821300898FFF7AFFD00287FF431
:106C700041AF94F84A30304643F0010384F84A307B
:106C8000FFF765FDA4E68DF821308DF82280ADF880
:106C900024908DF8202003C9FFF7C7FD0E4B6564D3
:106CA0005D60CBE7B8F1000F3FF42FAF8DF82020E7
:106CB0008DF821300898FFF788FD054600283FF43D
:106CC00024AF33680448636473684360FFF78EFA47
:106CD000FFF7D6FDB2E700BF7628002070B586B07A
:106CE0008DE803006846FFF71FFE304C0646B8B13A
:106CF000BDF80430BDF80020ADF8082043B192B2D1
:106D00004FF6FF739A4203D09DE80300FFF793FD0F
:106D1000274D207894F84230834227D106B070BDC9
:106D20009DE8030004AB83E80300BDF80420BDF830
:106D30001010ADF80C10002AEAD089B24FF6FF729D
:106D40009142E5D094F842202178551C05F00705C2
:106D50008D4220D003CB04EBC20284F84250C2F82B
:106D60000200C2F80610FFF76DFDD1E705EBC00089
:106D7000FFF7DAFD0028D1D0237804EBC303D3F862
:106D80000200D3F80610FFF756FD2378013303F015
:106D900007032370BDE7FFF711FD234684F8426027
:106DA00003F8446B66645E60B8E700BF32280020D9
:106DB00034280020F8B50346002855D000250126C8
:106DC0001878732803F1010406D8042820D201287A
:106DD0000AD002281FD0F8BD752836D02AD3A0F1DA
:106DE00084036F2B34D9F8BD9C1C5B7803F120021F
:106DF000D2B2072A0BD803F007039840C0B200F0C4
:106E0000D1F900F077F92F463FBB2346D8E7184663
:106E1000FFF7F2F9F7E758789C1C00F12003DBB28A
:106E2000072B17D800F0070006FA00F0C0B200F0F8
:106E3000C1F9E6E75F789C1C002FE4D00120002117
:106E4000013F00F05FFBFFB2F6E79C1C5D78DAE7DC
:106E500000F07F00FFF774FAD5E701200021013F21
:106E600000F050FBFFB2CFE7F8BD70477047FFF767
:106E7000FDBF08B5FFF7FBFF08BD000008B5FFF731
:106E8000F8FF034B1860BDE80840FFF781BC00BF66
:106E900080280020FFF7F2BF024B1B681843FFF762
:106EA000EDBF00BF80280020024B1B681840FFF791
:106EB000E5BF00BF80280020024B1B685840FFF749
:106EC000DDBF00BF8028002008B5FEF7DFF908BD50
:106ED00008B5FFF7F9FF034B5860BDE80840FFF71E
:106EE00057BC00BF802800200020FFF7F1BF01231E
:106EF00003FA00F0FFF7ECBF012303FA00F0024BA6
:106F00005B681843FFF7E4BF80280020012303FAE1
:106F100000F0034B5B6823EA0000FFF7D9BF00BF16
:106F200080280020012303FA00F0024B5B685840E0
:106F3000FFF7CEBF80280020024B5B681843FFF7A5
:106F4000C7BF00BF80280020024B5B681840FFF7D6
:106F5000BFBF00BF80280020024B5B685840FFF78E
:106F6000B7BF00BF8028002070470000C0F3072390
:106F700000EBC30303F0FF0337B503F00702012062
:106F80009040DB080A4A03EB8303C0B21344002499
:106F90005D7821FA04F242F300026A4002400134B3
:106FA0006A40052C03F8012FF2D103B030BD00BFB9
:106FB00087280020C0F3072313B500EBC30000F0BF
:106FC000FF0000F007040949C00800EB8000002220
:106FD000014410468B5CE34003F00103934001320F
:106FE0001843052AC0B2F5D102B010BD8828002090
:106FF00073B50D4BADF8040028CB1F241D4325FAB3
:1070000004F3DB0766B206D414F1FF34F7D200268E
:10701000304602B070BD0199E0B2FEF7DFFD80B2EC
:107020000128F1D0F4E700BF8028002007B5ADF8B3
:1070300004000198FFF7DCFF0199C0B2FEF7CEFD16
:1070400003B05DF804FB000013B50E4BADF804105F
:107050001B7823B10198FFF7E9FF02B010BD60B1C2
:107060000198FFF7C5FFC4B221460198FFF77EFFE4
:1070700001992046FEF7B2FDEFE70198FFF79AFF6E
:107080000446F5E730280020024B93F90100C0F3D5
:10709000C7007047BF280020024B587800F0070057
:1070A000704700BFBF280020024B41EAC001597061
:1070B000FFF722BFBF280020084A92F9013023EAD7
:1070C000000040B25070420706D1DBB2834203D0C9
:1070D000C0F3C700FFF71ABF704700BFBF280020EA
:1070E000034B587810F0070018BF0120704700BF0D
:1070F000BF28002038B5104C104D2268A9781170B7
:107100002168E8780A7802430A70216828790A78A9
:1071100002430A7095F905204AB1236819780A4399
:107120001A70206800F0C0F808B100236B71206865
:10713000BDE83840FEF75CBFA4040020BF28002053
:10714000014B9878704700BFBF280020024A93780F
:1071500018439070704700BFBF280020024A937800
:1071600023EA000090707047BF280020014B0022E6
:107170009A707047BF280020024AD3781843D07015
:10718000704700BFBF280020024AD37823EA0000DE
:10719000D0707047BF280020014B0022DA70704782
:1071A000BF280020024A137918431071704700BFAE
:1071B000BF280020024A137923EA000010717047AB
:1071C000BF280020014B00221A717047BF28002001
:1071D000014B5871704700BFBF280020014B0022AF
:1071E0005A717047BF280020014B5879704700BF83
:1071F000BF28002008B5002000F034FA4FF6ED63F8
:10720000C31A5842584108BD022000F025BA014671
:10721000022000F031BA032000F01EBA014603201C
:1072200000F02ABA042000F017BA0146042000F04A
:1072300023BA01460F2000F02DBA08B50020FFF751
:10724000F8FFFDF7B9F908BD10B54FF6ED61002064
:1072500000F018FA0021022000F00EFA00210320AD
:10726000002400F009FA0E4B214604201C6000F0B7
:1072700003FA2146052000F0FFF92146062000F020
:10728000FBF9FF21072000F0F7F92146082000F064
:1072900001FA21460D2000F0EFF9FFF7CEFF10BDF7
:1072A00080280020FFF7D0BF0C4B1B78821C5BB1FD
:1072B0000B4B93F90030002B06DA421C1F231344BA
:1072C00000209A4202D170470623F8E712F8011B0A
:1072D0000029F6D00130C0B2F3E700BF84190020C6
:1072E0000C30002030B54FF0FF33851C002215F81C
:1072F000014B8C420CD0B3F1FF3F02D1002C08BFF0
:1073000013460132D4B2062C62B2F0D15A1C00D11D
:1073100030BD1844817030BD10B5831C0022083088
:107320001C788C4208BF1A7001338342F8D110BD1B
:10733000CA081F2A08D0104401F007030121994010
:107340004378194341707047034B1B78DB0702D524
:10735000024800F039B97047E5280020B60F010057
:10736000CA081F2A09D0104401F0070301229A40DD
:10737000437823EA020343707047044B1B78DB0712
:1073800002D5034800F020B9704700BFE52800206F
:10739000D40F010010B40A4C247803460A4644B1C5
:1073A000084C94F90040002C03DA5DF8044BFFF719
:1073B000BFBF114618465DF8044BFFF793BF00BFEF
:1073C000841900200C30002010B40A4C24780346A5
:1073D0000A4644B1084C94F90040002C03DA5DF8E9
:1073E000044BFFF7BDBF114618465DF8044BFFF78D
:1073F00093BF00BF841900200C300020084B1B787D
:107400004BB1084B93F90030002B04DA1F22002106
:10741000013005F06FBC0023C0F80230C380704714
:10742000841900200C3000207047FFF7FDBFFFF7E4
:10743000FBBF10B5FFF7FBFFFCF7B6FFFFF7F5FF4B
:107440000024E0B2FDF73EF818B901340B2CF8D156
:1074500010BD012010BDFFF7E7BF08B5FFF7FBFF28
:1074600008BD08B5002001F061FBFFF7F6FF08BD7D
:1074700008B5FFF7D9FF08BD08B5044B1B7813B159
:10748000012001F053FBFFF7F3FF08BD5E68002009
:10749000024BD3E9000180B2704700BFE8680020CA
:1074A000014BD3E900017047E868002030B5084B74
:1074B000D3E90045A4B2A04204D8D3E90045201A7C
:1074C00080B230BDD3E90023013A101AF8E700BFBB
:1074D000E868002030B5054BD3E90045D3E9002327
:1074E000A04288BF02F1FF32101A30BDE8680020C8
:1074F000024B00200021C3E900017047E86800202A
:10750000FFF7F6BF00F03ABE70B5294B88B001AA6C
:1075100003F11806154618685968144603C4083361
:10752000B3422246F7D11B88238042F29F13A3F572
:1075300006521F3AAA5C52B313F8011F9142F6D0CB
:107540001C4B1A786FF341021A701A46916888072B
:10755000FCD41A78C2F34002002AFAD1597862F3B7
:1075600007115970597862F303015970997862F3E1
:10757000030199701A7842F002021A700D4B1A46F4
:1075800099688907FCD413789B07FCD5FEE70A4B62
:107590000A4A43F8102CBFF34F8F0949094BCA68B8
:1075A00002F4E0621343CB60BFF34F8F00BFFDE7EF
:1075B000F20F0100002000400000022000CA9A3BA8
:1075C00000ED00E00400FA050FB41F4B2DE9F3476E
:1075D00098461A78002AFCD10BAB0A9A1B480193F3
:1075E0004FF4007105F00EFC184E194FDFF864904F
:1075F00004462025002C04DC02B0BDE8F04704B0AE
:10760000704798F8003003F0FF01002BF9D1EFF339
:10761000108A72B6BFF35F8F1F2C04DC202238461D
:1076200005F068FB25462A463146384605F0C8FA7B
:10763000012389F8003002F003FFBFF35F8F8AF364
:107640001088641B2E44D5E7416D0020E6280020F9
:10765000446D0020386D0020014B185C704700BF5E
:10766000E62A0020034BC218185C527840EA022038
:10767000704700BFE62A0020014B1954704700BF35
:10768000E62A0020024B19541844090A4170704739
:10769000E62A0020044B195418440B0A43700B0CC3
:1076A000090E8370C1707047E62A00202DE9F3416E
:1076B00000250746EEB23046FCF704FF0024804662
:1076C00048FA04F2D207E3B209D40134082CF7D106
:1076D00001350B2DEED1002002B0BDE8F0818DF810
:1076E00004308DF8056001990020FEF761FA8742A9
:1076F000EBD10120F0E710B504462C20FFF7D6FFB0
:1077000020B12046BDE81040FFF7D0BF10BD0000FB
:1077100010B5FFF76FFD08B9FFF7C4FD8348FFF709
:1077200053FF6524013C14F0FF0440F0D2808048F0
:10773000FFF74AFF2920FFF7DEFF002840F0F48022
:107740002A20FFF7D8FF08B1FFF7ACFD0520FFF7AF
:10775000D2FF08B1FFF7D8FEFFF756FD754C207039
:107760000720FFF7C8FF68B11B20FFF7C4FF002800
:1077700000F0B6802378C3F3400282F0010262F386
:107780004103237020786C4CFFF741FDFFF74AFD61
:107790002080E020FFF7AFFF38B12378C3F3000269
:1077A00082F0010262F3000323703920FFF7A3FF88
:1077B00038B12378C3F3400282F0010262F341033F
:1077C0002370E220FFF797FF38B12378C3F38002DC
:1077D00082F0010262F382032370E620FFF78BFF41
:1077E00038B12378C3F3C00282F0010262F3C3030D
:1077F0002370E320FFF77FFF38B12378C3F3001233
:1078000082F0010262F3041323703520FFF773FF47
:1078100038B12378C3F3401282F0010262F34513BA
:1078200023703120FFF767FF38B12378C3F380124C
:1078300082F0010262F3861323701120FFF75BFFD1
:1078400038B12378C3F3C01282F0010262F3C71388
:1078500023702078FFF7E9FC2720FFF74CFF044650
:107860001E20FFF748FF10B144F00204E4B21F20CD
:10787000FFF741FF10B144F00404E4B22020FFF709
:107880003AFF10B144F00804E4B22120FFF733FFBF
:1078900010B144F01004E4B22220FFF72CFF10B125
:1078A00044F02004E4B22320FFF725FF10B144F098
:1078B0004004E4B22420FFF71EFF80B364F07F048D
:1078C000E4B22046FFF7AAFC2046BDE81040FFF7CF
:1078D000E1BAFCF769FD0A200021FFF713FE21E75A
:1078E0000E20FFF708FF38B12378C3F3800282F03F
:1078F000010262F3820344E71020FFF7FCFE2378C5
:1079000030B1C3F3C00282F0010262F3C30338E76F
:10791000C3F3000282F0010262F3000331E7002C9E
:10792000CFD1FFF778FCD0E710BD00BF0C100100ED
:1079300021100100E52800200C3000200C490D4AE0
:107940004F230B60136A43F0800313620A4BD3F892
:107950002021012060F30302C3F82021D3F8202165
:1079600042F04002C3F8202150230B60704700BF53
:10797000F468002000080040001C00404F4A5123DA
:1079800013604F4B01200221C3F88400C3F8841018
:107990000421C3F8841093F8B01060F3030183F856
:1079A000B01093F8B01060F3071183F8B01093F89B
:1079B000B11060F3030183F8B11093F8C0100143D4
:1079C00083F8C01093F8C110014383F8C11093F8F5
:1079D000C210014383F8C2103A4B19880143198041
:1079E0005220196BC9074AD4364B5320198811F01D
:1079F000010146D1188861F30A201880997A022083
:107A000060F3030199722F4B5420196B89063AD405
:107A1000997A11F00F0038D1997A60F306119972B2
:107A2000284955200B6B9B0641D4CB7A2D2060F35F
:107A30000503CB72234B5620196BC1F3801100292B
:107A400037D1B3F8480061F30200A3F84800B3F857
:107A5000480061F30610A3F84800B3F8480061F34A
:107A60000A20A3F84800198841F00201198015493D
:107A700057200B6B9B071ED4582313607047106070
:107A8000AFE71060B2E71060BFE7987A00F00F0030
:107A90000128C1D0987A00F00F000228BCD0987A53
:107AA00000F00F000328B7D0997A0420B5E71060E2
:107AB000B8E71060C0E71060DBE700BFF4680020A3
:107AC00000800041001C00430C4B9A8860F30402C4
:107AD0009A801A6B5007FCD41A7D42F002021A7584
:107AE000064A1346116B0905FCD493F82E20D207E1
:107AF000FBD5B3F8400080B2704700BF001C0043C4
:107B000010B54B4A4B49322313604B4B0B600B684B
:107B10000B624A4B58696FF34100586158690D2454
:107B200064F317505861586940F40040586158692F
:107B3000052464F3CE205861586940F4C060586150
:107B400058696FF3C7105861586940F004005861D4
:107B5000586940F00200586133241869C0073AD5CB
:107B60003748086593F830006FF3410083F8300020
:107B7000324B3424D86B80072FD4986B022464F3E3
:107B800047109863986B072464F31A409863586B06
:107B90002F2464F30C005863284B3520DC6BC4F3AE
:107BA0008004E4B993F8300064F3C71083F8300020
:107BB00093F8300040F0020083F830001F4836246C
:107BC000C36B9B070DD41D483724036CDB070AD514
:107BD0001A4C38200AE01460BFE71460CAE710604E
:107BE000DCE71460ECE71460EFE71060236C9B07A0
:107BF000FBD5086DA36B646BC3F30A43C4F30C0499
:107C000040080133B0FBF3F304FB03334B600D4B2F
:107C1000186A072464F3030018623924586840077F
:107C200004D44B680B623A23136010BD1460F5E76F
:107C3000F468002078680020006CDC02001000402E
:107C40000024F400001C00402D4B222270B51A6065
:107C50002C4A23255468C4F38B04002C45D100F131
:107C60000804072652F8245066F3030542F824500E
:107C7000244D24266A68C2F38B02002A37D1800083
:107C8000214D00F1804000F5E0506A68B2FBF1F14F
:107C9000C9B2418429461B4D25266A68C2F38B026E
:107CA0003ABB55F8246062F30C36164A45F8246056
:107CB00026265568C5F38B05EDB952F8245045F4D6
:107CC000807542F824500F4D27266A68C2F38B0254
:107CD0009AB94A68408C80B2B2FBF0F241F8242095
:107CE00028221A6051F8240070BD1D60B2E71E60A2
:107CF000C0E71E60D1E71E60DBE71E60E5E700BF5E
:107D0000F4680020001C004078680020204B2149C6
:107D100029221A602A204A68C2F38B02002A2DD138
:107D2000486A62F303001B4A48622B205168C1F382
:107D30008B0129BB516AC0F20101516215492C2007
:107D40004A68C2F38B02EAB9486A62F30C30114AFE
:107D500048622D205168C1F38B01A9B9516A41F4E1
:107D6000807151620B492E204A68C2F38B026AB9B6
:107D7000094A116D51622F221A6070471860CAE7D4
:107D80001860D3E71860DBE71860E3E71860EBE7FB
:107D9000F4680020001C0040786800201D4B1E4A3B
:107DA00000210020C3E90001302313601B4B196838
:107DB0006FF3410119601969C1F340010029FAD13B
:107DC000174B186861F3410018601969C1F340014D
:107DD0000029FAD1114B99821969C1F300110029C8
:107DE000FAD10F4B59611969C906FCD4196841F0E1
:107DF000020119600A490B699807FCD4074B1968FE
:107E000041F00201196019698907FCD4312313601C
:107E1000704700BFE8680020F468002000140042AA
:107E200000380040074B9A7AD20609D5102206493D
:107E30009A72D1E90023013243F10003C1E9002322
:107E4000704700BF00140042E8680020084B9A7A8F
:107E5000D1060BD510229A72064A012111701A68B8
:107E60006FF341021A601A699207FCD4704700BF91
:107E700000180042E068002038B59D4C9D49092358
:107E800002202360FFF7E0FEFFF740FF9A4AD36924
:107E900043F02003D361994BD3F8F810022060F32C
:107EA0000301C3F8F810D3F8F81041F04001C3F80B
:107EB000F810D16941F04001D161D3F8F82060F3A6
:107EC0000302C3F8F820D3F8F82042F04002C3F8C8
:107ED000F8200D2323608A4B1A686FF341021A6061
:107EE0000E211A69920700F1EA801A6842F0010235
:107EF0001A60834A0F211369DB0700F1E280804B8F
:107F000010211A68D50700F1DE8005221A717C4B1A
:107F100011211A69500700F1D88040F2E7329A83A4
:107F2000774B12211A69C2F38012002A40F0CF80E9
:107F3000197B012060F301011973D98841F4805144
:107F4000D98070494FF40040C860597A41F010015F
:107F5000597213232360142323606B4B196862F357
:107F60004101196015211A69920700F1B2801A685F
:107F700042F001021A60644A16211369DD0700F11C
:107F8000AA80614B17211A68D00700F1A68005224C
:107F90001A715D4B18211A69C2F38002002A40F061
:107FA0009E80197B012060F301011973D98841F487
:107FB0008051D98053494FF48030C860597A41F0DC
:107FC000100159724C49192323604B6943F48043D3
:107FD0004B614A4BD3F8A400022565F30300C3F8B4
:107FE000A400D3F8A40040F04000C3F8A4004869FE
:107FF00040F400404861D3F8A41065F30301C3F8CE
:10800000A410D3F8A41041F04001C3F8A4101A231F
:1080100023603E4B196862F3410119601B211A6904
:1080200092075ED41A6842F001021A60374A1C2196
:108030001369DB0757D4354B1D221D6815F0010568
:1080400053D11968022262F383011960D98841F083
:108050002001D980D98862F30201D9801E232360D0
:1080600025491F2323608B6943F080038B61234BD9
:10807000D3F8AC1062F30301C3F8AC10D3F8AC2012
:1080800042F04002C3F8AC20214B0121C3F8D011CB
:108090001A6A61F38B221A621A6A65F309221A625C
:1080A0001A6A562161F306021A6220232360FFF741
:1080B00075FEFFF743FC21232360284638BD21606D
:1080C0000FE7216017E721601BE7216021E72160AE
:1080D00028E7216047E721604FE7216053E72160EF
:1080E00059E721609BE72160A2E72260A5E700BF76
:1080F000F468002040420F0000080040001C0040CF
:108100000014004200E100E0001800420038004086
:1081100000E00041014BD3E900017047E86800200E
:1081200010B5144A144B002111701C6814F0020F92
:10813000144614D109281AD90A3880B20E4B9883F4
:108140001A695206FCD41A6842F002021A600A4AFE
:1081500013699B07FCD42378002BFCD010BD1A6850
:1081600061F341021A601A699107FCD4E2E700202A
:10817000E4E700BFE06800200018004230B5074B7C
:10818000D3E90045001941F10001D3E9004500257C
:108190008D4208BF8442F8D330BD00BFE86800209C
:1081A000032813D8DFE800F002080D130A4A5369C8
:1081B00043F4805353617047074A536943F40053B3
:1081C000F8E7054A936943F4007393617047024AE4
:1081D000936943F48063F8E700080040F8B51E4F48
:1081E0001E4E072356F820503B600446FFF7D8FF89
:1081F00006441B4A337E203352F823006FF30300FA
:1082000042F8230052F8230040F0400042F82300D7
:108210002B6843F001032B603846EB69DA07FCD486
:108220002B68DB07FCD40F4A136A5B08B3FBF1F140
:108230000139C9B22973136A297B0234013102EB77
:1082400084045B08B3FBF1F35365536D636008234B
:108250000360506DF8BD00BFF468002028100100D5
:10826000001C004078680020F8B5204F204E052300
:1082700056F820503B600446FFF792FF06441D4A23
:10828000337E203352F823006FF3030042F82300BB
:1082900052F8230040F0400042F823002B6843F0DE
:1082A00001032B603846EB69DA07FCD42B68DB0747
:1082B000FCD4114A136A5B08B3FBF1F1EB68013996
:1082C000C9B261F30703EB60136AE9680234C9B20B
:1082D000013102EB84045B08B3FBF1F39365936D0A
:1082E000636006230360906DF8BD00BFF468002052
:1082F00028100100001C004078680020F8B5204FCD
:10830000204E032356F820503B600446FFF748FFF9
:1083100006441D4A337E203352F823006FF30300D6
:1083200042F8230052F8230040F0400042F82300B6
:108330002B6843F001032B603846EB69DA07FCD465
:108340002B68DB07FCD4114A136A5B08B3FBF1F11D
:10835000EB680A39C9B261F30703EB60136AE96895
:108360000234C9B20A3102EB84045B08B3FBF1F3B7
:10837000D365D36D636004230360D06DF8BD00BF87
:10838000F468002028100100001C004078680020DC
:1083900010B5074C0748012368220021236004F030
:1083A000A9FCFFF7ADFBFFF767FD0223236010BDBB
:1083B000F46800207868002009282DE9F0475ED98C
:1083C00063285ED9B0F57A7F5DD342F20F7398428D
:1083D0005BD94C4B98425AD94B4B984259D94B4B8D
:1083E000984258D94A4B984257D94A4A904294BF2A
:1083F00008220922484F494BDFF83081DFF830E18D
:10840000DFF83091464D4FF00A0C1446012614F166
:10841000FF3444D2B0FBF6F406FB1400002C51D11B
:108420004FF000643C601D601C68002C3AD14FF096
:108430000064CEF800401D601C68002C36D14FF05F
:1084400000643C601D601C68002C33D14FF0006458
:10845000CEF800401D601C68002C2FD1314C1C60F0
:108460001C68002C47D1013A52B2541CCDD121B125
:108470002D4A1A601A68002A40D1BDE8F087002210
:10848000B8E70122B6E70222B4E70322B2E70422EA
:10849000B0E70522AEE70622ACE70722AAE70CFB0D
:1084A00006F6B4E71C68013C1C60BDE71C68013C93
:1084B0001C60C1E71C68013C1C60C4E71C68013CEF
:1084C0001C60C8E74FF0006AC7F800A0C3F800803E
:1084D0001E6846B9CEF800A0C3F800901E6836B9F1
:1084E000013CF1D1BAE71E68013E1E60F0E71E684C
:1084F000013E1E60F2E71C68013CB0E71A68013AD1
:10850000B7E700BF9F8601003F420F007F969800AB
:10851000FFE0F505FFC99A3B18800041F068002094
:1085200090D0030060E31600808D5B0040420F0096
:108530001480004120A1070008B5034C20680121E8
:10854000FFF73AFFFAE700BFF4680020214B002153
:108550001960214B4FF00042C3F88420C3F89820E3
:1085600093F8DF2042F0020283F8DF2093F8DF2047
:1085700042F0040283F8DF2093F8DF2042F001028A
:1085800083F8DF2093F8BF2061F3071283F8BF2040
:10859000124A536943F480635361114B1A7842F0D5
:1085A00001021A705A68D207FCD44FF400429A6153
:1085B0001A611A6A022161F31E721A621A780A435A
:1085C0001A70074A53689B07FCD4064B4FF00062B1
:1085D0001A607047F46800200080004100080040E5
:1085E0000028004000E100E00C4B4FF00062C3F8AF
:1085F0008020BFF34F8FBFF36F8F094B1A786FF353
:1086000041021A705A68C2F34002002AFAD1054B9F
:10861000596962F38A215961704700BF00E100E0A7
:10862000002800400008004010B5294C2949592372
:1086300000202360FFF718FE274B93F83420022117
:1086400061F3030283F8342093F8342061F30712B6
:1086500083F8342093F8482042F0010283F8482040
:1086600093F8492042F0010283F849201B4B1A6815
:10867000052161F384021A601A686FF319621A60A7
:108680001A6842F080021A601A6842F002021A6008
:108690005A202246D969890713D4598B012060F3E7
:1086A000051159830D495B20CB695B070BD40B493E
:1086B0005C204B8BC3F30113012B06D15D231360A8
:1086C00010BD1060E6E71060EEE71060F1E700BF54
:1086D000F4680020A08601000080004100300040C6
:1086E000084B5A6A60F30A025A62DA695107FCD4ED
:1086F0001A7ED207FCD5034A538B5B07FCD40120BA
:10870000704700BF00300040104B5A8B110607D451
:108710001A7ED20704D45A8BC2F30112012A14D054
:108720005A6842F440325A60084A1346D1694807F1
:10873000FCD45A8B1106FCD41A7ED207FCD4034A0F
:10874000538BC3F30113012BFAD170470030004063
:1087500038B50D461446B2B1FFF7C2FF0B4A013CD3
:108760006B1E15FA84F1104613F8014F9462047ED3
:10877000E507FCD5448B6407FCD48B42F4D1FFF7AA
:10878000C3FF012038BD104638BD00BF0030004097
:1087900010B52F4C2F495E2301202360FFF7AEFD5B
:1087A0002D4B93F83820022161F3030283F838201F
:1087B00093F8382061F3071283F8382093F850209B
:1087C00042F0010283F8502093F8512042F0010258
:1087D00083F85120214B1A68052161F384021A6045
:1087E0001A68012161F319621A601A6842F0800266
:1087F0001A605A6842F480725A60194A4FF4802114
:1088000051609A7D42F080029A751A6842F0020225
:108810001A605F202246D969890713D4598B012039
:1088200060F3051159830D496020CB695B070BD4B8
:108830000A4961204B8BC3F30113012B06D162233C
:10884000136010BD1060E6E71060EEE71060F1E71E
:10885000F4680020A0D908000080004100340040E6
:1088600000E100E0084B5A6A60F30A025A62DA69D2
:108870005107FCD41A7ED207FCD5034A538B5B0701
:10888000FCD40120704700BF00340040104B5A8BCD
:10889000110607D41A7ED20704D45A8BC2F30112F0
:1088A000012A14D05A6842F440325A60084A1346EA
:1088B000D1694807FCD45A8B1106FCD41A7ED20722
:1088C000FCD4034A538BC3F30113012BFAD1704735
:1088D0000034004038B50D461446B2B1FFF7C2FF70
:1088E0000B4A013C6B1E15FA84F1104613F8014F38
:1088F0009462047EE507FCD5448B6407FCD48B426C
:10890000F4D1FFF7C3FF012038BD104638BD00BFCA
:108910000034004013B5084B084C1B88ADF80430F8
:1089200040F2E11358430222002301A9205CFFF723
:10893000D1FF02B010BD00BF461001000069002049
:1089400013B5FD238DF8043040F2E1135843054C74
:108950008DF805100023022201A9205CFFF7BAFF61
:1089600002B010BD0069002013B50A438DF8052040
:10897000084A094C12788DF8062040F2E112504363
:108980000023032201A9205C8DF80430FFF7A2FF29
:1089900002B010BDC46C00200069002013B50F2385
:1089A0008DF8043040F2E1135843064C8DF8051061
:1089B0008DF806200023032201A9205CFFF78AFF1F
:1089C00002B010BD0069002010B51F4C1F4A65237E
:1089D0002360802313701E4A13701E4A00201370F8
:1089E000FFF798FF03210020FFF7AAFF00210122D3
:1089F0000846FFF7B9FF0120FFF78CFF0321012094
:108A0000FFF79EFF012210460021FFF7ADFF002077
:108A1000FFF780FF03210020FFF792FF0522114698
:108A20000020FFF7BBFF0120FFF774FF03210120A7
:108A3000FFF786FF052211460120FFF7AFFF6623EF
:108A40002360012010BD00BFF4680020C46C00202A
:108A5000CC6C0020C26C00202F4967230B602F4B89
:108A60001A886FF341021A801A889207FCD41A8878
:108A700042F001021A80294B1A8812F00100FBD142
:108A8000274A5A63274A9A631A8892B242F470625C
:108A90001A801A6C60F341021A64204A1346106C63
:108AA0008007FCD4106C40F0010010641A6C12F0C6
:108AB0000102FBD1186C62F31D701864186C62F32C
:108AC0001B6018641A6C022060F315521A641A6C49
:108AD000072060F30E221A641A6C42F040021A64F6
:108AE000114A4FF00040106093F84D2042F002020E
:108AF00083F84D2093F84D2042F0010283F84D2079
:108B00001A8842F002021A80044A13889B07FCD597
:108B100068230B60704700BFF468002000A000418C
:108B2000502E0020402E002000E100E010B5084C3F
:108B30006923421E2360074B504250411A7860F36C
:108B400004121A7000F042FE6A23236010BD00BFB9
:108B5000F4680020F06C002010B50C4C632300205A
:108B60002360FFF7E3FF01200021FFF707FB084B1D
:108B70001A786FF345121A7000F028FE01200021C8
:108B8000FFF7FCFA64232360012010BDF468002085
:108B9000F06C0020104B1A886FF34F321A801A883D
:108BA0006FF30C321A801A886FF3CB221A801A885E
:108BB00042F480621A801A886FF309221A801A8898
:108BC0006FF3C4021A801A886FF342021A801A885F
:108BD00042F001021A807047502E002008B5FFF7BE
:108BE000D9FF054B8AB25A800844044A58609A60FB
:108BF0000022DA6008BD00BF502E0020283400405B
:108C0000094A136C43F002031364084B40F2E1126B
:108C10005B885043064A1B04125C43F40053134321
:108C2000044A5362704700BF00A00041502E00204C
:108C3000006900200034004010B504460648FE23B9
:108C400003700221C5234370FFF7C8FF2046BDE82B
:108C50001040FFF7D5BF00BF062B002010B504461B
:108C60000548FD23417002210370FFF7B7FF20463E
:108C7000BDE81040FFF7C4BF062B002010B5044626
:108C8000064801230370064B02211B784370FFF74F
:108C9000A5FF2046BDE81040FFF7B2BF062B00201D
:108CA000C46C002038B50B490B4B0446C12540F27B
:108CB000E11000FB04112A46184603F081FF002250
:108CC00029460270FFF78AFF2046BDE83840FFF7CB
:108CD00097BF00BF4C690020062B00200E4A38B514
:108CE00040F2E11303FB00230C4A0446114603F152
:108CF000180053F8045B42F8045B8342F9D11B78F7
:108D0000137000230B7005481921FFF767FF2046F9
:108D1000BDE83840FFF774BF01690020062B002032
:108D200010B5084C6422002104F1FF0003F0E2FFBB
:108D3000054A002384F8633184F86431137084F8A1
:108D4000653110BD062B0020F8680020044B93F815
:108D5000630193F86431C31A58425841704700BF09
:108D6000062B0020064B93F8640193F863316422CC
:108D7000C01A90FBF2F302FB1300C0B2704700BFB1
:108D8000062B002008B5FFF7EDFFC0F16300C0B26D
:108D900008BD0000074A92F86431D118013381F808
:108DA000FF00642093FBF0F100FB113382F8643183
:108DB000704700BF062B0020054991F863316420FD
:108DC000013393FBF0F200FB123381F863317047FB
:108DD000062B002008B50146FFF7D4FF88420D4A54
:108DE00011D292F865310133DBB2632B82F8653121
:108DF0000DD9094B4FF000621A60FFF72DFEFFF707
:108E00008FFF012008BD002382F86531F9E70020BB
:108E100008BD00BF062B00201880004138B5FFF7C1
:108E200095FF2B4B10B10020187038BD1A78012027
:108E3000A2B9284C187094F86331234493F8FF309A
:108E4000652B0CD1FFF7B8FF94F863311C4494F8FC
:108E5000FF00FFF7F1FEFFF7AFFF012038BD662BE3
:108E600011D1FFF7A9FF94F86331234493F8FF5021
:108E7000FFF7A2FF94F863311C44284694F8FF10D2
:108E8000FFF7ECFEE7E7672B09D1FFF795FF94F8B2
:108E900063311C4494F8FF00FFF704FFDBE7682B05
:108EA00009D1FFF789FF94F863311C4494F8FF005F
:108EB000FFF7E4FECFE7692BCDD1FFF77DFF94F8F4
:108EC00063311C4494F8FF00FFF708FFC3E700BFBD
:108ED000F8680020062B0020034B1A7ED2091CBF25
:108EE00080221A76704700BF0034004008B50C4B52
:108EF00093F84E2091070BD5022283F84E20FFF7FE
:108F0000C5FC084B00221A70BDE80840FFF786BF79
:108F100093F84E20D20744BF012283F84E2008BDAB
:108F200000A00041F868002038B53A4B3A4A197859
:108F3000A9B13A4B1B781370394B3A4C188840F65C
:108F4000970398420DD80020FFF7F0FD14232370FB
:108F5000354B00221A70354B01221A7038BD344B44
:108F6000E8E72078012802D90138207038BD07D100
:108F7000FFF7DCFD2F4801F039F80023237038BDDE
:108F80002A4B1878284B98B12B480088B0F51B6FF6
:108F900026D340F6EC15A84203D91D7810788542F7
:108FA0000AD31878127890421AD80023637038BD1B
:108FB000187812789042F7D21A78C2F1A5010129E7
:108FC00002DCA5221A70F0E70232FBE7023AD2B2C5
:108FD0001A7001294FF0000363701AD10F4BBCE7E0
:108FE0001A78012AF2D800251D70144B1B78012B2A
:108FF0000FD163780133DBB2C82B637009D903202A
:1090000001F02EFD0E4B0F481D70BDE8384000F0FA
:10901000EDBF38BD57680020C36C0020C56C002030
:10902000726800206C2C0020C46C0020866D00202B
:10903000C26C00204810010074680020A96D002057
:10904000AA6D0020701001002DE9F84F304C00216E
:1090500040F2C232204603F04DFEA0232370BE230F
:1090600084F8E1312B4B2C49D3F8A8E3204640F299
:10907000E11C4FF008084FF00109714501D3BDE82C
:10908000F88F0A7CCD7C91F811B08C7C0F7D013A71
:109090000CFB02F202F14C0A013D82440BEB05137A
:1090A0005344013C8B600BEB04135344013F4B6072
:1090B0000BF1FF330BEB071B0AEB0B06CE60D3F172
:1090C000000A93FBF8F602F1010206EB45050244A3
:1090D00005F101050AF0070A03F0070358BFCAF1BA
:1090E000000309FA03F312F805A05BB243EA0A0A87
:1090F00006EB440402F805A0013406EB4706155DB3
:109100001D43155501362C31945D23439355B4E727
:1091100000690020A0150020A804002070B52F4A87
:109120002F4B9FED307ADFED307AD2F8A8632F49CC
:1091300083ED027A0022C3ED037AC3ED047A83ED56
:10914000057A10461446B0EE676A1546F0EE475AA7
:10915000B1421CD30DB1C3ED025A0CB183ED036AC9
:1091600008B183ED057A0AB1C3ED047A93ED027A72
:10917000D3ED037A77EEC77A93ED057AC3ED067ADD
:10918000D3ED047A77EEC77AC3ED077A70BDD1EDDF
:10919000066AF4EEE56AF1EE10FAF4EEC66A44BF30
:1091A000F0EE665A0125F1EE10FAC8BFB0EE666A1D
:1091B000D1ED076AF4EEC76AC8BF0124F1EE10FAD8
:1091C000F4EEE76A44BFB0EE667A0120F1EE10FAE1
:1091D000C4BFF0EE667A01222C31B9E7A015002059
:1091E000D06C0020F9021550F90215D0A804002017
:1091F00010B5184B184C194ADFED196A0021D4F844
:10920000A803834200D310BD93ED067AD2ED027A13
:1092100092ED066A586837EE677A2C33C7EE067A05
:1092200013ED047A92ED076A67EEA67A43ED037AAE
:10923000D2ED057A37EE677AC7EE067A67EEA67A40
:1092400043ED027A017053F8240C017053F8200C9E
:109250000170D4E7A8040020A0150020D06C0020E5
:109260000000C84208B5FFF759FFBDE80840FFF706
:10927000BFBF000038B51A4D6B232B60FFF7E4FE2B
:10928000FFF7F0FF174900220023C1E90023164928
:10929000C1E90023154A01231370154A00241470F4
:1092A000144A1470144A4FF081411160134A14702B
:1092B000134A1470134A1470134A1470134A13702B
:1092C000134A1370134B5C701C70134B1C60FBF73C
:1092D000C5FBFBF7D1FB6C232B60204638BD00BFDC
:1092E000F4680020D06C0020606800205E680020D8
:1092F000546800205D680020902F00205C680020EA
:1093000055680020576800206868002069680020C0
:10931000566800206C2C0020586800202DE9F04190
:10932000364B374D1B78374E002B5DD0364FFEF74E
:10933000F1FED7E900230021994208BF904253D3A0
:109340002A68D6F8A8339A4253D1FEF7E3FE0024E8
:109350000A3087E811002D4A2D4F1078397888425D
:1093600090461FD00720FFF735FDA0B16520FFF71D
:1093700011FD2046FFF70EFD6620FFF70BFD20468E
:10938000FFF708FD0320FFF705FD6820FFF702FD4A
:109390002046FFF7FFFC0134E4B2022CE2D198F83A
:1093A00000303B7000240720FFF714FDA0B16520BA
:1093B000FFF7F0FC2046FFF7EDFC6620FFF7EAFC24
:1093C0002046FFF7E7FC0120FFF7E4FC6720FFF7EA
:1093D000E1FC2046FFF7DEFC0134E4B2022CE2D1CE
:1093E000FFF71CFD00232B602A68D6F8A8339A42A9
:1093F00001D0FBF741FBBDE8F08100BF5E680020B3
:1094000058680020A015002060680020C46C00206F
:10941000CC6C0020044B93F90030002BB4BF034BFD
:10942000034B1878704700BF0C300020406D0020BF
:10943000846D00207047000010B5EFF3108472B601
:10944000BFF35F8F084B03221A7008B1803880B2D7
:10945000A3F80100054B01221A7000F0B9FFBFF319
:109460005F8F84F3108810BD3C6D0020126D0020CA
:1094700010B5EFF3108472B6BFF35F8F074B042271
:109480001A70A3F80100064B01221A7000F0A0FF29
:10949000BFF35F8F84F3108810BD00BF3C6D0020C8
:1094A000126D002070B54FF082435C7BE4B2042C57
:1094B0000AD1174B174D00221A602B78042B26D0A7
:1094C000FDF7CFFF2C7070BD082C06D1104B114D4D
:1094D00000221A602B78082BF1E7022C14D10D4ED4
:1094E0003378022B13D00A4D2B6823B9FEF712FEF6
:1094F000FA30286070BDFEF70DFE2B68984206D941
:10950000FDF7BAFF347070BD014B00221A6070BDC8
:10951000782C00206C190020034B1B78022B01D102
:10952000FFF7FCBE704700BF6C1900200000000070
:10953000F8B51F4CFEF7EEFDD4E9022300218B4263
:1095400008BF82422BD2FEF7E5FD0530A060002364
:109550000C20E360FEF7B8FA164C174B054618804E
:10956000208802F087FD0EA3D3E9002302F0E8FD76
:10957000064628460F4602F07DFD0BA3D3E90023E3
:1095800002F0DEFD0B4602463946304602F026FC6C
:1095900002F0E8FF2080BDE8F840FFF7C5BCF8BD49
:1095A000CDCCCCCCCCCCEC3F9A9999999999B93F38
:1095B000782C0020746800207268002010B50A4CD6
:1095C000FEF7A8FDD4E9042300218B4208BF8242A4
:1095D00009D2FEF79FFD00230A3020616361BDE8D8
:1095E000104001F08DBA10BD782C002008B5FFF7AF
:1095F00059FFFFF791FFFFF79BFFBDE80840FFF71A
:10960000DDBF000038B51D4B1B78DB09044633D1A4
:109610001B4D2B789BB9EFF3108572B6BFF35F8FAC
:10962000184A2368136063685360174B01221A704D
:1096300000F052FEBFF35F8F85F3108838BDFFF74F
:10964000D5FFE6E7FFF7D2FF2B78002BFAD1EFF337
:10965000108572B6BFF35F8F0C4B204604F12002D9
:1096600050F8041B43F8041B9042F9D1084B012227
:109670001A7000F06DFEDDE7064DE5E70C300020C6
:10968000116D0020086D0020106D0020186D002065
:10969000046D0020136D0020464B4FF0006270B542
:1096A0001A604FF08042C3F88020434CFEF74EFF13
:1096B000FEF76EFEFEF762F900F0CAF8FFF768F8F1
:1096C000FAF70EFE00F040FF7A23236000F052FA12
:1096D0007B2323607C23236000F08AFC7D232360AE
:1096E00001F070F90028FBD0344B4FF000621A6093
:1096F0004FF08042C3F88020FFF7BCFDFFF72CFA43
:109700000128FBD1FFF760F90128FBD1FFF7A4F98D
:10971000FFF706FB00240720FFF75CFBA0B16520E4
:10972000FFF738FB2046FFF735FB6620FFF732FBDB
:109730002046FFF72FFB0020FFF72CFB6920FFF7E7
:1097400029FB2046FFF726FB0134E4B2022CE2D1CC
:10975000FCF797FCFCF79BFC19481A4EFCF73AFC07
:109760000C20FEF7B1F9184B1880FEF73DFF0024DE
:109770000025FFF73BFF3378042B01D0082B0AD1DB
:10978000FDF757FE0028F4D002F0B0FA3220002195
:10979000FDF7B8FEEDE7FCF7A9FCFEF7BBFC0021E6
:1097A0008D4208BF8442E4D2FEF7B4FCFA3004468E
:1097B0000025DEE708800041F468002014800041A5
:1097C000701900206C190020746800201B4B1C4984
:1097D0004FF4804270B51A601A4A4CF250333C2064
:1097E000147EE40702D4013B9BB20BBB164B154A17
:1097F0001988134CCBB2936210464CF250333D257E
:10980000167EB60702D4013B9BB29BB9090A81625E
:109810000C4A0B494CF250333E20147EA40702D46C
:10982000013B9BB243B9094B4FF480421A6070BDB3
:109830000860D5E72560E3E70860EEE79480004123
:10984000F468002000200141F06C00209880004165
:1098500010B5314C31493B2302202360FEF7BEFC9A
:109860002F4B93F83620022161F3030283F8362050
:1098700093F8362061F3071283F8362093F84C20D2
:1098800042F0010283F84C2093F84D2042F001028F
:1098900083F84D204FF44042C3F888204FF48042B3
:1098A000C3F898204FF40042C3F898201D4B1A6863
:1098B00042F080421A601A6842F000521A601A6838
:1098C00042F080521A601A6842F440121A601A6814
:1098D000032161F384021A601A6842F002021A60DE
:1098E0003F214CF25132D869800701D5013A11D19C
:1098F0000D4B4FF01C026FF300025A706FF01F0205
:109900001A70FFF763FF094B4FF400421A604023BF
:10991000236010BD2160E6E7F468002040420F009C
:109920000080004100200141F06C00209480004143
:10993000FEE7000008B51D4A1D4B52F8101C994265
:109940000AD1002342F8103C1A4A82F308881A4AC6
:10995000936041F267231847184A194B9A4218D16D
:10996000184B194A002193421CD3184A124B22F07B
:109970007F029A60D3F8882042F47002C3F88820EE
:10998000BFF34F8FBFF36F8F03F0F2F8FFF784FE42
:10999000FEE70F49043A8B42E2D252F8040F43F833
:1099A000040BF8E743F8041BDDE700BF00000220CA
:1099B00000CA9A3B1888002000ED00E02414010042
:1099C0000000002060250020EC7100200040000015
:1099D0005425002000F074BD00F075BD08B501F0FD
:1099E000B1FFBDE8084000F06FBD00F06ABD00F0B7
:1099F00069BD0000014B012018707047902C0020B9
:109A0000014B00221A707047902C0020014B01205E
:109A100058707047902C0020014B00225A707047FC
:109A2000902C0020014B012098707047902C002052
:109A3000014B00229A707047902C0020014B0120AE
:109A4000D8707047902C0020014B0022DA707047CC
:109A5000902C002070B5124A13780BB9002070BD0D
:109A600053681B681C798442F8D993605D88002490
:109A70001D44AB4203D3002CF0D09360EEE75E7838
:109A8000042E09D19E78864206D1DE788E4203D11B
:109A900004B19360012070BD1C7823440124E8E7E1
:109AA000942C0020024B987800F07F0002F00EB951
:109AB000A4710020084B5B681B685A881A4403781D
:109AC0001844904201D3002004E04378042BFAD0DC
:109AD000052BF4D1704700BF942C002070B50646CA
